{
  "abi": [
    {
      "inputs": [],
      "stateMutability": "nonpayable",
      "type": "constructor"
    },
    {
      "anonymous": false,
      "inputs": [
        {
          "indexed": true,
          "internalType": "address",
          "name": "account",
          "type": "address"
        },
        {
          "indexed": true,
          "internalType": "address",
          "name": "operator",
          "type": "address"
        },
        {
          "indexed": false,
          "internalType": "bool",
          "name": "approved",
          "type": "bool"
        }
      ],
      "name": "ApprovalForAll",
      "type": "event"
    },
    {
      "anonymous": false,
      "inputs": [
        {
          "indexed": true,
          "internalType": "address",
          "name": "to",
          "type": "address"
        },
        {
          "indexed": true,
          "internalType": "uint256",
          "name": "tokenId",
          "type": "uint256"
        }
      ],
      "name": "Attest",
      "type": "event"
    },
    {
      "anonymous": false,
      "inputs": [
        {
          "indexed": true,
          "internalType": "address",
          "name": "account",
          "type": "address"
        },
        {
          "indexed": false,
          "internalType": "string",
          "name": "message",
          "type": "string"
        }
      ],
      "name": "NFTIsMinted",
      "type": "event"
    },
    {
      "anonymous": false,
      "inputs": [
        {
          "indexed": true,
          "internalType": "address",
          "name": "previousOwner",
          "type": "address"
        },
        {
          "indexed": true,
          "internalType": "address",
          "name": "newOwner",
          "type": "address"
        }
      ],
      "name": "OwnershipTransferred",
      "type": "event"
    },
    {
      "anonymous": false,
      "inputs": [
        {
          "indexed": true,
          "internalType": "address",
          "name": "operator",
          "type": "address"
        },
        {
          "indexed": true,
          "internalType": "address",
          "name": "from",
          "type": "address"
        },
        {
          "indexed": true,
          "internalType": "address",
          "name": "to",
          "type": "address"
        },
        {
          "indexed": false,
          "internalType": "uint256[]",
          "name": "ids",
          "type": "uint256[]"
        },
        {
          "indexed": false,
          "internalType": "uint256[]",
          "name": "values",
          "type": "uint256[]"
        }
      ],
      "name": "TransferBatch",
      "type": "event"
    },
    {
      "anonymous": false,
      "inputs": [
        {
          "indexed": true,
          "internalType": "address",
          "name": "operator",
          "type": "address"
        },
        {
          "indexed": true,
          "internalType": "address",
          "name": "from",
          "type": "address"
        },
        {
          "indexed": true,
          "internalType": "address",
          "name": "to",
          "type": "address"
        },
        {
          "indexed": false,
          "internalType": "uint256",
          "name": "id",
          "type": "uint256"
        },
        {
          "indexed": false,
          "internalType": "uint256",
          "name": "value",
          "type": "uint256"
        }
      ],
      "name": "TransferSingle",
      "type": "event"
    },
    {
      "anonymous": false,
      "inputs": [
        {
          "indexed": false,
          "internalType": "string",
          "name": "value",
          "type": "string"
        },
        {
          "indexed": true,
          "internalType": "uint256",
          "name": "id",
          "type": "uint256"
        }
      ],
      "name": "URI",
      "type": "event"
    },
    {
      "anonymous": false,
      "inputs": [
        {
          "indexed": true,
          "internalType": "address",
          "name": "account",
          "type": "address"
        },
        {
          "indexed": false,
          "internalType": "string",
          "name": "message",
          "type": "string"
        }
      ],
      "name": "trialNFTIsMinted",
      "type": "event"
    },
    {
      "inputs": [],
      "name": "TRIALNFTID",
      "outputs": [
        {
          "internalType": "uint256",
          "name": "",
          "type": "uint256"
        }
      ],
      "stateMutability": "view",
      "type": "function"
    },
    {
      "inputs": [
        {
          "internalType": "address",
          "name": "account",
          "type": "address"
        },
        {
          "internalType": "uint256",
          "name": "id",
          "type": "uint256"
        }
      ],
      "name": "balanceOf",
      "outputs": [
        {
          "internalType": "uint256",
          "name": "",
          "type": "uint256"
        }
      ],
      "stateMutability": "view",
      "type": "function"
    },
    {
      "inputs": [
        {
          "internalType": "address[]",
          "name": "accounts",
          "type": "address[]"
        },
        {
          "internalType": "uint256[]",
          "name": "ids",
          "type": "uint256[]"
        }
      ],
      "name": "balanceOfBatch",
      "outputs": [
        {
          "internalType": "uint256[]",
          "name": "",
          "type": "uint256[]"
        }
      ],
      "stateMutability": "view",
      "type": "function"
    },
    {
      "inputs": [
        {
          "internalType": "address",
          "name": "account",
          "type": "address"
        },
        {
          "internalType": "uint256",
          "name": "id",
          "type": "uint256"
        },
        {
          "internalType": "uint256",
          "name": "value",
          "type": "uint256"
        }
      ],
      "name": "burn",
      "outputs": [],
      "stateMutability": "nonpayable",
      "type": "function"
    },
    {
      "inputs": [
        {
          "internalType": "address",
          "name": "account",
          "type": "address"
        },
        {
          "internalType": "uint256[]",
          "name": "ids",
          "type": "uint256[]"
        },
        {
          "internalType": "uint256[]",
          "name": "values",
          "type": "uint256[]"
        }
      ],
      "name": "burnBatch",
      "outputs": [],
      "stateMutability": "nonpayable",
      "type": "function"
    },
    {
      "inputs": [
        {
          "internalType": "bytes",
          "name": "",
          "type": "bytes"
        }
      ],
      "name": "checkUpkeep",
      "outputs": [
        {
          "internalType": "bool",
          "name": "needsUpkeep",
          "type": "bool"
        },
        {
          "internalType": "bytes",
          "name": "",
          "type": "bytes"
        }
      ],
      "stateMutability": "nonpayable",
      "type": "function"
    },
    {
      "inputs": [],
      "name": "currentDate",
      "outputs": [
        {
          "internalType": "uint256",
          "name": "",
          "type": "uint256"
        }
      ],
      "stateMutability": "view",
      "type": "function"
    },
    {
      "inputs": [
        {
          "internalType": "uint256",
          "name": "id",
          "type": "uint256"
        }
      ],
      "name": "exists",
      "outputs": [
        {
          "internalType": "bool",
          "name": "",
          "type": "bool"
        }
      ],
      "stateMutability": "view",
      "type": "function"
    },
    {
      "inputs": [],
      "name": "expireDate",
      "outputs": [
        {
          "internalType": "uint256",
          "name": "",
          "type": "uint256"
        }
      ],
      "stateMutability": "view",
      "type": "function"
    },
    {
      "inputs": [
        {
          "internalType": "address",
          "name": "account",
          "type": "address"
        },
        {
          "internalType": "address",
          "name": "operator",
          "type": "address"
        }
      ],
      "name": "isApprovedForAll",
      "outputs": [
        {
          "internalType": "bool",
          "name": "",
          "type": "bool"
        }
      ],
      "stateMutability": "view",
      "type": "function"
    },
    {
      "inputs": [
        {
          "internalType": "address",
          "name": "",
          "type": "address"
        }
      ],
      "name": "levelOfAccess",
      "outputs": [
        {
          "internalType": "bool",
          "name": "isExperiencedUser",
          "type": "bool"
        },
        {
          "internalType": "bool",
          "name": "isPremiumUser",
          "type": "bool"
        }
      ],
      "stateMutability": "view",
      "type": "function"
    },
    {
      "inputs": [
        {
          "internalType": "address",
          "name": "userToMakePremium",
          "type": "address"
        }
      ],
      "name": "makePremium",
      "outputs": [],
      "stateMutability": "nonpayable",
      "type": "function"
    },
    {
      "inputs": [
        {
          "internalType": "address",
          "name": "addressToMint",
          "type": "address"
        },
        {
          "internalType": "uint256",
          "name": "id",
          "type": "uint256"
        },
        {
          "internalType": "uint256",
          "name": "amount",
          "type": "uint256"
        },
        {
          "internalType": "bytes",
          "name": "data",
          "type": "bytes"
        }
      ],
      "name": "mint",
      "outputs": [],
      "stateMutability": "nonpayable",
      "type": "function"
    },
    {
      "inputs": [],
      "name": "mintDate4NFT",
      "outputs": [
        {
          "internalType": "uint256",
          "name": "",
          "type": "uint256"
        }
      ],
      "stateMutability": "view",
      "type": "function"
    },
    {
      "inputs": [],
      "name": "owner",
      "outputs": [
        {
          "internalType": "address",
          "name": "",
          "type": "address"
        }
      ],
      "stateMutability": "view",
      "type": "function"
    },
    {
      "inputs": [
        {
          "internalType": "bytes",
          "name": "",
          "type": "bytes"
        }
      ],
      "name": "performUpkeep",
      "outputs": [],
      "stateMutability": "nonpayable",
      "type": "function"
    },
    {
      "inputs": [],
      "name": "renounceOwnership",
      "outputs": [],
      "stateMutability": "nonpayable",
      "type": "function"
    },
    {
      "inputs": [
        {
          "internalType": "address",
          "name": "accountToReset",
          "type": "address"
        }
      ],
      "name": "resetToNewUser",
      "outputs": [],
      "stateMutability": "nonpayable",
      "type": "function"
    },
    {
      "inputs": [
        {
          "internalType": "address",
          "name": "from",
          "type": "address"
        },
        {
          "internalType": "address",
          "name": "to",
          "type": "address"
        },
        {
          "internalType": "uint256[]",
          "name": "ids",
          "type": "uint256[]"
        },
        {
          "internalType": "uint256[]",
          "name": "amounts",
          "type": "uint256[]"
        },
        {
          "internalType": "bytes",
          "name": "data",
          "type": "bytes"
        }
      ],
      "name": "safeBatchTransferFrom",
      "outputs": [],
      "stateMutability": "nonpayable",
      "type": "function"
    },
    {
      "inputs": [
        {
          "internalType": "address",
          "name": "from",
          "type": "address"
        },
        {
          "internalType": "address",
          "name": "to",
          "type": "address"
        },
        {
          "internalType": "uint256",
          "name": "id",
          "type": "uint256"
        },
        {
          "internalType": "uint256",
          "name": "amount",
          "type": "uint256"
        },
        {
          "internalType": "bytes",
          "name": "data",
          "type": "bytes"
        }
      ],
      "name": "safeTransferFrom",
      "outputs": [],
      "stateMutability": "nonpayable",
      "type": "function"
    },
    {
      "inputs": [
        {
          "internalType": "address",
          "name": "operator",
          "type": "address"
        },
        {
          "internalType": "bool",
          "name": "approved",
          "type": "bool"
        }
      ],
      "name": "setApprovalForAll",
      "outputs": [],
      "stateMutability": "nonpayable",
      "type": "function"
    },
    {
      "inputs": [
        {
          "internalType": "bytes4",
          "name": "interfaceId",
          "type": "bytes4"
        }
      ],
      "name": "supportsInterface",
      "outputs": [
        {
          "internalType": "bool",
          "name": "",
          "type": "bool"
        }
      ],
      "stateMutability": "view",
      "type": "function"
    },
    {
      "inputs": [],
      "name": "timeTillExpire",
      "outputs": [
        {
          "internalType": "uint256",
          "name": "",
          "type": "uint256"
        }
      ],
      "stateMutability": "view",
      "type": "function"
    },
    {
      "inputs": [
        {
          "internalType": "uint256",
          "name": "id",
          "type": "uint256"
        }
      ],
      "name": "totalSupply",
      "outputs": [
        {
          "internalType": "uint256",
          "name": "",
          "type": "uint256"
        }
      ],
      "stateMutability": "view",
      "type": "function"
    },
    {
      "inputs": [
        {
          "internalType": "address",
          "name": "newOwner",
          "type": "address"
        }
      ],
      "name": "transferOwnership",
      "outputs": [],
      "stateMutability": "nonpayable",
      "type": "function"
    },
    {
      "inputs": [
        {
          "internalType": "uint256",
          "name": "amount",
          "type": "uint256"
        },
        {
          "internalType": "bytes",
          "name": "data",
          "type": "bytes"
        }
      ],
      "name": "trialNFTMint",
      "outputs": [],
      "stateMutability": "nonpayable",
      "type": "function"
    },
    {
      "inputs": [
        {
          "internalType": "uint256",
          "name": "",
          "type": "uint256"
        }
      ],
      "name": "uri",
      "outputs": [
        {
          "internalType": "string",
          "name": "",
          "type": "string"
        }
      ],
      "stateMutability": "view",
      "type": "function"
    }
  ],
  "bytecode": {
    "object": "0x60806040524260055562093a80600755600754600654620000219190620000cd565b6008553480156200003157600080fd5b50604051806060016040528060308152602001620025e460309139620000578162000069565b5062000063336200007b565b62000266565b60026200007782826200019a565b5050565b600380546001600160a01b038381166001600160a01b0319831681179093556040519116919082907f8be0079c531659141344cd1fd0a4f28419497f9722a3daafe3b4186f6b6457e090600090a35050565b80820180821115620000ef57634e487b7160e01b600052601160045260246000fd5b92915050565b634e487b7160e01b600052604160045260246000fd5b600181811c908216806200012057607f821691505b6020821081036200014157634e487b7160e01b600052602260045260246000fd5b50919050565b601f8211156200019557600081815260208120601f850160051c81016020861015620001705750805b601f850160051c820191505b8181101562000191578281556001016200017c565b5050505b505050565b81516001600160401b03811115620001b657620001b6620000f5565b620001ce81620001c784546200010b565b8462000147565b602080601f831160018114620002065760008415620001ed5750858301515b600019600386901b1c1916600185901b17855562000191565b600085815260208120601f198616915b82811015620002375788860151825594840194600190910190840162000216565b5085821015620002565787850151600019600388901b60f8161c191681555b5050505050600190811b01905550565b61236e80620002766000396000f3fe608060405234801561001057600080fd5b50600436106101a85760003560e01c8063715018a6116100f9578063bd85b03911610097578063ea43727111610071578063ea43727114610403578063f242432a1461040b578063f2fde38b1461041e578063f5298aca1461043157600080fd5b8063bd85b03914610394578063d23813ce146103b4578063e985e9c5146103c757600080fd5b8063927b68d2116100d3578063927b68d21461035c57806396df416c14610365578063a22cb46514610378578063b8a67c3c1461038b57600080fd5b8063715018a614610326578063731133e91461032e5780638da5cb5b1461034157600080fd5b80633d8ad916116101665780634f558e79116101405780634f558e79146102bd5780634f99b7c5146102df5780636b20c454146102e85780636e04ff0d146102fb57600080fd5b80633d8ad916146102475780634585e33b1461028a5780634e1273f41461029d57600080fd5b8062fdd58e146101ad57806301ffc9a7146101d35780630e89341c146101f6578063230415de146102165780632eb2c2d61461022b5780633affe7761461023e575b600080fd5b6101c06101bb366004611847565b610444565b6040519081526020015b60405180910390f35b6101e66101e1366004611887565b6104dd565b60405190151581526020016101ca565b6102096102043660046118ab565b61052d565b6040516101ca919061190a565b61022961022436600461191d565b6105c1565b005b610229610239366004611a81565b6105ea565b6101c060075481565b61027361025536600461191d565b60096020526000908152604090205460ff8082169161010090041682565b6040805192151583529015156020830152016101ca565b610229610298366004611b2a565b610636565b6102b06102ab366004611b9b565b6106a4565b6040516101ca9190611ca0565b6101e66102cb3660046118ab565b600090815260046020526040902054151590565b6101c060055481565b6102296102f6366004611cb3565b6107cd565b610318610309366004611d26565b50600554600854101590606090565b6040516101ca929190611d62565b610229610810565b61022961033c366004611d7d565b610824565b6003546040516001600160a01b0390911681526020016101ca565b6101c060065481565b61022961037336600461191d565b61089e565b610229610386366004611ddd565b610966565b6101c060085481565b6101c06103a23660046118ab565b60009081526004602052604090205490565b6102296103c2366004611e19565b610975565b6101e66103d5366004611e55565b6001600160a01b03918216600090815260016020908152604080832093909416825291909152205460ff1690565b6101c0600081565b610229610419366004611e88565b610a55565b61022961042c36600461191d565b610a9a565b61022961043f366004611eec565b610b13565b60006001600160a01b0383166104b45760405162461bcd60e51b815260206004820152602a60248201527f455243313135353a2061646472657373207a65726f206973206e6f742061207660448201526930b634b21037bbb732b960b11b60648201526084015b60405180910390fd5b506000818152602081815260408083206001600160a01b03861684529091529020545b92915050565b60006001600160e01b03198216636cdb3d1360e11b148061050e57506001600160e01b031982166303a24d0760e21b145b806104d757506301ffc9a760e01b6001600160e01b03198316146104d7565b60606002805461053c90611f1f565b80601f016020809104026020016040519081016040528092919081815260200182805461056890611f1f565b80156105b55780601f1061058a576101008083540402835291602001916105b5565b820191906000526020600020905b81548152906001019060200180831161059857829003601f168201915b50505050509050919050565b6105c9610b56565b6001600160a01b03166000908152600960205260409020805460ff19169055565b6001600160a01b038516331480610606575061060685336103d5565b6106225760405162461bcd60e51b81526004016104ab90611f59565b61062f8585858585610bb0565b5050505050565b6040805160208101909152600090526005546008541015600181146106925760405162461bcd60e51b81526020600482015260126024820152712ab835b2b2b8103737ba103732b2b232b21760711b60448201526064016104ab565b61069f3360006001610d5a565b505050565b606081518351146107095760405162461bcd60e51b815260206004820152602960248201527f455243313135353a206163636f756e747320616e6420696473206c656e677468604482015268040dad2e6dac2e8c6d60bb1b60648201526084016104ab565b600083516001600160401b0381111561072457610724611938565b60405190808252806020026020018201604052801561074d578160200160208202803683370190505b50905060005b84518110156107c55761079885828151811061077157610771611fa7565b602002602001015185838151811061078b5761078b611fa7565b6020026020010151610444565b8282815181106107aa576107aa611fa7565b60209081029190910101526107be81611fd3565b9050610753565b509392505050565b6001600160a01b0383163314806107e957506107e983336103d5565b6108055760405162461bcd60e51b81526004016104ab90611f59565b61069f838383610e77565b610818610b56565b6108226000611014565b565b61082c610b56565b61083884848484611066565b336001600160a01b03167e532d1a87c33d088154a519b027467ef3a25af9a8dec0d8f4e9b5fb143fbb0d604051610890906020808252600d908201526c139195081a5cc81b5a5b9d1959609a1b604082015260600190565b60405180910390a250505050565b6001600160a01b038116600090815260096020526040902054819060ff16151560011480156108eb57506001600160a01b038116600090815260096020526040902054610100900460ff16155b6109375760405162461bcd60e51b815260206004820152601760248201527f4e6f7420616e20657870657269656e636564207573657200000000000000000060448201526064016104ab565b61093f610b56565b6001600160a01b03166000908152600960205260409020805461ff00191661010017905550565b610971338383611180565b5050565b3360009081526009602052604090205460ff16156109c65760405162461bcd60e51b815260206004820152600e60248201526d2737ba1030903732bb903ab9b2b960911b60448201526064016104ab565b6109d33360008484611066565b4260065560405133907f6e26ff1e96a6bcf2373f537221ff5228b4b664b60ad5b8ee090e857c93c9607890610a2f90602080825260139082015272151c9a585b08139195081a5cc81b5a5b9d1959606a1b604082015260600190565b60405180910390a25050336000908152600960205260409020805460ff19166001179055565b6001600160a01b038516331480610a715750610a7185336103d5565b610a8d5760405162461bcd60e51b81526004016104ab90611f59565b61062f8585858585611260565b610aa2610b56565b6001600160a01b038116610b075760405162461bcd60e51b815260206004820152602660248201527f4f776e61626c653a206e6577206f776e657220697320746865207a65726f206160448201526564647265737360d01b60648201526084016104ab565b610b1081611014565b50565b6001600160a01b038316331480610b2f5750610b2f83336103d5565b610b4b5760405162461bcd60e51b81526004016104ab90611f59565b61069f838383610d5a565b6003546001600160a01b031633146108225760405162461bcd60e51b815260206004820181905260248201527f4f776e61626c653a2063616c6c6572206973206e6f7420746865206f776e657260448201526064016104ab565b8151835114610bd15760405162461bcd60e51b81526004016104ab90611fec565b6001600160a01b038416610bf75760405162461bcd60e51b81526004016104ab90612034565b33610c06818787878787611398565b60005b8451811015610cec576000858281518110610c2657610c26611fa7565b602002602001015190506000858381518110610c4457610c44611fa7565b602090810291909101810151600084815280835260408082206001600160a01b038e168352909352919091205490915081811015610c945760405162461bcd60e51b81526004016104ab90612079565b6000838152602081815260408083206001600160a01b038e8116855292528083208585039055908b16825281208054849290610cd19084906120c3565b9250508190555050505080610ce590611fd3565b9050610c09565b50846001600160a01b0316866001600160a01b0316826001600160a01b03167f4a39dc06d4c0dbc64b70af90fd698a233a518aa5d07e595d983b8c0526c8f7fb8787604051610d3c9291906120d6565b60405180910390a4610d52818787878787611451565b505050505050565b6001600160a01b038316610d805760405162461bcd60e51b81526004016104ab90612104565b336000610d8c846115ac565b90506000610d99846115ac565b9050610db983876000858560405180602001604052806000815250611398565b6000858152602081815260408083206001600160a01b038a16845290915290205484811015610dfa5760405162461bcd60e51b81526004016104ab90612147565b6000868152602081815260408083206001600160a01b038b81168086529184528285208a8703905582518b81529384018a90529092908816917fc3d58168c5ae7397731d063d5bbf3d657854427343f4c083240f7aacaa2d0f62910160405180910390a46040805160208101909152600090525b50505050505050565b6001600160a01b038316610e9d5760405162461bcd60e51b81526004016104ab90612104565b8051825114610ebe5760405162461bcd60e51b81526004016104ab90611fec565b6000339050610ee181856000868660405180602001604052806000815250611398565b60005b8351811015610fa6576000848281518110610f0157610f01611fa7565b602002602001015190506000848381518110610f1f57610f1f611fa7565b602090810291909101810151600084815280835260408082206001600160a01b038c168352909352919091205490915081811015610f6f5760405162461bcd60e51b81526004016104ab90612147565b6000928352602083815260408085206001600160a01b038b1686529091529092209103905580610f9e81611fd3565b915050610ee4565b5060006001600160a01b0316846001600160a01b0316826001600160a01b03167f4a39dc06d4c0dbc64b70af90fd698a233a518aa5d07e595d983b8c0526c8f7fb8686604051610ff79291906120d6565b60405180910390a460408051602081019091526000905250505050565b600380546001600160a01b038381166001600160a01b0319831681179093556040519116919082907f8be0079c531659141344cd1fd0a4f28419497f9722a3daafe3b4186f6b6457e090600090a35050565b6001600160a01b0384166110c65760405162461bcd60e51b815260206004820152602160248201527f455243313135353a206d696e7420746f20746865207a65726f206164647265736044820152607360f81b60648201526084016104ab565b3360006110d2856115ac565b905060006110df856115ac565b90506110f083600089858589611398565b6000868152602081815260408083206001600160a01b038b168452909152812080548792906111209084906120c3565b909155505060408051878152602081018790526001600160a01b03808a1692600092918716917fc3d58168c5ae7397731d063d5bbf3d657854427343f4c083240f7aacaa2d0f62910160405180910390a4610e6e836000898989896115f7565b816001600160a01b0316836001600160a01b0316036111f35760405162461bcd60e51b815260206004820152602960248201527f455243313135353a2073657474696e6720617070726f76616c20737461747573604482015268103337b91039b2b63360b91b60648201526084016104ab565b6001600160a01b03838116600081815260016020908152604080832094871680845294825291829020805460ff191686151590811790915591519182527f17307eab39ab6107e8899845ad3d59bd9653f200f220920489ca2b5937696c31910160405180910390a3505050565b6001600160a01b0384166112865760405162461bcd60e51b81526004016104ab90612034565b336000611292856115ac565b9050600061129f856115ac565b90506112af838989858589611398565b6000868152602081815260408083206001600160a01b038c168452909152902054858110156112f05760405162461bcd60e51b81526004016104ab90612079565b6000878152602081815260408083206001600160a01b038d8116855292528083208985039055908a1682528120805488929061132d9084906120c3565b909155505060408051888152602081018890526001600160a01b03808b16928c821692918816917fc3d58168c5ae7397731d063d5bbf3d657854427343f4c083240f7aacaa2d0f62910160405180910390a461138d848a8a8a8a8a6115f7565b505050505050505050565b6113a68686868686866116b2565b33600090815260096020526040812054610100900460ff1615159003610d52576001600160a01b03851615610d525760405162461bcd60e51b815260206004820152604560248201527f5468697320746f6b656e2063616e206f6e6c79206265206d696e7465642c205060448201527f6c65617365207570677261646520746f206d616b65206974207472616e7366656064820152647261626c6560d81b608482015260a4016104ab565b6001600160a01b0384163b15610d525760405163bc197c8160e01b81526001600160a01b0385169063bc197c8190611495908990899088908890889060040161218b565b6020604051808303816000875af19250505080156114d0575060408051601f3d908101601f191682019092526114cd918101906121e9565b60015b61157c576114dc612206565b806308c379a00361151557506114f0612222565b806114fb5750611517565b8060405162461bcd60e51b81526004016104ab919061190a565b505b60405162461bcd60e51b815260206004820152603460248201527f455243313135353a207472616e7366657220746f206e6f6e2d455243313135356044820152732932b1b2b4bb32b91034b6b83632b6b2b73a32b960611b60648201526084016104ab565b6001600160e01b0319811663bc197c8160e01b14610e6e5760405162461bcd60e51b81526004016104ab906122ab565b604080516001808252818301909252606091600091906020808301908036833701905050905082816000815181106115e6576115e6611fa7565b602090810291909101015292915050565b6001600160a01b0384163b15610d525760405163f23a6e6160e01b81526001600160a01b0385169063f23a6e619061163b90899089908890889088906004016122f3565b6020604051808303816000875af1925050508015611676575060408051601f3d908101601f19168201909252611673918101906121e9565b60015b611682576114dc612206565b6001600160e01b0319811663f23a6e6160e01b14610e6e5760405162461bcd60e51b81526004016104ab906122ab565b6001600160a01b0385166117395760005b8351811015611737578281815181106116de576116de611fa7565b6020026020010151600460008684815181106116fc576116fc611fa7565b60200260200101518152602001908152602001600020600082825461172191906120c3565b90915550611730905081611fd3565b90506116c3565b505b6001600160a01b038416610d525760005b8351811015610e6e57600084828151811061176757611767611fa7565b60200260200101519050600084838151811061178557611785611fa7565b60200260200101519050600060046000848152602001908152602001600020549050818110156118085760405162461bcd60e51b815260206004820152602860248201527f455243313135353a206275726e20616d6f756e74206578636565647320746f74604482015267616c537570706c7960c01b60648201526084016104ab565b6000928352600460205260409092209103905561182481611fd3565b905061174a565b80356001600160a01b038116811461184257600080fd5b919050565b6000806040838503121561185a57600080fd5b6118638361182b565b946020939093013593505050565b6001600160e01b031981168114610b1057600080fd5b60006020828403121561189957600080fd5b81356118a481611871565b9392505050565b6000602082840312156118bd57600080fd5b5035919050565b6000815180845260005b818110156118ea576020818501810151868301820152016118ce565b506000602082860101526020601f19601f83011685010191505092915050565b6020815260006118a460208301846118c4565b60006020828403121561192f57600080fd5b6118a48261182b565b634e487b7160e01b600052604160045260246000fd5b601f8201601f191681016001600160401b038111828210171561197357611973611938565b6040525050565b60006001600160401b0382111561199357611993611938565b5060051b60200190565b600082601f8301126119ae57600080fd5b813560206119bb8261197a565b6040516119c8828261194e565b83815260059390931b85018201928281019150868411156119e857600080fd5b8286015b84811015611a0357803583529183019183016119ec565b509695505050505050565b600082601f830112611a1f57600080fd5b81356001600160401b03811115611a3857611a38611938565b604051611a4f601f8301601f19166020018261194e565b818152846020838601011115611a6457600080fd5b816020850160208301376000918101602001919091529392505050565b600080600080600060a08688031215611a9957600080fd5b611aa28661182b565b9450611ab06020870161182b565b935060408601356001600160401b0380821115611acc57600080fd5b611ad889838a0161199d565b94506060880135915080821115611aee57600080fd5b611afa89838a0161199d565b93506080880135915080821115611b1057600080fd5b50611b1d88828901611a0e565b9150509295509295909350565b60008060208385031215611b3d57600080fd5b82356001600160401b0380821115611b5457600080fd5b818501915085601f830112611b6857600080fd5b813581811115611b7757600080fd5b866020828501011115611b8957600080fd5b60209290920196919550909350505050565b60008060408385031215611bae57600080fd5b82356001600160401b0380821115611bc557600080fd5b818501915085601f830112611bd957600080fd5b81356020611be68261197a565b604051611bf3828261194e565b83815260059390931b8501820192828101915089841115611c1357600080fd5b948201945b83861015611c3857611c298661182b565b82529482019490820190611c18565b96505086013592505080821115611c4e57600080fd5b50611c5b8582860161199d565b9150509250929050565b600081518084526020808501945080840160005b83811015611c9557815187529582019590820190600101611c79565b509495945050505050565b6020815260006118a46020830184611c65565b600080600060608486031215611cc857600080fd5b611cd18461182b565b925060208401356001600160401b0380821115611ced57600080fd5b611cf98783880161199d565b93506040860135915080821115611d0f57600080fd5b50611d1c8682870161199d565b9150509250925092565b600060208284031215611d3857600080fd5b81356001600160401b03811115611d4e57600080fd5b611d5a84828501611a0e565b949350505050565b8215158152604060208201526000611d5a60408301846118c4565b60008060008060808587031215611d9357600080fd5b611d9c8561182b565b9350602085013592506040850135915060608501356001600160401b03811115611dc557600080fd5b611dd187828801611a0e565b91505092959194509250565b60008060408385031215611df057600080fd5b611df98361182b565b915060208301358015158114611e0e57600080fd5b809150509250929050565b60008060408385031215611e2c57600080fd5b8235915060208301356001600160401b03811115611e4957600080fd5b611c5b85828601611a0e565b60008060408385031215611e6857600080fd5b611e718361182b565b9150611e7f6020840161182b565b90509250929050565b600080600080600060a08688031215611ea057600080fd5b611ea98661182b565b9450611eb76020870161182b565b9350604086013592506060860135915060808601356001600160401b03811115611ee057600080fd5b611b1d88828901611a0e565b600080600060608486031215611f0157600080fd5b611f0a8461182b565b95602085013595506040909401359392505050565b600181811c90821680611f3357607f821691505b602082108103611f5357634e487b7160e01b600052602260045260246000fd5b50919050565b6020808252602e908201527f455243313135353a2063616c6c6572206973206e6f7420746f6b656e206f776e60408201526d195c881bdc88185c1c1c9bdd995960921b606082015260800190565b634e487b7160e01b600052603260045260246000fd5b634e487b7160e01b600052601160045260246000fd5b600060018201611fe557611fe5611fbd565b5060010190565b60208082526028908201527f455243313135353a2069647320616e6420616d6f756e7473206c656e677468206040820152670dad2e6dac2e8c6d60c31b606082015260800190565b60208082526025908201527f455243313135353a207472616e7366657220746f20746865207a65726f206164604082015264647265737360d81b606082015260800190565b6020808252602a908201527f455243313135353a20696e73756666696369656e742062616c616e636520666f60408201526939103a3930b739b332b960b11b606082015260800190565b808201808211156104d7576104d7611fbd565b6040815260006120e96040830185611c65565b82810360208401526120fb8185611c65565b95945050505050565b60208082526023908201527f455243313135353a206275726e2066726f6d20746865207a65726f206164647260408201526265737360e81b606082015260800190565b60208082526024908201527f455243313135353a206275726e20616d6f756e7420657863656564732062616c604082015263616e636560e01b606082015260800190565b6001600160a01b0386811682528516602082015260a0604082018190526000906121b790830186611c65565b82810360608401526121c98186611c65565b905082810360808401526121dd81856118c4565b98975050505050505050565b6000602082840312156121fb57600080fd5b81516118a481611871565b600060033d111561221f5760046000803e5060005160e01c5b90565b600060443d10156122305790565b6040516003193d81016004833e81513d6001600160401b03816024840111818411171561225f57505050505090565b82850191508151818111156122775750505050505090565b843d87010160208285010111156122915750505050505090565b6122a06020828601018761194e565b509095945050505050565b60208082526028908201527f455243313135353a204552433131353552656365697665722072656a656374656040820152676420746f6b656e7360c01b606082015260800190565b6001600160a01b03868116825285166020820152604081018490526060810183905260a06080820181905260009061232d908301846118c4565b97965050505050505056fea264697066735822122024ff2b15e8936bb6601a036c462944086619ac5c5fa6423059ea7b0e1bef237a64736f6c63430008110033687474703a2f2f3132372e302e302e313a353530302f6170692f6368617261637465724e46542f7b69647d2e6a736f6e",
    "linkReferences": {}
  },
  "methodIdentifiers": {
    "TRIALNFTID()": "ea437271",
    "balanceOf(address,uint256)": "00fdd58e",
    "balanceOfBatch(address[],uint256[])": "4e1273f4",
    "burn(address,uint256,uint256)": "f5298aca",
    "burnBatch(address,uint256[],uint256[])": "6b20c454",
    "checkUpkeep(bytes)": "6e04ff0d",
    "currentDate()": "4f99b7c5",
    "exists(uint256)": "4f558e79",
    "expireDate()": "b8a67c3c",
    "isApprovedForAll(address,address)": "e985e9c5",
    "levelOfAccess(address)": "3d8ad916",
    "makePremium(address)": "96df416c",
    "mint(address,uint256,uint256,bytes)": "731133e9",
    "mintDate4NFT()": "927b68d2",
    "owner()": "8da5cb5b",
    "performUpkeep(bytes)": "4585e33b",
    "renounceOwnership()": "715018a6",
    "resetToNewUser(address)": "230415de",
    "safeBatchTransferFrom(address,address,uint256[],uint256[],bytes)": "2eb2c2d6",
    "safeTransferFrom(address,address,uint256,uint256,bytes)": "f242432a",
    "setApprovalForAll(address,bool)": "a22cb465",
    "supportsInterface(bytes4)": "01ffc9a7",
    "timeTillExpire()": "3affe776",
    "totalSupply(uint256)": "bd85b039",
    "transferOwnership(address)": "f2fde38b",
    "trialNFTMint(uint256,bytes)": "d23813ce",
    "uri(uint256)": "0e89341c"
  },
  "id": 17
}