{
  "abi": [
    {
      "inputs": [],
      "stateMutability": "nonpayable",
      "type": "constructor"
    },
    {
      "anonymous": false,
      "inputs": [
        {
          "indexed": true,
          "internalType": "address",
          "name": "account",
          "type": "address"
        },
        {
          "indexed": true,
          "internalType": "address",
          "name": "operator",
          "type": "address"
        },
        {
          "indexed": false,
          "internalType": "bool",
          "name": "approved",
          "type": "bool"
        }
      ],
      "name": "ApprovalForAll",
      "type": "event"
    },
    {
      "anonymous": false,
      "inputs": [
        {
          "indexed": true,
          "internalType": "address",
          "name": "to",
          "type": "address"
        },
        {
          "indexed": true,
          "internalType": "uint256",
          "name": "tokenId",
          "type": "uint256"
        }
      ],
      "name": "Attest",
      "type": "event"
    },
    {
      "anonymous": false,
      "inputs": [
        {
          "indexed": true,
          "internalType": "address",
          "name": "account",
          "type": "address"
        },
        {
          "indexed": false,
          "internalType": "string",
          "name": "message",
          "type": "string"
        }
      ],
      "name": "NFTIsMinted",
      "type": "event"
    },
    {
      "anonymous": false,
      "inputs": [
        {
          "indexed": true,
          "internalType": "address",
          "name": "previousOwner",
          "type": "address"
        },
        {
          "indexed": true,
          "internalType": "address",
          "name": "newOwner",
          "type": "address"
        }
      ],
      "name": "OwnershipTransferred",
      "type": "event"
    },
    {
      "anonymous": false,
      "inputs": [
        {
          "indexed": true,
          "internalType": "address",
          "name": "operator",
          "type": "address"
        },
        {
          "indexed": true,
          "internalType": "address",
          "name": "from",
          "type": "address"
        },
        {
          "indexed": true,
          "internalType": "address",
          "name": "to",
          "type": "address"
        },
        {
          "indexed": false,
          "internalType": "uint256[]",
          "name": "ids",
          "type": "uint256[]"
        },
        {
          "indexed": false,
          "internalType": "uint256[]",
          "name": "values",
          "type": "uint256[]"
        }
      ],
      "name": "TransferBatch",
      "type": "event"
    },
    {
      "anonymous": false,
      "inputs": [
        {
          "indexed": true,
          "internalType": "address",
          "name": "operator",
          "type": "address"
        },
        {
          "indexed": true,
          "internalType": "address",
          "name": "from",
          "type": "address"
        },
        {
          "indexed": true,
          "internalType": "address",
          "name": "to",
          "type": "address"
        },
        {
          "indexed": false,
          "internalType": "uint256",
          "name": "id",
          "type": "uint256"
        },
        {
          "indexed": false,
          "internalType": "uint256",
          "name": "value",
          "type": "uint256"
        }
      ],
      "name": "TransferSingle",
      "type": "event"
    },
    {
      "anonymous": false,
      "inputs": [
        {
          "indexed": false,
          "internalType": "string",
          "name": "value",
          "type": "string"
        },
        {
          "indexed": true,
          "internalType": "uint256",
          "name": "id",
          "type": "uint256"
        }
      ],
      "name": "URI",
      "type": "event"
    },
    {
      "anonymous": false,
      "inputs": [
        {
          "indexed": true,
          "internalType": "address",
          "name": "account",
          "type": "address"
        },
        {
          "indexed": false,
          "internalType": "string",
          "name": "message",
          "type": "string"
        }
      ],
      "name": "trialNFTIsMinted",
      "type": "event"
    },
    {
      "inputs": [],
      "name": "TRIALNFTID",
      "outputs": [
        {
          "internalType": "uint256",
          "name": "",
          "type": "uint256"
        }
      ],
      "stateMutability": "view",
      "type": "function"
    },
    {
      "inputs": [
        {
          "internalType": "address",
          "name": "account",
          "type": "address"
        },
        {
          "internalType": "uint256",
          "name": "id",
          "type": "uint256"
        }
      ],
      "name": "balanceOf",
      "outputs": [
        {
          "internalType": "uint256",
          "name": "",
          "type": "uint256"
        }
      ],
      "stateMutability": "view",
      "type": "function"
    },
    {
      "inputs": [
        {
          "internalType": "address[]",
          "name": "accounts",
          "type": "address[]"
        },
        {
          "internalType": "uint256[]",
          "name": "ids",
          "type": "uint256[]"
        }
      ],
      "name": "balanceOfBatch",
      "outputs": [
        {
          "internalType": "uint256[]",
          "name": "",
          "type": "uint256[]"
        }
      ],
      "stateMutability": "view",
      "type": "function"
    },
    {
      "inputs": [
        {
          "internalType": "address",
          "name": "account",
          "type": "address"
        },
        {
          "internalType": "uint256",
          "name": "id",
          "type": "uint256"
        },
        {
          "internalType": "uint256",
          "name": "value",
          "type": "uint256"
        }
      ],
      "name": "burn",
      "outputs": [],
      "stateMutability": "nonpayable",
      "type": "function"
    },
    {
      "inputs": [
        {
          "internalType": "address",
          "name": "account",
          "type": "address"
        },
        {
          "internalType": "uint256[]",
          "name": "ids",
          "type": "uint256[]"
        },
        {
          "internalType": "uint256[]",
          "name": "values",
          "type": "uint256[]"
        }
      ],
      "name": "burnBatch",
      "outputs": [],
      "stateMutability": "nonpayable",
      "type": "function"
    },
    {
      "inputs": [],
      "name": "checkUpkeep",
      "outputs": [
        {
          "internalType": "bool",
          "name": "needsUpkeep",
          "type": "bool"
        }
      ],
      "stateMutability": "nonpayable",
      "type": "function"
    },
    {
      "inputs": [],
      "name": "currentDate",
      "outputs": [
        {
          "internalType": "uint256",
          "name": "",
          "type": "uint256"
        }
      ],
      "stateMutability": "view",
      "type": "function"
    },
    {
      "inputs": [
        {
          "internalType": "uint256",
          "name": "id",
          "type": "uint256"
        }
      ],
      "name": "exists",
      "outputs": [
        {
          "internalType": "bool",
          "name": "",
          "type": "bool"
        }
      ],
      "stateMutability": "view",
      "type": "function"
    },
    {
      "inputs": [
        {
          "internalType": "address",
          "name": "account",
          "type": "address"
        },
        {
          "internalType": "address",
          "name": "operator",
          "type": "address"
        }
      ],
      "name": "isApprovedForAll",
      "outputs": [
        {
          "internalType": "bool",
          "name": "",
          "type": "bool"
        }
      ],
      "stateMutability": "view",
      "type": "function"
    },
    {
      "inputs": [
        {
          "internalType": "address",
          "name": "",
          "type": "address"
        }
      ],
      "name": "levelOfAccess",
      "outputs": [
        {
          "internalType": "enum characterNFT.accountPrivellege",
          "name": "",
          "type": "uint8"
        }
      ],
      "stateMutability": "view",
      "type": "function"
    },
    {
      "inputs": [
        {
          "internalType": "address",
          "name": "userToMakePremium",
          "type": "address"
        }
      ],
      "name": "makePremium",
      "outputs": [],
      "stateMutability": "nonpayable",
      "type": "function"
    },
    {
      "inputs": [],
      "name": "owner",
      "outputs": [
        {
          "internalType": "address",
          "name": "",
          "type": "address"
        }
      ],
      "stateMutability": "view",
      "type": "function"
    },
    {
      "inputs": [],
      "name": "performUpkeep",
      "outputs": [],
      "stateMutability": "nonpayable",
      "type": "function"
    },
    {
      "inputs": [],
      "name": "renounceOwnership",
      "outputs": [],
      "stateMutability": "nonpayable",
      "type": "function"
    },
    {
      "inputs": [
        {
          "internalType": "address",
          "name": "accountToReset",
          "type": "address"
        }
      ],
      "name": "resetToNewUser",
      "outputs": [],
      "stateMutability": "nonpayable",
      "type": "function"
    },
    {
      "inputs": [
        {
          "internalType": "address",
          "name": "from",
          "type": "address"
        },
        {
          "internalType": "address",
          "name": "to",
          "type": "address"
        },
        {
          "internalType": "uint256[]",
          "name": "ids",
          "type": "uint256[]"
        },
        {
          "internalType": "uint256[]",
          "name": "amounts",
          "type": "uint256[]"
        },
        {
          "internalType": "bytes",
          "name": "data",
          "type": "bytes"
        }
      ],
      "name": "safeBatchTransferFrom",
      "outputs": [],
      "stateMutability": "nonpayable",
      "type": "function"
    },
    {
      "inputs": [
        {
          "internalType": "address",
          "name": "from",
          "type": "address"
        },
        {
          "internalType": "address",
          "name": "to",
          "type": "address"
        },
        {
          "internalType": "uint256",
          "name": "id",
          "type": "uint256"
        },
        {
          "internalType": "uint256",
          "name": "amount",
          "type": "uint256"
        },
        {
          "internalType": "bytes",
          "name": "data",
          "type": "bytes"
        }
      ],
      "name": "safeTransferFrom",
      "outputs": [],
      "stateMutability": "nonpayable",
      "type": "function"
    },
    {
      "inputs": [
        {
          "internalType": "address",
          "name": "operator",
          "type": "address"
        },
        {
          "internalType": "bool",
          "name": "approved",
          "type": "bool"
        }
      ],
      "name": "setApprovalForAll",
      "outputs": [],
      "stateMutability": "nonpayable",
      "type": "function"
    },
    {
      "inputs": [
        {
          "internalType": "bytes4",
          "name": "interfaceId",
          "type": "bytes4"
        }
      ],
      "name": "supportsInterface",
      "outputs": [
        {
          "internalType": "bool",
          "name": "",
          "type": "bool"
        }
      ],
      "stateMutability": "view",
      "type": "function"
    },
    {
      "inputs": [
        {
          "internalType": "uint256",
          "name": "id",
          "type": "uint256"
        }
      ],
      "name": "totalSupply",
      "outputs": [
        {
          "internalType": "uint256",
          "name": "",
          "type": "uint256"
        }
      ],
      "stateMutability": "view",
      "type": "function"
    },
    {
      "inputs": [
        {
          "internalType": "address",
          "name": "newOwner",
          "type": "address"
        }
      ],
      "name": "transferOwnership",
      "outputs": [],
      "stateMutability": "nonpayable",
      "type": "function"
    },
    {
      "inputs": [
        {
          "internalType": "address",
          "name": "",
          "type": "address"
        }
      ],
      "name": "trialNFT",
      "outputs": [
        {
          "internalType": "uint256",
          "name": "mintDate4NFT",
          "type": "uint256"
        },
        {
          "internalType": "uint256",
          "name": "expireDate",
          "type": "uint256"
        }
      ],
      "stateMutability": "view",
      "type": "function"
    },
    {
      "inputs": [],
      "name": "trialNFTMint",
      "outputs": [],
      "stateMutability": "nonpayable",
      "type": "function"
    },
    {
      "inputs": [
        {
          "internalType": "uint256",
          "name": "",
          "type": "uint256"
        }
      ],
      "name": "uri",
      "outputs": [
        {
          "internalType": "string",
          "name": "",
          "type": "string"
        }
      ],
      "stateMutability": "view",
      "type": "function"
    }
  ],
  "bytecode": {
    "object": "0x60806040523480156200001157600080fd5b506040518060600160405280603081526020016200248b60309139620000378162000063565b50620000433362000075565b336000908152600760205260409020805460ff1916600217905562000238565b60026200007182826200016c565b5050565b600380546001600160a01b038381166001600160a01b0319831681179093556040519116919082907f8be0079c531659141344cd1fd0a4f28419497f9722a3daafe3b4186f6b6457e090600090a35050565b634e487b7160e01b600052604160045260246000fd5b600181811c90821680620000f257607f821691505b6020821081036200011357634e487b7160e01b600052602260045260246000fd5b50919050565b601f8211156200016757600081815260208120601f850160051c81016020861015620001425750805b601f850160051c820191505b8181101562000163578281556001016200014e565b5050505b505050565b81516001600160401b03811115620001885762000188620000c7565b620001a081620001998454620000dd565b8462000119565b602080601f831160018114620001d85760008415620001bf5750858301515b600019600386901b1c1916600185901b17855562000163565b600085815260208120601f198616915b828110156200020957888601518255948401946001909101908401620001e8565b5085821015620002285787850151600019600388901b60f8161c191681555b5050505050600190811b01905550565b61224380620002486000396000f3fe608060405234801561001057600080fd5b50600436106101575760003560e01c80638da5cb5b116100c3578063e985e9c51161007c578063e985e9c514610348578063ea43727114610384578063ef069fd61461038c578063f242432a14610394578063f2fde38b146103a7578063f5298aca146103ba57600080fd5b80638da5cb5b1461028b57806396df416c146102a65780639a131cc2146102b9578063a13abdad146102f5578063a22cb46514610315578063bd85b0391461032857600080fd5b80634e1273f4116101155780634e1273f41461021d5780634f558e791461023d5780634f99b7c51461025f5780636b20c454146102685780636e4d243a1461027b578063715018a61461028357600080fd5b8062fdd58e1461015c57806301ffc9a7146101825780630e89341c146101a5578063230415de146101c55780632eb2c2d6146101da5780633d8ad916146101ed575b600080fd5b61016f61016a36600461183a565b6103cd565b6040519081526020015b60405180910390f35b61019561019036600461187a565b610466565b6040519015158152602001610179565b6101b86101b336600461189e565b6104b6565b60405161017991906118fd565b6101d86101d3366004611910565b61054a565b005b6101d86101e8366004611a77565b610573565b6102106101fb366004611910565b60076020526000908152604090205460ff1681565b6040516101799190611b37565b61023061022b366004611b5f565b6105bf565b6040516101799190611c65565b61019561024b36600461189e565b600090815260046020526040902054151590565b61016f60055481565b6101d8610276366004611c78565b6106e9565b6101d8610731565b6101d86107ad565b6003546040516001600160a01b039091168152602001610179565b6101d86102b4366004611910565b6107c1565b6102e06102c7366004611910565b6006602052600090815260409020805460019091015482565b60408051928352602083019190915201610179565b426005819055336000908152600660205260409020600101541115610195565b6101d8610323366004611cec565b61089c565b61016f61033636600461189e565b60009081526004602052604090205490565b610195610356366004611d28565b6001600160a01b03918216600090815260016020908152604080832093909416825291909152205460ff1690565b61016f600081565b6101d86108ab565b6101d86103a2366004611d5b565b610a2a565b6101d86103b5366004611910565b610a6f565b6101d86103c8366004611dc0565b610ae5565b60006001600160a01b03831661043d5760405162461bcd60e51b815260206004820152602a60248201527f455243313135353a2061646472657373207a65726f206973206e6f742061207660448201526930b634b21037bbb732b960b11b60648201526084015b60405180910390fd5b506000818152602081815260408083206001600160a01b03861684529091529020545b92915050565b60006001600160e01b03198216636cdb3d1360e11b148061049757506001600160e01b031982166303a24d0760e21b145b8061046057506301ffc9a760e01b6001600160e01b0319831614610460565b6060600280546104c590611df3565b80601f01602080910402602001604051908101604052809291908181526020018280546104f190611df3565b801561053e5780601f106105135761010080835404028352916020019161053e565b820191906000526020600020905b81548152906001019060200180831161052157829003601f168201915b50505050509050919050565b610552610b28565b6001600160a01b03166000908152600760205260409020805460ff19169055565b6001600160a01b03851633148061058f575061058f8533610356565b6105ab5760405162461bcd60e51b815260040161043490611e2d565b6105b88585858585610b82565b5050505050565b606081518351146106245760405162461bcd60e51b815260206004820152602960248201527f455243313135353a206163636f756e747320616e6420696473206c656e677468604482015268040dad2e6dac2e8c6d60bb1b6064820152608401610434565b6000835167ffffffffffffffff8111156106405761064061192b565b604051908082528060200260200182016040528015610669578160200160208202803683370190505b50905060005b84518110156106e1576106b485828151811061068d5761068d611e7b565b60200260200101518583815181106106a7576106a7611e7b565b60200260200101516103cd565b8282815181106106c6576106c6611e7b565b60209081029190910101526106da81611ea7565b905061066f565b509392505050565b6001600160a01b03831633148061070557506107058333610356565b6107215760405162461bcd60e51b815260040161043490611e2d565b61072c838383610d2c565b505050565b600061075442600581905533600090815260066020526040902060010154111590565b905060018115151461079d5760405162461bcd60e51b81526020600482015260126024820152712ab835b2b2b8103737ba103732b2b232b21760711b6044820152606401610434565b6107aa3360006001610ec9565b50565b6107b5610b28565b6107bf6000610fe6565b565b8060016001600160a01b03821660009081526007602052604090205460ff1660028111156107f1576107f1611b21565b1461086f5760405162461bcd60e51b815260206004820152604260248201527f4e6f7420616e20657870657269656e63656420757365722c20706c656173652060448201527f6d696e74206120747269616c204e4654206265666f726520636f6e74696e75696064820152616e6760f01b608482015260a401610434565b610877610b28565b6001600160a01b03166000908152600760205260409020805460ff1916600217905550565b6108a7338383611038565b5050565b3360009081526007602052604081205460ff1660028111156108cf576108cf611b21565b146109425760405162461bcd60e51b815260206004820152603b60248201527f596f75277265206e6f742061206e657720757365722c206f6e6c792061206e6560448201527f7720757365722063616e206d696e74206120747269616c204e465400000000006064820152608401610434565b336000908152600660205260409020429081905562093a8090610966908290611ec0565b336000818152600660209081526040808320600190810195909555805180820190915260048152633078313160e01b918101919091526109a69390611118565b336001600160a01b03167f6e26ff1e96a6bcf2373f537221ff5228b4b664b60ad5b8ee090e857c93c96078604051610a0590602080825260139082015272151c9a585b08139195081a5cc81b5a5b9d1959606a1b604082015260600190565b60405180910390a250336000908152600760205260409020805460ff19166001179055565b6001600160a01b038516331480610a465750610a468533610356565b610a625760405162461bcd60e51b815260040161043490611e2d565b6105b88585858585611232565b610a77610b28565b6001600160a01b038116610adc5760405162461bcd60e51b815260206004820152602660248201527f4f776e61626c653a206e6577206f776e657220697320746865207a65726f206160448201526564647265737360d01b6064820152608401610434565b6107aa81610fe6565b6001600160a01b038316331480610b015750610b018333610356565b610b1d5760405162461bcd60e51b815260040161043490611e2d565b61072c838383610ec9565b6003546001600160a01b031633146107bf5760405162461bcd60e51b815260206004820181905260248201527f4f776e61626c653a2063616c6c6572206973206e6f7420746865206f776e65726044820152606401610434565b8151835114610ba35760405162461bcd60e51b815260040161043490611ed3565b6001600160a01b038416610bc95760405162461bcd60e51b815260040161043490611f1b565b33610bd881878787878761136a565b60005b8451811015610cbe576000858281518110610bf857610bf8611e7b565b602002602001015190506000858381518110610c1657610c16611e7b565b602090810291909101810151600084815280835260408082206001600160a01b038e168352909352919091205490915081811015610c665760405162461bcd60e51b815260040161043490611f60565b6000838152602081815260408083206001600160a01b038e8116855292528083208585039055908b16825281208054849290610ca3908490611ec0565b9250508190555050505080610cb790611ea7565b9050610bdb565b50846001600160a01b0316866001600160a01b0316826001600160a01b03167f4a39dc06d4c0dbc64b70af90fd698a233a518aa5d07e595d983b8c0526c8f7fb8787604051610d0e929190611faa565b60405180910390a4610d24818787878787611444565b505050505050565b6001600160a01b038316610d525760405162461bcd60e51b815260040161043490611fd8565b8051825114610d735760405162461bcd60e51b815260040161043490611ed3565b6000339050610d968185600086866040518060200160405280600081525061136a565b60005b8351811015610e5b576000848281518110610db657610db6611e7b565b602002602001015190506000848381518110610dd457610dd4611e7b565b602090810291909101810151600084815280835260408082206001600160a01b038c168352909352919091205490915081811015610e245760405162461bcd60e51b81526004016104349061201b565b6000928352602083815260408085206001600160a01b038b1686529091529092209103905580610e5381611ea7565b915050610d99565b5060006001600160a01b0316846001600160a01b0316826001600160a01b03167f4a39dc06d4c0dbc64b70af90fd698a233a518aa5d07e595d983b8c0526c8f7fb8686604051610eac929190611faa565b60405180910390a460408051602081019091526000905250505050565b6001600160a01b038316610eef5760405162461bcd60e51b815260040161043490611fd8565b336000610efb8461159f565b90506000610f088461159f565b9050610f288387600085856040518060200160405280600081525061136a565b6000858152602081815260408083206001600160a01b038a16845290915290205484811015610f695760405162461bcd60e51b81526004016104349061201b565b6000868152602081815260408083206001600160a01b038b81168086529184528285208a8703905582518b81529384018a90529092908816917fc3d58168c5ae7397731d063d5bbf3d657854427343f4c083240f7aacaa2d0f62910160405180910390a46040805160208101909152600090525b50505050505050565b600380546001600160a01b038381166001600160a01b0319831681179093556040519116919082907f8be0079c531659141344cd1fd0a4f28419497f9722a3daafe3b4186f6b6457e090600090a35050565b816001600160a01b0316836001600160a01b0316036110ab5760405162461bcd60e51b815260206004820152602960248201527f455243313135353a2073657474696e6720617070726f76616c20737461747573604482015268103337b91039b2b63360b91b6064820152608401610434565b6001600160a01b03838116600081815260016020908152604080832094871680845294825291829020805460ff191686151590811790915591519182527f17307eab39ab6107e8899845ad3d59bd9653f200f220920489ca2b5937696c31910160405180910390a3505050565b6001600160a01b0384166111785760405162461bcd60e51b815260206004820152602160248201527f455243313135353a206d696e7420746f20746865207a65726f206164647265736044820152607360f81b6064820152608401610434565b3360006111848561159f565b905060006111918561159f565b90506111a28360008985858961136a565b6000868152602081815260408083206001600160a01b038b168452909152812080548792906111d2908490611ec0565b909155505060408051878152602081018790526001600160a01b03808a1692600092918716917fc3d58168c5ae7397731d063d5bbf3d657854427343f4c083240f7aacaa2d0f62910160405180910390a4610fdd836000898989896115ea565b6001600160a01b0384166112585760405162461bcd60e51b815260040161043490611f1b565b3360006112648561159f565b905060006112718561159f565b905061128183898985858961136a565b6000868152602081815260408083206001600160a01b038c168452909152902054858110156112c25760405162461bcd60e51b815260040161043490611f60565b6000878152602081815260408083206001600160a01b038d8116855292528083208985039055908a168252812080548892906112ff908490611ec0565b909155505060408051888152602081018890526001600160a01b03808b16928c821692918816917fc3d58168c5ae7397731d063d5bbf3d657854427343f4c083240f7aacaa2d0f62910160405180910390a461135f848a8a8a8a8a6115ea565b505050505050505050565b6113788686868686866116a5565b3360009081526007602052604090205460029060ff168181111561139e5761139e611b21565b14610d24576001600160a01b03851615806113c057506001600160a01b038416155b610d245760405162461bcd60e51b815260206004820152604960248201527f5468697320746f6b656e2063616e206e6f74206265207472616e73666572726560448201527f642c20506c65617365207570677261646520746f206d616b65206974207472616064820152686e7366657261626c6560b81b608482015260a401610434565b6001600160a01b0384163b15610d245760405163bc197c8160e01b81526001600160a01b0385169063bc197c8190611488908990899088908890889060040161205f565b6020604051808303816000875af19250505080156114c3575060408051601f3d908101601f191682019092526114c0918101906120bd565b60015b61156f576114cf6120da565b806308c379a00361150857506114e36120f6565b806114ee575061150a565b8060405162461bcd60e51b815260040161043491906118fd565b505b60405162461bcd60e51b815260206004820152603460248201527f455243313135353a207472616e7366657220746f206e6f6e2d455243313135356044820152732932b1b2b4bb32b91034b6b83632b6b2b73a32b960611b6064820152608401610434565b6001600160e01b0319811663bc197c8160e01b14610fdd5760405162461bcd60e51b815260040161043490612180565b604080516001808252818301909252606091600091906020808301908036833701905050905082816000815181106115d9576115d9611e7b565b602090810291909101015292915050565b6001600160a01b0384163b15610d245760405163f23a6e6160e01b81526001600160a01b0385169063f23a6e619061162e90899089908890889088906004016121c8565b6020604051808303816000875af1925050508015611669575060408051601f3d908101601f19168201909252611666918101906120bd565b60015b611675576114cf6120da565b6001600160e01b0319811663f23a6e6160e01b14610fdd5760405162461bcd60e51b815260040161043490612180565b6001600160a01b03851661172c5760005b835181101561172a578281815181106116d1576116d1611e7b565b6020026020010151600460008684815181106116ef576116ef611e7b565b6020026020010151815260200190815260200160002060008282546117149190611ec0565b90915550611723905081611ea7565b90506116b6565b505b6001600160a01b038416610d245760005b8351811015610fdd57600084828151811061175a5761175a611e7b565b60200260200101519050600084838151811061177857611778611e7b565b60200260200101519050600060046000848152602001908152602001600020549050818110156117fb5760405162461bcd60e51b815260206004820152602860248201527f455243313135353a206275726e20616d6f756e74206578636565647320746f74604482015267616c537570706c7960c01b6064820152608401610434565b6000928352600460205260409092209103905561181781611ea7565b905061173d565b80356001600160a01b038116811461183557600080fd5b919050565b6000806040838503121561184d57600080fd5b6118568361181e565b946020939093013593505050565b6001600160e01b0319811681146107aa57600080fd5b60006020828403121561188c57600080fd5b813561189781611864565b9392505050565b6000602082840312156118b057600080fd5b5035919050565b6000815180845260005b818110156118dd576020818501810151868301820152016118c1565b506000602082860101526020601f19601f83011685010191505092915050565b60208152600061189760208301846118b7565b60006020828403121561192257600080fd5b6118978261181e565b634e487b7160e01b600052604160045260246000fd5b601f8201601f1916810167ffffffffffffffff811182821017156119675761196761192b565b6040525050565b600067ffffffffffffffff8211156119885761198861192b565b5060051b60200190565b600082601f8301126119a357600080fd5b813560206119b08261196e565b6040516119bd8282611941565b83815260059390931b85018201928281019150868411156119dd57600080fd5b8286015b848110156119f857803583529183019183016119e1565b509695505050505050565b600082601f830112611a1457600080fd5b813567ffffffffffffffff811115611a2e57611a2e61192b565b604051611a45601f8301601f191660200182611941565b818152846020838601011115611a5a57600080fd5b816020850160208301376000918101602001919091529392505050565b600080600080600060a08688031215611a8f57600080fd5b611a988661181e565b9450611aa66020870161181e565b9350604086013567ffffffffffffffff80821115611ac357600080fd5b611acf89838a01611992565b94506060880135915080821115611ae557600080fd5b611af189838a01611992565b93506080880135915080821115611b0757600080fd5b50611b1488828901611a03565b9150509295509295909350565b634e487b7160e01b600052602160045260246000fd5b6020810160038310611b5957634e487b7160e01b600052602160045260246000fd5b91905290565b60008060408385031215611b7257600080fd5b823567ffffffffffffffff80821115611b8a57600080fd5b818501915085601f830112611b9e57600080fd5b81356020611bab8261196e565b604051611bb88282611941565b83815260059390931b8501820192828101915089841115611bd857600080fd5b948201945b83861015611bfd57611bee8661181e565b82529482019490820190611bdd565b96505086013592505080821115611c1357600080fd5b50611c2085828601611992565b9150509250929050565b600081518084526020808501945080840160005b83811015611c5a57815187529582019590820190600101611c3e565b509495945050505050565b6020815260006118976020830184611c2a565b600080600060608486031215611c8d57600080fd5b611c968461181e565b9250602084013567ffffffffffffffff80821115611cb357600080fd5b611cbf87838801611992565b93506040860135915080821115611cd557600080fd5b50611ce286828701611992565b9150509250925092565b60008060408385031215611cff57600080fd5b611d088361181e565b915060208301358015158114611d1d57600080fd5b809150509250929050565b60008060408385031215611d3b57600080fd5b611d448361181e565b9150611d526020840161181e565b90509250929050565b600080600080600060a08688031215611d7357600080fd5b611d7c8661181e565b9450611d8a6020870161181e565b93506040860135925060608601359150608086013567ffffffffffffffff811115611db457600080fd5b611b1488828901611a03565b600080600060608486031215611dd557600080fd5b611dde8461181e565b95602085013595506040909401359392505050565b600181811c90821680611e0757607f821691505b602082108103611e2757634e487b7160e01b600052602260045260246000fd5b50919050565b6020808252602e908201527f455243313135353a2063616c6c6572206973206e6f7420746f6b656e206f776e60408201526d195c881bdc88185c1c1c9bdd995960921b606082015260800190565b634e487b7160e01b600052603260045260246000fd5b634e487b7160e01b600052601160045260246000fd5b600060018201611eb957611eb9611e91565b5060010190565b8082018082111561046057610460611e91565b60208082526028908201527f455243313135353a2069647320616e6420616d6f756e7473206c656e677468206040820152670dad2e6dac2e8c6d60c31b606082015260800190565b60208082526025908201527f455243313135353a207472616e7366657220746f20746865207a65726f206164604082015264647265737360d81b606082015260800190565b6020808252602a908201527f455243313135353a20696e73756666696369656e742062616c616e636520666f60408201526939103a3930b739b332b960b11b606082015260800190565b604081526000611fbd6040830185611c2a565b8281036020840152611fcf8185611c2a565b95945050505050565b60208082526023908201527f455243313135353a206275726e2066726f6d20746865207a65726f206164647260408201526265737360e81b606082015260800190565b60208082526024908201527f455243313135353a206275726e20616d6f756e7420657863656564732062616c604082015263616e636560e01b606082015260800190565b6001600160a01b0386811682528516602082015260a06040820181905260009061208b90830186611c2a565b828103606084015261209d8186611c2a565b905082810360808401526120b181856118b7565b98975050505050505050565b6000602082840312156120cf57600080fd5b815161189781611864565b600060033d11156120f35760046000803e5060005160e01c5b90565b600060443d10156121045790565b6040516003193d81016004833e81513d67ffffffffffffffff816024840111818411171561213457505050505090565b828501915081518181111561214c5750505050505090565b843d87010160208285010111156121665750505050505090565b61217560208286010187611941565b509095945050505050565b60208082526028908201527f455243313135353a204552433131353552656365697665722072656a656374656040820152676420746f6b656e7360c01b606082015260800190565b6001600160a01b03868116825285166020820152604081018490526060810183905260a060808201819052600090612202908301846118b7565b97965050505050505056fea2646970667358221220c7459e07007687ced5e6d81c623d53fcd700c2b25bd79801c9f09067fa819c3c64736f6c63430008110033687474703a2f2f3132372e302e302e313a353530302f6170692f6368617261637465724e46542f7b69647d2e6a736f6e",
    "linkReferences": {}
  },
  "methodIdentifiers": {
    "TRIALNFTID()": "ea437271",
    "balanceOf(address,uint256)": "00fdd58e",
    "balanceOfBatch(address[],uint256[])": "4e1273f4",
    "burn(address,uint256,uint256)": "f5298aca",
    "burnBatch(address,uint256[],uint256[])": "6b20c454",
    "checkUpkeep()": "a13abdad",
    "currentDate()": "4f99b7c5",
    "exists(uint256)": "4f558e79",
    "isApprovedForAll(address,address)": "e985e9c5",
    "levelOfAccess(address)": "3d8ad916",
    "makePremium(address)": "96df416c",
    "owner()": "8da5cb5b",
    "performUpkeep()": "6e4d243a",
    "renounceOwnership()": "715018a6",
    "resetToNewUser(address)": "230415de",
    "safeBatchTransferFrom(address,address,uint256[],uint256[],bytes)": "2eb2c2d6",
    "safeTransferFrom(address,address,uint256,uint256,bytes)": "f242432a",
    "setApprovalForAll(address,bool)": "a22cb465",
    "supportsInterface(bytes4)": "01ffc9a7",
    "totalSupply(uint256)": "bd85b039",
    "transferOwnership(address)": "f2fde38b",
    "trialNFT(address)": "9a131cc2",
    "trialNFTMint()": "ef069fd6",
    "uri(uint256)": "0e89341c"
  },
  "id": 32
}