{
  "abi": [
    {
      "inputs": [],
      "stateMutability": "nonpayable",
      "type": "constructor"
    },
    {
      "anonymous": false,
      "inputs": [
        {
          "indexed": true,
          "internalType": "address",
          "name": "account",
          "type": "address"
        },
        {
          "indexed": true,
          "internalType": "address",
          "name": "operator",
          "type": "address"
        },
        {
          "indexed": false,
          "internalType": "bool",
          "name": "approved",
          "type": "bool"
        }
      ],
      "name": "ApprovalForAll",
      "type": "event"
    },
    {
      "anonymous": false,
      "inputs": [
        {
          "indexed": true,
          "internalType": "address",
          "name": "to",
          "type": "address"
        },
        {
          "indexed": true,
          "internalType": "uint256",
          "name": "tokenId",
          "type": "uint256"
        }
      ],
      "name": "Attest",
      "type": "event"
    },
    {
      "anonymous": false,
      "inputs": [
        {
          "indexed": true,
          "internalType": "address",
          "name": "previousOwner",
          "type": "address"
        },
        {
          "indexed": true,
          "internalType": "address",
          "name": "newOwner",
          "type": "address"
        }
      ],
      "name": "OwnershipTransferred",
      "type": "event"
    },
    {
      "anonymous": false,
      "inputs": [
        {
          "indexed": true,
          "internalType": "address",
          "name": "operator",
          "type": "address"
        },
        {
          "indexed": true,
          "internalType": "address",
          "name": "from",
          "type": "address"
        },
        {
          "indexed": true,
          "internalType": "address",
          "name": "to",
          "type": "address"
        },
        {
          "indexed": false,
          "internalType": "uint256[]",
          "name": "ids",
          "type": "uint256[]"
        },
        {
          "indexed": false,
          "internalType": "uint256[]",
          "name": "values",
          "type": "uint256[]"
        }
      ],
      "name": "TransferBatch",
      "type": "event"
    },
    {
      "anonymous": false,
      "inputs": [
        {
          "indexed": true,
          "internalType": "address",
          "name": "operator",
          "type": "address"
        },
        {
          "indexed": true,
          "internalType": "address",
          "name": "from",
          "type": "address"
        },
        {
          "indexed": true,
          "internalType": "address",
          "name": "to",
          "type": "address"
        },
        {
          "indexed": false,
          "internalType": "uint256",
          "name": "id",
          "type": "uint256"
        },
        {
          "indexed": false,
          "internalType": "uint256",
          "name": "value",
          "type": "uint256"
        }
      ],
      "name": "TransferSingle",
      "type": "event"
    },
    {
      "anonymous": false,
      "inputs": [
        {
          "indexed": false,
          "internalType": "string",
          "name": "value",
          "type": "string"
        },
        {
          "indexed": true,
          "internalType": "uint256",
          "name": "id",
          "type": "uint256"
        }
      ],
      "name": "URI",
      "type": "event"
    },
    {
      "anonymous": false,
      "inputs": [
        {
          "indexed": true,
          "internalType": "address",
          "name": "account",
          "type": "address"
        },
        {
          "indexed": false,
          "internalType": "string",
          "name": "message",
          "type": "string"
        }
      ],
      "name": "trialNFTIsMinted",
      "type": "event"
    },
    {
      "inputs": [],
      "name": "TRIALNFTID",
      "outputs": [
        {
          "internalType": "uint256",
          "name": "",
          "type": "uint256"
        }
      ],
      "stateMutability": "view",
      "type": "function"
    },
    {
      "inputs": [
        {
          "internalType": "address",
          "name": "account",
          "type": "address"
        },
        {
          "internalType": "uint256",
          "name": "id",
          "type": "uint256"
        }
      ],
      "name": "balanceOf",
      "outputs": [
        {
          "internalType": "uint256",
          "name": "",
          "type": "uint256"
        }
      ],
      "stateMutability": "view",
      "type": "function"
    },
    {
      "inputs": [
        {
          "internalType": "address[]",
          "name": "accounts",
          "type": "address[]"
        },
        {
          "internalType": "uint256[]",
          "name": "ids",
          "type": "uint256[]"
        }
      ],
      "name": "balanceOfBatch",
      "outputs": [
        {
          "internalType": "uint256[]",
          "name": "",
          "type": "uint256[]"
        }
      ],
      "stateMutability": "view",
      "type": "function"
    },
    {
      "inputs": [
        {
          "internalType": "address",
          "name": "account",
          "type": "address"
        },
        {
          "internalType": "uint256",
          "name": "id",
          "type": "uint256"
        },
        {
          "internalType": "uint256",
          "name": "value",
          "type": "uint256"
        }
      ],
      "name": "burn",
      "outputs": [],
      "stateMutability": "nonpayable",
      "type": "function"
    },
    {
      "inputs": [
        {
          "internalType": "address",
          "name": "account",
          "type": "address"
        },
        {
          "internalType": "uint256[]",
          "name": "ids",
          "type": "uint256[]"
        },
        {
          "internalType": "uint256[]",
          "name": "values",
          "type": "uint256[]"
        }
      ],
      "name": "burnBatch",
      "outputs": [],
      "stateMutability": "nonpayable",
      "type": "function"
    },
    {
      "inputs": [],
      "name": "checkUpkeep",
      "outputs": [
        {
          "internalType": "bool",
          "name": "needsUpkeep",
          "type": "bool"
        }
      ],
      "stateMutability": "nonpayable",
      "type": "function"
    },
    {
      "inputs": [],
      "name": "currentDate",
      "outputs": [
        {
          "internalType": "uint256",
          "name": "",
          "type": "uint256"
        }
      ],
      "stateMutability": "view",
      "type": "function"
    },
    {
      "inputs": [
        {
          "internalType": "uint256",
          "name": "id",
          "type": "uint256"
        }
      ],
      "name": "exists",
      "outputs": [
        {
          "internalType": "bool",
          "name": "",
          "type": "bool"
        }
      ],
      "stateMutability": "view",
      "type": "function"
    },
    {
      "inputs": [
        {
          "internalType": "address",
          "name": "account",
          "type": "address"
        },
        {
          "internalType": "address",
          "name": "operator",
          "type": "address"
        }
      ],
      "name": "isApprovedForAll",
      "outputs": [
        {
          "internalType": "bool",
          "name": "",
          "type": "bool"
        }
      ],
      "stateMutability": "view",
      "type": "function"
    },
    {
      "inputs": [
        {
          "internalType": "address",
          "name": "",
          "type": "address"
        }
      ],
      "name": "levelOfAccess",
      "outputs": [
        {
          "internalType": "enum characterNFT.accountPrivellege",
          "name": "",
          "type": "uint8"
        }
      ],
      "stateMutability": "view",
      "type": "function"
    },
    {
      "inputs": [
        {
          "internalType": "address",
          "name": "userToMakePremium",
          "type": "address"
        }
      ],
      "name": "makePremium",
      "outputs": [],
      "stateMutability": "nonpayable",
      "type": "function"
    },
    {
      "inputs": [],
      "name": "owner",
      "outputs": [
        {
          "internalType": "address",
          "name": "",
          "type": "address"
        }
      ],
      "stateMutability": "view",
      "type": "function"
    },
    {
      "inputs": [],
      "name": "performUpkeep",
      "outputs": [],
      "stateMutability": "nonpayable",
      "type": "function"
    },
    {
      "inputs": [],
      "name": "renounceOwnership",
      "outputs": [],
      "stateMutability": "nonpayable",
      "type": "function"
    },
    {
      "inputs": [
        {
          "internalType": "address",
          "name": "from",
          "type": "address"
        },
        {
          "internalType": "address",
          "name": "to",
          "type": "address"
        },
        {
          "internalType": "uint256[]",
          "name": "ids",
          "type": "uint256[]"
        },
        {
          "internalType": "uint256[]",
          "name": "amounts",
          "type": "uint256[]"
        },
        {
          "internalType": "bytes",
          "name": "data",
          "type": "bytes"
        }
      ],
      "name": "safeBatchTransferFrom",
      "outputs": [],
      "stateMutability": "nonpayable",
      "type": "function"
    },
    {
      "inputs": [
        {
          "internalType": "address",
          "name": "from",
          "type": "address"
        },
        {
          "internalType": "address",
          "name": "to",
          "type": "address"
        },
        {
          "internalType": "uint256",
          "name": "id",
          "type": "uint256"
        },
        {
          "internalType": "uint256",
          "name": "amount",
          "type": "uint256"
        },
        {
          "internalType": "bytes",
          "name": "data",
          "type": "bytes"
        }
      ],
      "name": "safeTransferFrom",
      "outputs": [],
      "stateMutability": "nonpayable",
      "type": "function"
    },
    {
      "inputs": [
        {
          "internalType": "address",
          "name": "operator",
          "type": "address"
        },
        {
          "internalType": "bool",
          "name": "approved",
          "type": "bool"
        }
      ],
      "name": "setApprovalForAll",
      "outputs": [],
      "stateMutability": "nonpayable",
      "type": "function"
    },
    {
      "inputs": [
        {
          "internalType": "bytes4",
          "name": "interfaceId",
          "type": "bytes4"
        }
      ],
      "name": "supportsInterface",
      "outputs": [
        {
          "internalType": "bool",
          "name": "",
          "type": "bool"
        }
      ],
      "stateMutability": "view",
      "type": "function"
    },
    {
      "inputs": [
        {
          "internalType": "uint256",
          "name": "id",
          "type": "uint256"
        }
      ],
      "name": "totalSupply",
      "outputs": [
        {
          "internalType": "uint256",
          "name": "",
          "type": "uint256"
        }
      ],
      "stateMutability": "view",
      "type": "function"
    },
    {
      "inputs": [
        {
          "internalType": "address",
          "name": "newOwner",
          "type": "address"
        }
      ],
      "name": "transferOwnership",
      "outputs": [],
      "stateMutability": "nonpayable",
      "type": "function"
    },
    {
      "inputs": [
        {
          "internalType": "address",
          "name": "",
          "type": "address"
        }
      ],
      "name": "trialNFT",
      "outputs": [
        {
          "internalType": "uint256",
          "name": "mintDate4NFT",
          "type": "uint256"
        },
        {
          "internalType": "uint256",
          "name": "expireDate",
          "type": "uint256"
        }
      ],
      "stateMutability": "view",
      "type": "function"
    },
    {
      "inputs": [],
      "name": "trialNFTMint",
      "outputs": [],
      "stateMutability": "nonpayable",
      "type": "function"
    },
    {
      "inputs": [
        {
          "internalType": "uint256",
          "name": "",
          "type": "uint256"
        }
      ],
      "name": "uri",
      "outputs": [
        {
          "internalType": "string",
          "name": "",
          "type": "string"
        }
      ],
      "stateMutability": "view",
      "type": "function"
    }
  ],
  "bytecode": {
    "object": "0x60806040523480156200001157600080fd5b506040518060600160405280603081526020016200244460309139620000378162000063565b50620000433362000075565b336000908152600760205260409020805460ff1916600217905562000238565b60026200007182826200016c565b5050565b600380546001600160a01b038381166001600160a01b0319831681179093556040519116919082907f8be0079c531659141344cd1fd0a4f28419497f9722a3daafe3b4186f6b6457e090600090a35050565b634e487b7160e01b600052604160045260246000fd5b600181811c90821680620000f257607f821691505b6020821081036200011357634e487b7160e01b600052602260045260246000fd5b50919050565b601f8211156200016757600081815260208120601f850160051c81016020861015620001425750805b601f850160051c820191505b8181101562000163578281556001016200014e565b5050505b505050565b81516001600160401b03811115620001885762000188620000c7565b620001a081620001998454620000dd565b8462000119565b602080601f831160018114620001d85760008415620001bf5750858301515b600019600386901b1c1916600185901b17855562000163565b600085815260208120601f198616915b828110156200020957888601518255948401946001909101908401620001e8565b5085821015620002285787850151600019600388901b60f8161c191681555b5050505050600190811b01905550565b6121fc80620002486000396000f3fe608060405234801561001057600080fd5b506004361061014c5760003560e01c80638da5cb5b116100c3578063e985e9c51161007c578063e985e9c51461032a578063ea43727114610366578063ef069fd61461036e578063f242432a14610376578063f2fde38b14610389578063f5298aca1461039c57600080fd5b80638da5cb5b1461026d57806396df416c146102885780639a131cc21461029b578063a13abdad146102d7578063a22cb465146102f7578063bd85b0391461030a57600080fd5b80634e1273f4116101155780634e1273f4146101ff5780634f558e791461021f5780634f99b7c5146102415780636b20c4541461024a5780636e4d243a1461025d578063715018a61461026557600080fd5b8062fdd58e1461015157806301ffc9a7146101775780630e89341c1461019a5780632eb2c2d6146101ba5780633d8ad916146101cf575b600080fd5b61016461015f3660046117f3565b6103af565b6040519081526020015b60405180910390f35b61018a610185366004611833565b610448565b604051901515815260200161016e565b6101ad6101a8366004611857565b610498565b60405161016e91906118b6565b6101cd6101c8366004611a15565b61052c565b005b6101f26101dd366004611abf565b60076020526000908152604090205460ff1681565b60405161016e9190611af0565b61021261020d366004611b18565b610578565b60405161016e9190611c1e565b61018a61022d366004611857565b600090815260046020526040902054151590565b61016460055481565b6101cd610258366004611c31565b6106a2565b6101cd6106ea565b6101cd610766565b6003546040516001600160a01b03909116815260200161016e565b6101cd610296366004611abf565b61077a565b6102c26102a9366004611abf565b6006602052600090815260409020805460019091015482565b6040805192835260208301919091520161016e565b42600581905533600090815260066020526040902060010154111561018a565b6101cd610305366004611ca5565b610855565b610164610318366004611857565b60009081526004602052604090205490565b61018a610338366004611ce1565b6001600160a01b03918216600090815260016020908152604080832093909416825291909152205460ff1690565b610164600081565b6101cd610864565b6101cd610384366004611d14565b6109e3565b6101cd610397366004611abf565b610a28565b6101cd6103aa366004611d79565b610a9e565b60006001600160a01b03831661041f5760405162461bcd60e51b815260206004820152602a60248201527f455243313135353a2061646472657373207a65726f206973206e6f742061207660448201526930b634b21037bbb732b960b11b60648201526084015b60405180910390fd5b506000818152602081815260408083206001600160a01b03861684529091529020545b92915050565b60006001600160e01b03198216636cdb3d1360e11b148061047957506001600160e01b031982166303a24d0760e21b145b8061044257506301ffc9a760e01b6001600160e01b0319831614610442565b6060600280546104a790611dac565b80601f01602080910402602001604051908101604052809291908181526020018280546104d390611dac565b80156105205780601f106104f557610100808354040283529160200191610520565b820191906000526020600020905b81548152906001019060200180831161050357829003601f168201915b50505050509050919050565b6001600160a01b03851633148061054857506105488533610338565b6105645760405162461bcd60e51b815260040161041690611de6565b6105718585858585610ae1565b5050505050565b606081518351146105dd5760405162461bcd60e51b815260206004820152602960248201527f455243313135353a206163636f756e747320616e6420696473206c656e677468604482015268040dad2e6dac2e8c6d60bb1b6064820152608401610416565b6000835167ffffffffffffffff8111156105f9576105f96118c9565b604051908082528060200260200182016040528015610622578160200160208202803683370190505b50905060005b845181101561069a5761066d85828151811061064657610646611e34565b602002602001015185838151811061066057610660611e34565b60200260200101516103af565b82828151811061067f5761067f611e34565b602090810291909101015261069381611e60565b9050610628565b509392505050565b6001600160a01b0383163314806106be57506106be8333610338565b6106da5760405162461bcd60e51b815260040161041690611de6565b6106e5838383610c8b565b505050565b600061070d42600581905533600090815260066020526040902060010154111590565b90506001811515146107565760405162461bcd60e51b81526020600482015260126024820152712ab835b2b2b8103737ba103732b2b232b21760711b6044820152606401610416565b6107633360006001610e28565b50565b61076e610f45565b6107786000610f9f565b565b8060016001600160a01b03821660009081526007602052604090205460ff1660028111156107aa576107aa611ada565b146108285760405162461bcd60e51b815260206004820152604260248201527f4e6f7420616e20657870657269656e63656420757365722c20706c656173652060448201527f6d696e74206120747269616c204e4654206265666f726520636f6e74696e75696064820152616e6760f01b608482015260a401610416565b610830610f45565b6001600160a01b03166000908152600760205260409020805460ff1916600217905550565b610860338383610ff1565b5050565b3360009081526007602052604081205460ff16600281111561088857610888611ada565b146108fb5760405162461bcd60e51b815260206004820152603b60248201527f596f75277265206e6f742061206e657720757365722c206f6e6c792061206e6560448201527f7720757365722063616e206d696e74206120747269616c204e465400000000006064820152608401610416565b336000908152600660205260409020429081905562093a809061091f908290611e79565b336000818152600660209081526040808320600190810195909555805180820190915260048152633078313160e01b9181019190915261095f93906110d1565b336001600160a01b03167f6e26ff1e96a6bcf2373f537221ff5228b4b664b60ad5b8ee090e857c93c960786040516109be90602080825260139082015272151c9a585b08139195081a5cc81b5a5b9d1959606a1b604082015260600190565b60405180910390a250336000908152600760205260409020805460ff19166001179055565b6001600160a01b0385163314806109ff57506109ff8533610338565b610a1b5760405162461bcd60e51b815260040161041690611de6565b61057185858585856111eb565b610a30610f45565b6001600160a01b038116610a955760405162461bcd60e51b815260206004820152602660248201527f4f776e61626c653a206e6577206f776e657220697320746865207a65726f206160448201526564647265737360d01b6064820152608401610416565b61076381610f9f565b6001600160a01b038316331480610aba5750610aba8333610338565b610ad65760405162461bcd60e51b815260040161041690611de6565b6106e5838383610e28565b8151835114610b025760405162461bcd60e51b815260040161041690611e8c565b6001600160a01b038416610b285760405162461bcd60e51b815260040161041690611ed4565b33610b37818787878787611323565b60005b8451811015610c1d576000858281518110610b5757610b57611e34565b602002602001015190506000858381518110610b7557610b75611e34565b602090810291909101810151600084815280835260408082206001600160a01b038e168352909352919091205490915081811015610bc55760405162461bcd60e51b815260040161041690611f19565b6000838152602081815260408083206001600160a01b038e8116855292528083208585039055908b16825281208054849290610c02908490611e79565b9250508190555050505080610c1690611e60565b9050610b3a565b50846001600160a01b0316866001600160a01b0316826001600160a01b03167f4a39dc06d4c0dbc64b70af90fd698a233a518aa5d07e595d983b8c0526c8f7fb8787604051610c6d929190611f63565b60405180910390a4610c838187878787876113fd565b505050505050565b6001600160a01b038316610cb15760405162461bcd60e51b815260040161041690611f91565b8051825114610cd25760405162461bcd60e51b815260040161041690611e8c565b6000339050610cf581856000868660405180602001604052806000815250611323565b60005b8351811015610dba576000848281518110610d1557610d15611e34565b602002602001015190506000848381518110610d3357610d33611e34565b602090810291909101810151600084815280835260408082206001600160a01b038c168352909352919091205490915081811015610d835760405162461bcd60e51b815260040161041690611fd4565b6000928352602083815260408085206001600160a01b038b1686529091529092209103905580610db281611e60565b915050610cf8565b5060006001600160a01b0316846001600160a01b0316826001600160a01b03167f4a39dc06d4c0dbc64b70af90fd698a233a518aa5d07e595d983b8c0526c8f7fb8686604051610e0b929190611f63565b60405180910390a460408051602081019091526000905250505050565b6001600160a01b038316610e4e5760405162461bcd60e51b815260040161041690611f91565b336000610e5a84611558565b90506000610e6784611558565b9050610e8783876000858560405180602001604052806000815250611323565b6000858152602081815260408083206001600160a01b038a16845290915290205484811015610ec85760405162461bcd60e51b815260040161041690611fd4565b6000868152602081815260408083206001600160a01b038b81168086529184528285208a8703905582518b81529384018a90529092908816917fc3d58168c5ae7397731d063d5bbf3d657854427343f4c083240f7aacaa2d0f62910160405180910390a46040805160208101909152600090525b50505050505050565b6003546001600160a01b031633146107785760405162461bcd60e51b815260206004820181905260248201527f4f776e61626c653a2063616c6c6572206973206e6f7420746865206f776e65726044820152606401610416565b600380546001600160a01b038381166001600160a01b0319831681179093556040519116919082907f8be0079c531659141344cd1fd0a4f28419497f9722a3daafe3b4186f6b6457e090600090a35050565b816001600160a01b0316836001600160a01b0316036110645760405162461bcd60e51b815260206004820152602960248201527f455243313135353a2073657474696e6720617070726f76616c20737461747573604482015268103337b91039b2b63360b91b6064820152608401610416565b6001600160a01b03838116600081815260016020908152604080832094871680845294825291829020805460ff191686151590811790915591519182527f17307eab39ab6107e8899845ad3d59bd9653f200f220920489ca2b5937696c31910160405180910390a3505050565b6001600160a01b0384166111315760405162461bcd60e51b815260206004820152602160248201527f455243313135353a206d696e7420746f20746865207a65726f206164647265736044820152607360f81b6064820152608401610416565b33600061113d85611558565b9050600061114a85611558565b905061115b83600089858589611323565b6000868152602081815260408083206001600160a01b038b1684529091528120805487929061118b908490611e79565b909155505060408051878152602081018790526001600160a01b03808a1692600092918716917fc3d58168c5ae7397731d063d5bbf3d657854427343f4c083240f7aacaa2d0f62910160405180910390a4610f3c836000898989896115a3565b6001600160a01b0384166112115760405162461bcd60e51b815260040161041690611ed4565b33600061121d85611558565b9050600061122a85611558565b905061123a838989858589611323565b6000868152602081815260408083206001600160a01b038c1684529091529020548581101561127b5760405162461bcd60e51b815260040161041690611f19565b6000878152602081815260408083206001600160a01b038d8116855292528083208985039055908a168252812080548892906112b8908490611e79565b909155505060408051888152602081018890526001600160a01b03808b16928c821692918816917fc3d58168c5ae7397731d063d5bbf3d657854427343f4c083240f7aacaa2d0f62910160405180910390a4611318848a8a8a8a8a6115a3565b505050505050505050565b61133186868686868661165e565b3360009081526007602052604090205460029060ff168181111561135757611357611ada565b14610c83576001600160a01b038516158061137957506001600160a01b038416155b610c835760405162461bcd60e51b815260206004820152604960248201527f5468697320746f6b656e2063616e206e6f74206265207472616e73666572726560448201527f642c20506c65617365207570677261646520746f206d616b65206974207472616064820152686e7366657261626c6560b81b608482015260a401610416565b6001600160a01b0384163b15610c835760405163bc197c8160e01b81526001600160a01b0385169063bc197c81906114419089908990889088908890600401612018565b6020604051808303816000875af192505050801561147c575060408051601f3d908101601f1916820190925261147991810190612076565b60015b61152857611488612093565b806308c379a0036114c1575061149c6120af565b806114a757506114c3565b8060405162461bcd60e51b815260040161041691906118b6565b505b60405162461bcd60e51b815260206004820152603460248201527f455243313135353a207472616e7366657220746f206e6f6e2d455243313135356044820152732932b1b2b4bb32b91034b6b83632b6b2b73a32b960611b6064820152608401610416565b6001600160e01b0319811663bc197c8160e01b14610f3c5760405162461bcd60e51b815260040161041690612139565b6040805160018082528183019092526060916000919060208083019080368337019050509050828160008151811061159257611592611e34565b602090810291909101015292915050565b6001600160a01b0384163b15610c835760405163f23a6e6160e01b81526001600160a01b0385169063f23a6e61906115e79089908990889088908890600401612181565b6020604051808303816000875af1925050508015611622575060408051601f3d908101601f1916820190925261161f91810190612076565b60015b61162e57611488612093565b6001600160e01b0319811663f23a6e6160e01b14610f3c5760405162461bcd60e51b815260040161041690612139565b6001600160a01b0385166116e55760005b83518110156116e35782818151811061168a5761168a611e34565b6020026020010151600460008684815181106116a8576116a8611e34565b6020026020010151815260200190815260200160002060008282546116cd9190611e79565b909155506116dc905081611e60565b905061166f565b505b6001600160a01b038416610c835760005b8351811015610f3c57600084828151811061171357611713611e34565b60200260200101519050600084838151811061173157611731611e34565b60200260200101519050600060046000848152602001908152602001600020549050818110156117b45760405162461bcd60e51b815260206004820152602860248201527f455243313135353a206275726e20616d6f756e74206578636565647320746f74604482015267616c537570706c7960c01b6064820152608401610416565b600092835260046020526040909220910390556117d081611e60565b90506116f6565b80356001600160a01b03811681146117ee57600080fd5b919050565b6000806040838503121561180657600080fd5b61180f836117d7565b946020939093013593505050565b6001600160e01b03198116811461076357600080fd5b60006020828403121561184557600080fd5b81356118508161181d565b9392505050565b60006020828403121561186957600080fd5b5035919050565b6000815180845260005b818110156118965760208185018101518683018201520161187a565b506000602082860101526020601f19601f83011685010191505092915050565b6020815260006118506020830184611870565b634e487b7160e01b600052604160045260246000fd5b601f8201601f1916810167ffffffffffffffff81118282101715611905576119056118c9565b6040525050565b600067ffffffffffffffff821115611926576119266118c9565b5060051b60200190565b600082601f83011261194157600080fd5b8135602061194e8261190c565b60405161195b82826118df565b83815260059390931b850182019282810191508684111561197b57600080fd5b8286015b84811015611996578035835291830191830161197f565b509695505050505050565b600082601f8301126119b257600080fd5b813567ffffffffffffffff8111156119cc576119cc6118c9565b6040516119e3601f8301601f1916602001826118df565b8181528460208386010111156119f857600080fd5b816020850160208301376000918101602001919091529392505050565b600080600080600060a08688031215611a2d57600080fd5b611a36866117d7565b9450611a44602087016117d7565b9350604086013567ffffffffffffffff80821115611a6157600080fd5b611a6d89838a01611930565b94506060880135915080821115611a8357600080fd5b611a8f89838a01611930565b93506080880135915080821115611aa557600080fd5b50611ab2888289016119a1565b9150509295509295909350565b600060208284031215611ad157600080fd5b611850826117d7565b634e487b7160e01b600052602160045260246000fd5b6020810160038310611b1257634e487b7160e01b600052602160045260246000fd5b91905290565b60008060408385031215611b2b57600080fd5b823567ffffffffffffffff80821115611b4357600080fd5b818501915085601f830112611b5757600080fd5b81356020611b648261190c565b604051611b7182826118df565b83815260059390931b8501820192828101915089841115611b9157600080fd5b948201945b83861015611bb657611ba7866117d7565b82529482019490820190611b96565b96505086013592505080821115611bcc57600080fd5b50611bd985828601611930565b9150509250929050565b600081518084526020808501945080840160005b83811015611c1357815187529582019590820190600101611bf7565b509495945050505050565b6020815260006118506020830184611be3565b600080600060608486031215611c4657600080fd5b611c4f846117d7565b9250602084013567ffffffffffffffff80821115611c6c57600080fd5b611c7887838801611930565b93506040860135915080821115611c8e57600080fd5b50611c9b86828701611930565b9150509250925092565b60008060408385031215611cb857600080fd5b611cc1836117d7565b915060208301358015158114611cd657600080fd5b809150509250929050565b60008060408385031215611cf457600080fd5b611cfd836117d7565b9150611d0b602084016117d7565b90509250929050565b600080600080600060a08688031215611d2c57600080fd5b611d35866117d7565b9450611d43602087016117d7565b93506040860135925060608601359150608086013567ffffffffffffffff811115611d6d57600080fd5b611ab2888289016119a1565b600080600060608486031215611d8e57600080fd5b611d97846117d7565b95602085013595506040909401359392505050565b600181811c90821680611dc057607f821691505b602082108103611de057634e487b7160e01b600052602260045260246000fd5b50919050565b6020808252602e908201527f455243313135353a2063616c6c6572206973206e6f7420746f6b656e206f776e60408201526d195c881bdc88185c1c1c9bdd995960921b606082015260800190565b634e487b7160e01b600052603260045260246000fd5b634e487b7160e01b600052601160045260246000fd5b600060018201611e7257611e72611e4a565b5060010190565b8082018082111561044257610442611e4a565b60208082526028908201527f455243313135353a2069647320616e6420616d6f756e7473206c656e677468206040820152670dad2e6dac2e8c6d60c31b606082015260800190565b60208082526025908201527f455243313135353a207472616e7366657220746f20746865207a65726f206164604082015264647265737360d81b606082015260800190565b6020808252602a908201527f455243313135353a20696e73756666696369656e742062616c616e636520666f60408201526939103a3930b739b332b960b11b606082015260800190565b604081526000611f766040830185611be3565b8281036020840152611f888185611be3565b95945050505050565b60208082526023908201527f455243313135353a206275726e2066726f6d20746865207a65726f206164647260408201526265737360e81b606082015260800190565b60208082526024908201527f455243313135353a206275726e20616d6f756e7420657863656564732062616c604082015263616e636560e01b606082015260800190565b6001600160a01b0386811682528516602082015260a06040820181905260009061204490830186611be3565b82810360608401526120568186611be3565b9050828103608084015261206a8185611870565b98975050505050505050565b60006020828403121561208857600080fd5b81516118508161181d565b600060033d11156120ac5760046000803e5060005160e01c5b90565b600060443d10156120bd5790565b6040516003193d81016004833e81513d67ffffffffffffffff81602484011181841117156120ed57505050505090565b82850191508151818111156121055750505050505090565b843d870101602082850101111561211f5750505050505090565b61212e602082860101876118df565b509095945050505050565b60208082526028908201527f455243313135353a204552433131353552656365697665722072656a656374656040820152676420746f6b656e7360c01b606082015260800190565b6001600160a01b03868116825285166020820152604081018490526060810183905260a0608082018190526000906121bb90830184611870565b97965050505050505056fea2646970667358221220c611d8f07c8b280cf435c30cc99227a9d6c004c9bd5f434d6de9488c57f64efd64736f6c63430008110033687474703a2f2f3132372e302e302e313a353530302f6170692f6368617261637465724e46542f7b69647d2e6a736f6e",
    "linkReferences": {}
  },
  "methodIdentifiers": {
    "TRIALNFTID()": "ea437271",
    "balanceOf(address,uint256)": "00fdd58e",
    "balanceOfBatch(address[],uint256[])": "4e1273f4",
    "burn(address,uint256,uint256)": "f5298aca",
    "burnBatch(address,uint256[],uint256[])": "6b20c454",
    "checkUpkeep()": "a13abdad",
    "currentDate()": "4f99b7c5",
    "exists(uint256)": "4f558e79",
    "isApprovedForAll(address,address)": "e985e9c5",
    "levelOfAccess(address)": "3d8ad916",
    "makePremium(address)": "96df416c",
    "owner()": "8da5cb5b",
    "performUpkeep()": "6e4d243a",
    "renounceOwnership()": "715018a6",
    "safeBatchTransferFrom(address,address,uint256[],uint256[],bytes)": "2eb2c2d6",
    "safeTransferFrom(address,address,uint256,uint256,bytes)": "f242432a",
    "setApprovalForAll(address,bool)": "a22cb465",
    "supportsInterface(bytes4)": "01ffc9a7",
    "totalSupply(uint256)": "bd85b039",
    "transferOwnership(address)": "f2fde38b",
    "trialNFT(address)": "9a131cc2",
    "trialNFTMint()": "ef069fd6",
    "uri(uint256)": "0e89341c"
  },
  "id": 27
}