{
  "abi": [
    {
      "inputs": [],
      "stateMutability": "nonpayable",
      "type": "constructor"
    },
    {
      "anonymous": false,
      "inputs": [
        {
          "indexed": true,
          "internalType": "address",
          "name": "account",
          "type": "address"
        },
        {
          "indexed": true,
          "internalType": "address",
          "name": "operator",
          "type": "address"
        },
        {
          "indexed": false,
          "internalType": "bool",
          "name": "approved",
          "type": "bool"
        }
      ],
      "name": "ApprovalForAll",
      "type": "event"
    },
    {
      "anonymous": false,
      "inputs": [
        {
          "indexed": true,
          "internalType": "address",
          "name": "to",
          "type": "address"
        },
        {
          "indexed": true,
          "internalType": "uint256",
          "name": "tokenId",
          "type": "uint256"
        }
      ],
      "name": "Attest",
      "type": "event"
    },
    {
      "anonymous": false,
      "inputs": [
        {
          "indexed": true,
          "internalType": "address",
          "name": "account",
          "type": "address"
        },
        {
          "indexed": false,
          "internalType": "string",
          "name": "message",
          "type": "string"
        }
      ],
      "name": "NFTIsMinted",
      "type": "event"
    },
    {
      "anonymous": false,
      "inputs": [
        {
          "indexed": true,
          "internalType": "address",
          "name": "previousOwner",
          "type": "address"
        },
        {
          "indexed": true,
          "internalType": "address",
          "name": "newOwner",
          "type": "address"
        }
      ],
      "name": "OwnershipTransferred",
      "type": "event"
    },
    {
      "anonymous": false,
      "inputs": [
        {
          "indexed": true,
          "internalType": "address",
          "name": "operator",
          "type": "address"
        },
        {
          "indexed": true,
          "internalType": "address",
          "name": "from",
          "type": "address"
        },
        {
          "indexed": true,
          "internalType": "address",
          "name": "to",
          "type": "address"
        },
        {
          "indexed": false,
          "internalType": "uint256[]",
          "name": "ids",
          "type": "uint256[]"
        },
        {
          "indexed": false,
          "internalType": "uint256[]",
          "name": "values",
          "type": "uint256[]"
        }
      ],
      "name": "TransferBatch",
      "type": "event"
    },
    {
      "anonymous": false,
      "inputs": [
        {
          "indexed": true,
          "internalType": "address",
          "name": "operator",
          "type": "address"
        },
        {
          "indexed": true,
          "internalType": "address",
          "name": "from",
          "type": "address"
        },
        {
          "indexed": true,
          "internalType": "address",
          "name": "to",
          "type": "address"
        },
        {
          "indexed": false,
          "internalType": "uint256",
          "name": "id",
          "type": "uint256"
        },
        {
          "indexed": false,
          "internalType": "uint256",
          "name": "value",
          "type": "uint256"
        }
      ],
      "name": "TransferSingle",
      "type": "event"
    },
    {
      "anonymous": false,
      "inputs": [
        {
          "indexed": false,
          "internalType": "string",
          "name": "value",
          "type": "string"
        },
        {
          "indexed": true,
          "internalType": "uint256",
          "name": "id",
          "type": "uint256"
        }
      ],
      "name": "URI",
      "type": "event"
    },
    {
      "anonymous": false,
      "inputs": [
        {
          "indexed": true,
          "internalType": "address",
          "name": "account",
          "type": "address"
        },
        {
          "indexed": false,
          "internalType": "string",
          "name": "message",
          "type": "string"
        }
      ],
      "name": "trialNFTIsMinted",
      "type": "event"
    },
    {
      "inputs": [
        {
          "internalType": "address",
          "name": "account",
          "type": "address"
        },
        {
          "internalType": "uint256",
          "name": "id",
          "type": "uint256"
        }
      ],
      "name": "balanceOf",
      "outputs": [
        {
          "internalType": "uint256",
          "name": "",
          "type": "uint256"
        }
      ],
      "stateMutability": "view",
      "type": "function"
    },
    {
      "inputs": [
        {
          "internalType": "address[]",
          "name": "accounts",
          "type": "address[]"
        },
        {
          "internalType": "uint256[]",
          "name": "ids",
          "type": "uint256[]"
        }
      ],
      "name": "balanceOfBatch",
      "outputs": [
        {
          "internalType": "uint256[]",
          "name": "",
          "type": "uint256[]"
        }
      ],
      "stateMutability": "view",
      "type": "function"
    },
    {
      "inputs": [
        {
          "internalType": "address",
          "name": "account",
          "type": "address"
        },
        {
          "internalType": "uint256",
          "name": "id",
          "type": "uint256"
        },
        {
          "internalType": "uint256",
          "name": "value",
          "type": "uint256"
        }
      ],
      "name": "burn",
      "outputs": [],
      "stateMutability": "nonpayable",
      "type": "function"
    },
    {
      "inputs": [
        {
          "internalType": "address",
          "name": "account",
          "type": "address"
        },
        {
          "internalType": "uint256[]",
          "name": "ids",
          "type": "uint256[]"
        },
        {
          "internalType": "uint256[]",
          "name": "values",
          "type": "uint256[]"
        }
      ],
      "name": "burnBatch",
      "outputs": [],
      "stateMutability": "nonpayable",
      "type": "function"
    },
    {
      "inputs": [],
      "name": "currentDate",
      "outputs": [
        {
          "internalType": "uint256",
          "name": "",
          "type": "uint256"
        }
      ],
      "stateMutability": "view",
      "type": "function"
    },
    {
      "inputs": [
        {
          "internalType": "uint256",
          "name": "id",
          "type": "uint256"
        }
      ],
      "name": "exists",
      "outputs": [
        {
          "internalType": "bool",
          "name": "",
          "type": "bool"
        }
      ],
      "stateMutability": "view",
      "type": "function"
    },
    {
      "inputs": [],
      "name": "expireDate",
      "outputs": [
        {
          "internalType": "uint256",
          "name": "",
          "type": "uint256"
        }
      ],
      "stateMutability": "view",
      "type": "function"
    },
    {
      "inputs": [
        {
          "internalType": "address",
          "name": "account",
          "type": "address"
        },
        {
          "internalType": "address",
          "name": "operator",
          "type": "address"
        }
      ],
      "name": "isApprovedForAll",
      "outputs": [
        {
          "internalType": "bool",
          "name": "",
          "type": "bool"
        }
      ],
      "stateMutability": "view",
      "type": "function"
    },
    {
      "inputs": [
        {
          "internalType": "address",
          "name": "",
          "type": "address"
        }
      ],
      "name": "levelOfAccess",
      "outputs": [
        {
          "internalType": "bool",
          "name": "isExperiencedUser",
          "type": "bool"
        },
        {
          "internalType": "bool",
          "name": "isPremiumUser",
          "type": "bool"
        }
      ],
      "stateMutability": "view",
      "type": "function"
    },
    {
      "inputs": [
        {
          "internalType": "address",
          "name": "userToMakePremium",
          "type": "address"
        }
      ],
      "name": "makePremium",
      "outputs": [],
      "stateMutability": "nonpayable",
      "type": "function"
    },
    {
      "inputs": [
        {
          "internalType": "address",
          "name": "addressToMint",
          "type": "address"
        },
        {
          "internalType": "uint256",
          "name": "id",
          "type": "uint256"
        },
        {
          "internalType": "uint256",
          "name": "amount",
          "type": "uint256"
        },
        {
          "internalType": "bytes",
          "name": "data",
          "type": "bytes"
        }
      ],
      "name": "mint",
      "outputs": [],
      "stateMutability": "nonpayable",
      "type": "function"
    },
    {
      "inputs": [
        {
          "internalType": "address",
          "name": "to",
          "type": "address"
        },
        {
          "internalType": "uint256[]",
          "name": "ids",
          "type": "uint256[]"
        },
        {
          "internalType": "uint256[]",
          "name": "amounts",
          "type": "uint256[]"
        },
        {
          "internalType": "bytes",
          "name": "data",
          "type": "bytes"
        }
      ],
      "name": "mintBatch",
      "outputs": [],
      "stateMutability": "nonpayable",
      "type": "function"
    },
    {
      "inputs": [],
      "name": "mintDate",
      "outputs": [
        {
          "internalType": "uint256",
          "name": "",
          "type": "uint256"
        }
      ],
      "stateMutability": "view",
      "type": "function"
    },
    {
      "inputs": [],
      "name": "owner",
      "outputs": [
        {
          "internalType": "address",
          "name": "",
          "type": "address"
        }
      ],
      "stateMutability": "view",
      "type": "function"
    },
    {
      "inputs": [],
      "name": "renounceOwnership",
      "outputs": [],
      "stateMutability": "nonpayable",
      "type": "function"
    },
    {
      "inputs": [
        {
          "internalType": "address",
          "name": "accountToReset",
          "type": "address"
        }
      ],
      "name": "resetToNewUser",
      "outputs": [],
      "stateMutability": "nonpayable",
      "type": "function"
    },
    {
      "inputs": [
        {
          "internalType": "address",
          "name": "from",
          "type": "address"
        },
        {
          "internalType": "address",
          "name": "to",
          "type": "address"
        },
        {
          "internalType": "uint256[]",
          "name": "ids",
          "type": "uint256[]"
        },
        {
          "internalType": "uint256[]",
          "name": "amounts",
          "type": "uint256[]"
        },
        {
          "internalType": "bytes",
          "name": "data",
          "type": "bytes"
        }
      ],
      "name": "safeBatchTransferFrom",
      "outputs": [],
      "stateMutability": "nonpayable",
      "type": "function"
    },
    {
      "inputs": [
        {
          "internalType": "address",
          "name": "from",
          "type": "address"
        },
        {
          "internalType": "address",
          "name": "to",
          "type": "address"
        },
        {
          "internalType": "uint256",
          "name": "id",
          "type": "uint256"
        },
        {
          "internalType": "uint256",
          "name": "amount",
          "type": "uint256"
        },
        {
          "internalType": "bytes",
          "name": "data",
          "type": "bytes"
        }
      ],
      "name": "safeTransferFrom",
      "outputs": [],
      "stateMutability": "nonpayable",
      "type": "function"
    },
    {
      "inputs": [
        {
          "internalType": "address",
          "name": "operator",
          "type": "address"
        },
        {
          "internalType": "bool",
          "name": "approved",
          "type": "bool"
        }
      ],
      "name": "setApprovalForAll",
      "outputs": [],
      "stateMutability": "nonpayable",
      "type": "function"
    },
    {
      "inputs": [
        {
          "internalType": "bytes4",
          "name": "interfaceId",
          "type": "bytes4"
        }
      ],
      "name": "supportsInterface",
      "outputs": [
        {
          "internalType": "bool",
          "name": "",
          "type": "bool"
        }
      ],
      "stateMutability": "view",
      "type": "function"
    },
    {
      "inputs": [],
      "name": "timeTillExpire",
      "outputs": [
        {
          "internalType": "uint256",
          "name": "",
          "type": "uint256"
        }
      ],
      "stateMutability": "view",
      "type": "function"
    },
    {
      "inputs": [],
      "name": "tokenId",
      "outputs": [
        {
          "internalType": "uint256",
          "name": "",
          "type": "uint256"
        }
      ],
      "stateMutability": "view",
      "type": "function"
    },
    {
      "inputs": [
        {
          "internalType": "uint256",
          "name": "id",
          "type": "uint256"
        }
      ],
      "name": "totalSupply",
      "outputs": [
        {
          "internalType": "uint256",
          "name": "",
          "type": "uint256"
        }
      ],
      "stateMutability": "view",
      "type": "function"
    },
    {
      "inputs": [
        {
          "internalType": "address",
          "name": "newOwner",
          "type": "address"
        }
      ],
      "name": "transferOwnership",
      "outputs": [],
      "stateMutability": "nonpayable",
      "type": "function"
    },
    {
      "inputs": [
        {
          "internalType": "uint256",
          "name": "id",
          "type": "uint256"
        },
        {
          "internalType": "uint256",
          "name": "amount",
          "type": "uint256"
        },
        {
          "internalType": "bytes",
          "name": "data",
          "type": "bytes"
        }
      ],
      "name": "trialNFTMint",
      "outputs": [],
      "stateMutability": "nonpayable",
      "type": "function"
    },
    {
      "inputs": [
        {
          "internalType": "uint256",
          "name": "",
          "type": "uint256"
        }
      ],
      "name": "uri",
      "outputs": [
        {
          "internalType": "string",
          "name": "",
          "type": "string"
        }
      ],
      "stateMutability": "view",
      "type": "function"
    }
  ],
  "bytecode": {
    "object": "0x6080604052426005556007546006546200001a9190620000cb565b60085560006009553480156200002f57600080fd5b506040518060600160405280603081526020016200268e60309139620000558162000067565b50620000613362000079565b62000264565b600262000075828262000198565b5050565b600380546001600160a01b038381166001600160a01b0319831681179093556040519116919082907f8be0079c531659141344cd1fd0a4f28419497f9722a3daafe3b4186f6b6457e090600090a35050565b80820180821115620000ed57634e487b7160e01b600052601160045260246000fd5b92915050565b634e487b7160e01b600052604160045260246000fd5b600181811c908216806200011e57607f821691505b6020821081036200013f57634e487b7160e01b600052602260045260246000fd5b50919050565b601f8211156200019357600081815260208120601f850160051c810160208610156200016e5750805b601f850160051c820191505b818110156200018f578281556001016200017a565b5050505b505050565b81516001600160401b03811115620001b457620001b4620000f3565b620001cc81620001c5845462000109565b8462000145565b602080601f831160018114620002045760008415620001eb5750858301515b600019600386901b1c1916600185901b1785556200018f565b600085815260208120601f198616915b82811015620002355788860151825594840194600190910190840162000214565b5085821015620002545787850151600019600388901b60f8161c191681555b5050505050600190811b01905550565b61241a80620002746000396000f3fe608060405234801561001057600080fd5b506004361061018d5760003560e01c8063715018a6116100de578063b8a67c3c11610097578063f242432a11610071578063f242432a146103b3578063f2fde38b146103c6578063f5298aca146103d9578063f7698738146103ec57600080fd5b8063b8a67c3c1461034e578063bd85b03914610357578063e985e9c51461037757600080fd5b8063715018a6146102e9578063731133e9146102f15780638da5cb5b1461030457806396df416c1461031f57806398fafb2e14610332578063a22cb4651461033b57600080fd5b80632eb2c2d61161014b5780634e1273f4116101255780634e1273f41461028b5780634f558e79146102ab5780634f99b7c5146102cd5780636b20c454146102d657600080fd5b80632eb2c2d61461022c5780633affe7761461023f5780633d8ad9161461024857600080fd5b8062fdd58e1461019257806301ffc9a7146101b85780630e89341c146101db57806317d70f7c146101fb5780631f7fdffa14610204578063230415de14610219575b600080fd5b6101a56101a03660046118da565b6103ff565b6040519081526020015b60405180910390f35b6101cb6101c636600461191a565b610498565b60405190151581526020016101af565b6101ee6101e936600461193e565b6104e8565b6040516101af919061199d565b6101a560095481565b610217610212366004611afc565b61057c565b005b610217610227366004611b95565b610596565b61021761023a366004611bb0565b6105bf565b6101a560075481565b610274610256366004611b95565b600a6020526000908152604090205460ff8082169161010090041682565b6040805192151583529015156020830152016101af565b61029e610299366004611c5a565b61060b565b6040516101af9190611d60565b6101cb6102b936600461193e565b600090815260046020526040902054151590565b6101a560055481565b6102176102e4366004611d73565b610735565b61021761077d565b6102176102ff366004611de7565b610791565b6003546040516001600160a01b0390911681526020016101af565b61021761032d366004611b95565b61080b565b6101a560065481565b610217610349366004611e3c565b6108d3565b6101a560085481565b6101a561036536600461193e565b60009081526004602052604090205490565b6101cb610385366004611e78565b6001600160a01b03918216600090815260016020908152604080832093909416825291909152205460ff1690565b6102176103c1366004611eab565b6108e2565b6102176103d4366004611b95565b610927565b6102176103e7366004611f10565b6109a0565b6102176103fa366004611f43565b6109e3565b60006001600160a01b03831661046f5760405162461bcd60e51b815260206004820152602a60248201527f455243313135353a2061646472657373207a65726f206973206e6f742061207660448201526930b634b21037bbb732b960b11b60648201526084015b60405180910390fd5b506000818152602081815260408083206001600160a01b03861684529091529020545b92915050565b60006001600160e01b03198216636cdb3d1360e11b14806104c957506001600160e01b031982166303a24d0760e21b145b8061049257506301ffc9a760e01b6001600160e01b0319831614610492565b6060600280546104f790611f89565b80601f016020809104026020016040519081016040528092919081815260200182805461052390611f89565b80156105705780601f1061054557610100808354040283529160200191610570565b820191906000526020600020905b81548152906001019060200180831161055357829003601f168201915b50505050509050919050565b610584610ac6565b61059084848484610b20565b50505050565b61059e610ac6565b6001600160a01b03166000908152600a60205260409020805460ff19169055565b6001600160a01b0385163314806105db57506105db8533610385565b6105f75760405162461bcd60e51b815260040161046690611fc3565b6106048585858585610c7a565b5050505050565b606081518351146106705760405162461bcd60e51b815260206004820152602960248201527f455243313135353a206163636f756e747320616e6420696473206c656e677468604482015268040dad2e6dac2e8c6d60bb1b6064820152608401610466565b6000835167ffffffffffffffff81111561068c5761068c6119b0565b6040519080825280602002602001820160405280156106b5578160200160208202803683370190505b50905060005b845181101561072d576107008582815181106106d9576106d9612011565b60200260200101518583815181106106f3576106f3612011565b60200260200101516103ff565b82828151811061071257610712612011565b60209081029190910101526107268161203d565b90506106bb565b509392505050565b6001600160a01b03831633148061075157506107518333610385565b61076d5760405162461bcd60e51b815260040161046690611fc3565b610778838383610e24565b505050565b610785610ac6565b61078f6000610fc0565b565b610799610ac6565b6107a584848484611012565b336001600160a01b03167e532d1a87c33d088154a519b027467ef3a25af9a8dec0d8f4e9b5fb143fbb0d6040516107fd906020808252600d908201526c139195081a5cc81b5a5b9d1959609a1b604082015260600190565b60405180910390a250505050565b6001600160a01b0381166000908152600a6020526040902054819060ff161515600114801561085857506001600160a01b0381166000908152600a6020526040902054610100900460ff16155b6108a45760405162461bcd60e51b815260206004820152601760248201527f4e6f7420616e20657870657269656e63656420757365720000000000000000006044820152606401610466565b6108ac610ac6565b6001600160a01b03166000908152600a60205260409020805461ff00191661010017905550565b6108de3383836110fb565b5050565b6001600160a01b0385163314806108fe57506108fe8533610385565b61091a5760405162461bcd60e51b815260040161046690611fc3565b61060485858585856111db565b61092f610ac6565b6001600160a01b0381166109945760405162461bcd60e51b815260206004820152602660248201527f4f776e61626c653a206e6577206f776e657220697320746865207a65726f206160448201526564647265737360d01b6064820152608401610466565b61099d81610fc0565b50565b6001600160a01b0383163314806109bc57506109bc8333610385565b6109d85760405162461bcd60e51b815260040161046690611fc3565b610778838383611313565b336000908152600a602052604090205460ff1615610a345760405162461bcd60e51b815260206004820152600e60248201526d2737ba1030903732bb903ab9b2b960911b6044820152606401610466565b610a4033848484611012565b336001600160a01b03167f6e26ff1e96a6bcf2373f537221ff5228b4b664b60ad5b8ee090e857c93c96078604051610a9f90602080825260139082015272151c9a585b08139195081a5cc81b5a5b9d1959606a1b604082015260600190565b60405180910390a25050336000908152600a60205260409020805460ff1916600117905550565b6003546001600160a01b0316331461078f5760405162461bcd60e51b815260206004820181905260248201527f4f776e61626c653a2063616c6c6572206973206e6f7420746865206f776e65726044820152606401610466565b6001600160a01b038416610b465760405162461bcd60e51b815260040161046690612056565b8151835114610b675760405162461bcd60e51b815260040161046690612097565b33610b778160008787878761142b565b60005b8451811015610c1257838181518110610b9557610b95612011565b6020026020010151600080878481518110610bb257610bb2612011565b602002602001015181526020019081526020016000206000886001600160a01b03166001600160a01b031681526020019081526020016000206000828254610bfa91906120df565b90915550819050610c0a8161203d565b915050610b7a565b50846001600160a01b031660006001600160a01b0316826001600160a01b03167f4a39dc06d4c0dbc64b70af90fd698a233a518aa5d07e595d983b8c0526c8f7fb8787604051610c639291906120f2565b60405180910390a4610604816000878787876114e4565b8151835114610c9b5760405162461bcd60e51b815260040161046690612097565b6001600160a01b038416610cc15760405162461bcd60e51b815260040161046690612120565b33610cd081878787878761142b565b60005b8451811015610db6576000858281518110610cf057610cf0612011565b602002602001015190506000858381518110610d0e57610d0e612011565b602090810291909101810151600084815280835260408082206001600160a01b038e168352909352919091205490915081811015610d5e5760405162461bcd60e51b815260040161046690612165565b6000838152602081815260408083206001600160a01b038e8116855292528083208585039055908b16825281208054849290610d9b9084906120df565b9250508190555050505080610daf9061203d565b9050610cd3565b50846001600160a01b0316866001600160a01b0316826001600160a01b03167f4a39dc06d4c0dbc64b70af90fd698a233a518aa5d07e595d983b8c0526c8f7fb8787604051610e069291906120f2565b60405180910390a4610e1c8187878787876114e4565b505050505050565b6001600160a01b038316610e4a5760405162461bcd60e51b8152600401610466906121af565b8051825114610e6b5760405162461bcd60e51b815260040161046690612097565b6000339050610e8e8185600086866040518060200160405280600081525061142b565b60005b8351811015610f53576000848281518110610eae57610eae612011565b602002602001015190506000848381518110610ecc57610ecc612011565b602090810291909101810151600084815280835260408082206001600160a01b038c168352909352919091205490915081811015610f1c5760405162461bcd60e51b8152600401610466906121f2565b6000928352602083815260408085206001600160a01b038b1686529091529092209103905580610f4b8161203d565b915050610e91565b5060006001600160a01b0316846001600160a01b0316826001600160a01b03167f4a39dc06d4c0dbc64b70af90fd698a233a518aa5d07e595d983b8c0526c8f7fb8686604051610fa49291906120f2565b60405180910390a4604080516020810190915260009052610590565b600380546001600160a01b038381166001600160a01b0319831681179093556040519116919082907f8be0079c531659141344cd1fd0a4f28419497f9722a3daafe3b4186f6b6457e090600090a35050565b6001600160a01b0384166110385760405162461bcd60e51b815260040161046690612056565b3360006110448561163f565b905060006110518561163f565b90506110628360008985858961142b565b6000868152602081815260408083206001600160a01b038b168452909152812080548792906110929084906120df565b909155505060408051878152602081018790526001600160a01b03808a1692600092918716917fc3d58168c5ae7397731d063d5bbf3d657854427343f4c083240f7aacaa2d0f62910160405180910390a46110f28360008989898961168a565b50505050505050565b816001600160a01b0316836001600160a01b03160361116e5760405162461bcd60e51b815260206004820152602960248201527f455243313135353a2073657474696e6720617070726f76616c20737461747573604482015268103337b91039b2b63360b91b6064820152608401610466565b6001600160a01b03838116600081815260016020908152604080832094871680845294825291829020805460ff191686151590811790915591519182527f17307eab39ab6107e8899845ad3d59bd9653f200f220920489ca2b5937696c31910160405180910390a3505050565b6001600160a01b0384166112015760405162461bcd60e51b815260040161046690612120565b33600061120d8561163f565b9050600061121a8561163f565b905061122a83898985858961142b565b6000868152602081815260408083206001600160a01b038c1684529091529020548581101561126b5760405162461bcd60e51b815260040161046690612165565b6000878152602081815260408083206001600160a01b038d8116855292528083208985039055908a168252812080548892906112a89084906120df565b909155505060408051888152602081018890526001600160a01b03808b16928c821692918816917fc3d58168c5ae7397731d063d5bbf3d657854427343f4c083240f7aacaa2d0f62910160405180910390a4611308848a8a8a8a8a61168a565b505050505050505050565b6001600160a01b0383166113395760405162461bcd60e51b8152600401610466906121af565b3360006113458461163f565b905060006113528461163f565b90506113728387600085856040518060200160405280600081525061142b565b6000858152602081815260408083206001600160a01b038a168452909152902054848110156113b35760405162461bcd60e51b8152600401610466906121f2565b6000868152602081815260408083206001600160a01b038b81168086529184528285208a8703905582518b81529384018a90529092908816917fc3d58168c5ae7397731d063d5bbf3d657854427343f4c083240f7aacaa2d0f62910160405180910390a46040805160208101909152600090526110f2565b611439868686868686611745565b336000908152600a6020526040812054610100900460ff1615159003610e1c576001600160a01b03851615610e1c5760405162461bcd60e51b815260206004820152604560248201527f5468697320746f6b656e2063616e206f6e6c79206265206d696e7465642c205060448201527f6c65617365207570677261646520746f206d616b65206974207472616e7366656064820152647261626c6560d81b608482015260a401610466565b6001600160a01b0384163b15610e1c5760405163bc197c8160e01b81526001600160a01b0385169063bc197c81906115289089908990889088908890600401612236565b6020604051808303816000875af1925050508015611563575060408051601f3d908101601f1916820190925261156091810190612294565b60015b61160f5761156f6122b1565b806308c379a0036115a857506115836122cd565b8061158e57506115aa565b8060405162461bcd60e51b8152600401610466919061199d565b505b60405162461bcd60e51b815260206004820152603460248201527f455243313135353a207472616e7366657220746f206e6f6e2d455243313135356044820152732932b1b2b4bb32b91034b6b83632b6b2b73a32b960611b6064820152608401610466565b6001600160e01b0319811663bc197c8160e01b146110f25760405162461bcd60e51b815260040161046690612357565b6040805160018082528183019092526060916000919060208083019080368337019050509050828160008151811061167957611679612011565b602090810291909101015292915050565b6001600160a01b0384163b15610e1c5760405163f23a6e6160e01b81526001600160a01b0385169063f23a6e61906116ce908990899088908890889060040161239f565b6020604051808303816000875af1925050508015611709575060408051601f3d908101601f1916820190925261170691810190612294565b60015b6117155761156f6122b1565b6001600160e01b0319811663f23a6e6160e01b146110f25760405162461bcd60e51b815260040161046690612357565b6001600160a01b0385166117cc5760005b83518110156117ca5782818151811061177157611771612011565b60200260200101516004600086848151811061178f5761178f612011565b6020026020010151815260200190815260200160002060008282546117b491906120df565b909155506117c390508161203d565b9050611756565b505b6001600160a01b038416610e1c5760005b83518110156110f25760008482815181106117fa576117fa612011565b60200260200101519050600084838151811061181857611818612011565b602002602001015190506000600460008481526020019081526020016000205490508181101561189b5760405162461bcd60e51b815260206004820152602860248201527f455243313135353a206275726e20616d6f756e74206578636565647320746f74604482015267616c537570706c7960c01b6064820152608401610466565b600092835260046020526040909220910390556118b78161203d565b90506117dd565b80356001600160a01b03811681146118d557600080fd5b919050565b600080604083850312156118ed57600080fd5b6118f6836118be565b946020939093013593505050565b6001600160e01b03198116811461099d57600080fd5b60006020828403121561192c57600080fd5b813561193781611904565b9392505050565b60006020828403121561195057600080fd5b5035919050565b6000815180845260005b8181101561197d57602081850181015186830182015201611961565b506000602082860101526020601f19601f83011685010191505092915050565b6020815260006119376020830184611957565b634e487b7160e01b600052604160045260246000fd5b601f8201601f1916810167ffffffffffffffff811182821017156119ec576119ec6119b0565b6040525050565b600067ffffffffffffffff821115611a0d57611a0d6119b0565b5060051b60200190565b600082601f830112611a2857600080fd5b81356020611a35826119f3565b604051611a4282826119c6565b83815260059390931b8501820192828101915086841115611a6257600080fd5b8286015b84811015611a7d5780358352918301918301611a66565b509695505050505050565b600082601f830112611a9957600080fd5b813567ffffffffffffffff811115611ab357611ab36119b0565b604051611aca601f8301601f1916602001826119c6565b818152846020838601011115611adf57600080fd5b816020850160208301376000918101602001919091529392505050565b60008060008060808587031215611b1257600080fd5b611b1b856118be565b9350602085013567ffffffffffffffff80821115611b3857600080fd5b611b4488838901611a17565b94506040870135915080821115611b5a57600080fd5b611b6688838901611a17565b93506060870135915080821115611b7c57600080fd5b50611b8987828801611a88565b91505092959194509250565b600060208284031215611ba757600080fd5b611937826118be565b600080600080600060a08688031215611bc857600080fd5b611bd1866118be565b9450611bdf602087016118be565b9350604086013567ffffffffffffffff80821115611bfc57600080fd5b611c0889838a01611a17565b94506060880135915080821115611c1e57600080fd5b611c2a89838a01611a17565b93506080880135915080821115611c4057600080fd5b50611c4d88828901611a88565b9150509295509295909350565b60008060408385031215611c6d57600080fd5b823567ffffffffffffffff80821115611c8557600080fd5b818501915085601f830112611c9957600080fd5b81356020611ca6826119f3565b604051611cb382826119c6565b83815260059390931b8501820192828101915089841115611cd357600080fd5b948201945b83861015611cf857611ce9866118be565b82529482019490820190611cd8565b96505086013592505080821115611d0e57600080fd5b50611d1b85828601611a17565b9150509250929050565b600081518084526020808501945080840160005b83811015611d5557815187529582019590820190600101611d39565b509495945050505050565b6020815260006119376020830184611d25565b600080600060608486031215611d8857600080fd5b611d91846118be565b9250602084013567ffffffffffffffff80821115611dae57600080fd5b611dba87838801611a17565b93506040860135915080821115611dd057600080fd5b50611ddd86828701611a17565b9150509250925092565b60008060008060808587031215611dfd57600080fd5b611e06856118be565b93506020850135925060408501359150606085013567ffffffffffffffff811115611e3057600080fd5b611b8987828801611a88565b60008060408385031215611e4f57600080fd5b611e58836118be565b915060208301358015158114611e6d57600080fd5b809150509250929050565b60008060408385031215611e8b57600080fd5b611e94836118be565b9150611ea2602084016118be565b90509250929050565b600080600080600060a08688031215611ec357600080fd5b611ecc866118be565b9450611eda602087016118be565b93506040860135925060608601359150608086013567ffffffffffffffff811115611f0457600080fd5b611c4d88828901611a88565b600080600060608486031215611f2557600080fd5b611f2e846118be565b95602085013595506040909401359392505050565b600080600060608486031215611f5857600080fd5b8335925060208401359150604084013567ffffffffffffffff811115611f7d57600080fd5b611ddd86828701611a88565b600181811c90821680611f9d57607f821691505b602082108103611fbd57634e487b7160e01b600052602260045260246000fd5b50919050565b6020808252602e908201527f455243313135353a2063616c6c6572206973206e6f7420746f6b656e206f776e60408201526d195c881bdc88185c1c1c9bdd995960921b606082015260800190565b634e487b7160e01b600052603260045260246000fd5b634e487b7160e01b600052601160045260246000fd5b60006001820161204f5761204f612027565b5060010190565b60208082526021908201527f455243313135353a206d696e7420746f20746865207a65726f206164647265736040820152607360f81b606082015260800190565b60208082526028908201527f455243313135353a2069647320616e6420616d6f756e7473206c656e677468206040820152670dad2e6dac2e8c6d60c31b606082015260800190565b8082018082111561049257610492612027565b6040815260006121056040830185611d25565b82810360208401526121178185611d25565b95945050505050565b60208082526025908201527f455243313135353a207472616e7366657220746f20746865207a65726f206164604082015264647265737360d81b606082015260800190565b6020808252602a908201527f455243313135353a20696e73756666696369656e742062616c616e636520666f60408201526939103a3930b739b332b960b11b606082015260800190565b60208082526023908201527f455243313135353a206275726e2066726f6d20746865207a65726f206164647260408201526265737360e81b606082015260800190565b60208082526024908201527f455243313135353a206275726e20616d6f756e7420657863656564732062616c604082015263616e636560e01b606082015260800190565b6001600160a01b0386811682528516602082015260a06040820181905260009061226290830186611d25565b82810360608401526122748186611d25565b905082810360808401526122888185611957565b98975050505050505050565b6000602082840312156122a657600080fd5b815161193781611904565b600060033d11156122ca5760046000803e5060005160e01c5b90565b600060443d10156122db5790565b6040516003193d81016004833e81513d67ffffffffffffffff816024840111818411171561230b57505050505090565b82850191508151818111156123235750505050505090565b843d870101602082850101111561233d5750505050505090565b61234c602082860101876119c6565b509095945050505050565b60208082526028908201527f455243313135353a204552433131353552656365697665722072656a656374656040820152676420746f6b656e7360c01b606082015260800190565b6001600160a01b03868116825285166020820152604081018490526060810183905260a0608082018190526000906123d990830184611957565b97965050505050505056fea26469706673582212200c3545d381ebaa5a03c3594fa9eb8e43b29c1ab8c7a92d1809efa9ba42adf84064736f6c63430008110033687474703a2f2f3132372e302e302e313a353530302f6170692f6368617261637465724e46542f7b69647d2e6a736f6e",
    "linkReferences": {}
  },
  "methodIdentifiers": {
    "balanceOf(address,uint256)": "00fdd58e",
    "balanceOfBatch(address[],uint256[])": "4e1273f4",
    "burn(address,uint256,uint256)": "f5298aca",
    "burnBatch(address,uint256[],uint256[])": "6b20c454",
    "currentDate()": "4f99b7c5",
    "exists(uint256)": "4f558e79",
    "expireDate()": "b8a67c3c",
    "isApprovedForAll(address,address)": "e985e9c5",
    "levelOfAccess(address)": "3d8ad916",
    "makePremium(address)": "96df416c",
    "mint(address,uint256,uint256,bytes)": "731133e9",
    "mintBatch(address,uint256[],uint256[],bytes)": "1f7fdffa",
    "mintDate()": "98fafb2e",
    "owner()": "8da5cb5b",
    "renounceOwnership()": "715018a6",
    "resetToNewUser(address)": "230415de",
    "safeBatchTransferFrom(address,address,uint256[],uint256[],bytes)": "2eb2c2d6",
    "safeTransferFrom(address,address,uint256,uint256,bytes)": "f242432a",
    "setApprovalForAll(address,bool)": "a22cb465",
    "supportsInterface(bytes4)": "01ffc9a7",
    "timeTillExpire()": "3affe776",
    "tokenId()": "17d70f7c",
    "totalSupply(uint256)": "bd85b039",
    "transferOwnership(address)": "f2fde38b",
    "trialNFTMint(uint256,uint256,bytes)": "f7698738",
    "uri(uint256)": "0e89341c"
  },
  "id": 15
}