{
  "abi": [
    {
      "inputs": [],
      "stateMutability": "nonpayable",
      "type": "constructor"
    },
    {
      "anonymous": false,
      "inputs": [
        {
          "indexed": true,
          "internalType": "address",
          "name": "account",
          "type": "address"
        },
        {
          "indexed": true,
          "internalType": "address",
          "name": "operator",
          "type": "address"
        },
        {
          "indexed": false,
          "internalType": "bool",
          "name": "approved",
          "type": "bool"
        }
      ],
      "name": "ApprovalForAll",
      "type": "event"
    },
    {
      "anonymous": false,
      "inputs": [
        {
          "indexed": true,
          "internalType": "address",
          "name": "to",
          "type": "address"
        },
        {
          "indexed": true,
          "internalType": "uint256",
          "name": "tokenId",
          "type": "uint256"
        }
      ],
      "name": "Attest",
      "type": "event"
    },
    {
      "anonymous": false,
      "inputs": [
        {
          "indexed": true,
          "internalType": "address",
          "name": "account",
          "type": "address"
        },
        {
          "indexed": false,
          "internalType": "string",
          "name": "message",
          "type": "string"
        }
      ],
      "name": "NFTIsMinted",
      "type": "event"
    },
    {
      "anonymous": false,
      "inputs": [
        {
          "indexed": true,
          "internalType": "address",
          "name": "previousOwner",
          "type": "address"
        },
        {
          "indexed": true,
          "internalType": "address",
          "name": "newOwner",
          "type": "address"
        }
      ],
      "name": "OwnershipTransferred",
      "type": "event"
    },
    {
      "anonymous": false,
      "inputs": [
        {
          "indexed": true,
          "internalType": "address",
          "name": "operator",
          "type": "address"
        },
        {
          "indexed": true,
          "internalType": "address",
          "name": "from",
          "type": "address"
        },
        {
          "indexed": true,
          "internalType": "address",
          "name": "to",
          "type": "address"
        },
        {
          "indexed": false,
          "internalType": "uint256[]",
          "name": "ids",
          "type": "uint256[]"
        },
        {
          "indexed": false,
          "internalType": "uint256[]",
          "name": "values",
          "type": "uint256[]"
        }
      ],
      "name": "TransferBatch",
      "type": "event"
    },
    {
      "anonymous": false,
      "inputs": [
        {
          "indexed": true,
          "internalType": "address",
          "name": "operator",
          "type": "address"
        },
        {
          "indexed": true,
          "internalType": "address",
          "name": "from",
          "type": "address"
        },
        {
          "indexed": true,
          "internalType": "address",
          "name": "to",
          "type": "address"
        },
        {
          "indexed": false,
          "internalType": "uint256",
          "name": "id",
          "type": "uint256"
        },
        {
          "indexed": false,
          "internalType": "uint256",
          "name": "value",
          "type": "uint256"
        }
      ],
      "name": "TransferSingle",
      "type": "event"
    },
    {
      "anonymous": false,
      "inputs": [
        {
          "indexed": false,
          "internalType": "string",
          "name": "value",
          "type": "string"
        },
        {
          "indexed": true,
          "internalType": "uint256",
          "name": "id",
          "type": "uint256"
        }
      ],
      "name": "URI",
      "type": "event"
    },
    {
      "anonymous": false,
      "inputs": [
        {
          "indexed": true,
          "internalType": "address",
          "name": "account",
          "type": "address"
        },
        {
          "indexed": false,
          "internalType": "string",
          "name": "message",
          "type": "string"
        }
      ],
      "name": "trialNFTIsMinted",
      "type": "event"
    },
    {
      "inputs": [
        {
          "internalType": "address",
          "name": "account",
          "type": "address"
        },
        {
          "internalType": "uint256",
          "name": "id",
          "type": "uint256"
        }
      ],
      "name": "balanceOf",
      "outputs": [
        {
          "internalType": "uint256",
          "name": "",
          "type": "uint256"
        }
      ],
      "stateMutability": "view",
      "type": "function"
    },
    {
      "inputs": [
        {
          "internalType": "address[]",
          "name": "accounts",
          "type": "address[]"
        },
        {
          "internalType": "uint256[]",
          "name": "ids",
          "type": "uint256[]"
        }
      ],
      "name": "balanceOfBatch",
      "outputs": [
        {
          "internalType": "uint256[]",
          "name": "",
          "type": "uint256[]"
        }
      ],
      "stateMutability": "view",
      "type": "function"
    },
    {
      "inputs": [
        {
          "internalType": "address",
          "name": "account",
          "type": "address"
        },
        {
          "internalType": "uint256",
          "name": "id",
          "type": "uint256"
        },
        {
          "internalType": "uint256",
          "name": "value",
          "type": "uint256"
        }
      ],
      "name": "burn",
      "outputs": [],
      "stateMutability": "nonpayable",
      "type": "function"
    },
    {
      "inputs": [
        {
          "internalType": "address",
          "name": "account",
          "type": "address"
        },
        {
          "internalType": "uint256[]",
          "name": "ids",
          "type": "uint256[]"
        },
        {
          "internalType": "uint256[]",
          "name": "values",
          "type": "uint256[]"
        }
      ],
      "name": "burnBatch",
      "outputs": [],
      "stateMutability": "nonpayable",
      "type": "function"
    },
    {
      "inputs": [
        {
          "internalType": "uint256",
          "name": "id",
          "type": "uint256"
        }
      ],
      "name": "exists",
      "outputs": [
        {
          "internalType": "bool",
          "name": "",
          "type": "bool"
        }
      ],
      "stateMutability": "view",
      "type": "function"
    },
    {
      "inputs": [
        {
          "internalType": "address",
          "name": "account",
          "type": "address"
        },
        {
          "internalType": "address",
          "name": "operator",
          "type": "address"
        }
      ],
      "name": "isApprovedForAll",
      "outputs": [
        {
          "internalType": "bool",
          "name": "",
          "type": "bool"
        }
      ],
      "stateMutability": "view",
      "type": "function"
    },
    {
      "inputs": [],
      "name": "level",
      "outputs": [
        {
          "internalType": "uint8",
          "name": "",
          "type": "uint8"
        }
      ],
      "stateMutability": "view",
      "type": "function"
    },
    {
      "inputs": [
        {
          "internalType": "address",
          "name": "",
          "type": "address"
        }
      ],
      "name": "levelOfAccess",
      "outputs": [
        {
          "internalType": "bool",
          "name": "isExperiencedUser",
          "type": "bool"
        },
        {
          "internalType": "bool",
          "name": "isPremiumUser",
          "type": "bool"
        }
      ],
      "stateMutability": "view",
      "type": "function"
    },
    {
      "inputs": [],
      "name": "levelUp",
      "outputs": [],
      "stateMutability": "nonpayable",
      "type": "function"
    },
    {
      "inputs": [],
      "name": "makePremium",
      "outputs": [],
      "stateMutability": "nonpayable",
      "type": "function"
    },
    {
      "inputs": [
        {
          "internalType": "address",
          "name": "distributorAddress",
          "type": "address"
        },
        {
          "internalType": "uint256",
          "name": "id",
          "type": "uint256"
        },
        {
          "internalType": "uint256",
          "name": "amount",
          "type": "uint256"
        },
        {
          "internalType": "bytes",
          "name": "data",
          "type": "bytes"
        }
      ],
      "name": "mint",
      "outputs": [],
      "stateMutability": "nonpayable",
      "type": "function"
    },
    {
      "inputs": [
        {
          "internalType": "address",
          "name": "to",
          "type": "address"
        },
        {
          "internalType": "uint256[]",
          "name": "ids",
          "type": "uint256[]"
        },
        {
          "internalType": "uint256[]",
          "name": "amounts",
          "type": "uint256[]"
        },
        {
          "internalType": "bytes",
          "name": "data",
          "type": "bytes"
        }
      ],
      "name": "mintBatch",
      "outputs": [],
      "stateMutability": "nonpayable",
      "type": "function"
    },
    {
      "inputs": [],
      "name": "owner",
      "outputs": [
        {
          "internalType": "address",
          "name": "",
          "type": "address"
        }
      ],
      "stateMutability": "view",
      "type": "function"
    },
    {
      "inputs": [],
      "name": "renounceOwnership",
      "outputs": [],
      "stateMutability": "nonpayable",
      "type": "function"
    },
    {
      "inputs": [
        {
          "internalType": "address",
          "name": "accountToReset",
          "type": "address"
        }
      ],
      "name": "resetToNewUser",
      "outputs": [],
      "stateMutability": "nonpayable",
      "type": "function"
    },
    {
      "inputs": [
        {
          "internalType": "address",
          "name": "from",
          "type": "address"
        },
        {
          "internalType": "address",
          "name": "to",
          "type": "address"
        },
        {
          "internalType": "uint256[]",
          "name": "ids",
          "type": "uint256[]"
        },
        {
          "internalType": "uint256[]",
          "name": "amounts",
          "type": "uint256[]"
        },
        {
          "internalType": "bytes",
          "name": "data",
          "type": "bytes"
        }
      ],
      "name": "safeBatchTransferFrom",
      "outputs": [],
      "stateMutability": "nonpayable",
      "type": "function"
    },
    {
      "inputs": [
        {
          "internalType": "address",
          "name": "from",
          "type": "address"
        },
        {
          "internalType": "address",
          "name": "to",
          "type": "address"
        },
        {
          "internalType": "uint256",
          "name": "id",
          "type": "uint256"
        },
        {
          "internalType": "uint256",
          "name": "amount",
          "type": "uint256"
        },
        {
          "internalType": "bytes",
          "name": "data",
          "type": "bytes"
        }
      ],
      "name": "safeTransferFrom",
      "outputs": [],
      "stateMutability": "nonpayable",
      "type": "function"
    },
    {
      "inputs": [
        {
          "internalType": "address",
          "name": "operator",
          "type": "address"
        },
        {
          "internalType": "bool",
          "name": "approved",
          "type": "bool"
        }
      ],
      "name": "setApprovalForAll",
      "outputs": [],
      "stateMutability": "nonpayable",
      "type": "function"
    },
    {
      "inputs": [
        {
          "internalType": "bytes4",
          "name": "interfaceId",
          "type": "bytes4"
        }
      ],
      "name": "supportsInterface",
      "outputs": [
        {
          "internalType": "bool",
          "name": "",
          "type": "bool"
        }
      ],
      "stateMutability": "view",
      "type": "function"
    },
    {
      "inputs": [
        {
          "internalType": "uint256",
          "name": "id",
          "type": "uint256"
        }
      ],
      "name": "totalSupply",
      "outputs": [
        {
          "internalType": "uint256",
          "name": "",
          "type": "uint256"
        }
      ],
      "stateMutability": "view",
      "type": "function"
    },
    {
      "inputs": [
        {
          "internalType": "address",
          "name": "newOwner",
          "type": "address"
        }
      ],
      "name": "transferOwnership",
      "outputs": [],
      "stateMutability": "nonpayable",
      "type": "function"
    },
    {
      "inputs": [
        {
          "internalType": "uint256",
          "name": "id",
          "type": "uint256"
        },
        {
          "internalType": "uint256",
          "name": "amount",
          "type": "uint256"
        },
        {
          "internalType": "bytes",
          "name": "data",
          "type": "bytes"
        }
      ],
      "name": "trialNFTMint",
      "outputs": [],
      "stateMutability": "nonpayable",
      "type": "function"
    },
    {
      "inputs": [
        {
          "internalType": "uint256",
          "name": "",
          "type": "uint256"
        }
      ],
      "name": "uri",
      "outputs": [
        {
          "internalType": "string",
          "name": "",
          "type": "string"
        }
      ],
      "stateMutability": "view",
      "type": "function"
    }
  ],
  "bytecode": {
    "object": "0x60806040526005805460ff191690553480156200001b57600080fd5b506040518060600160405280603081526020016200262860309139620000418162000053565b506200004d3362000065565b62000228565b60026200006182826200015c565b5050565b600380546001600160a01b038381166001600160a01b0319831681179093556040519116919082907f8be0079c531659141344cd1fd0a4f28419497f9722a3daafe3b4186f6b6457e090600090a35050565b634e487b7160e01b600052604160045260246000fd5b600181811c90821680620000e257607f821691505b6020821081036200010357634e487b7160e01b600052602260045260246000fd5b50919050565b601f8211156200015757600081815260208120601f850160051c81016020861015620001325750805b601f850160051c820191505b8181101562000153578281556001016200013e565b5050505b505050565b81516001600160401b03811115620001785762000178620000b7565b6200019081620001898454620000cd565b8462000109565b602080601f831160018114620001c85760008415620001af5750858301515b600019600386901b1c1916600185901b17855562000153565b600085815260208120601f198616915b82811015620001f957888601518255948401946001909101908401620001d8565b5085821015620002185787850151600019600388901b60f8161c191681555b5050505050600190811b01905550565b6123f080620002386000396000f3fe608060405234801561001057600080fd5b506004361061014c5760003560e01c80636fd5ae15116100c3578063bd85b0391161007c578063bd85b03914610305578063e985e9c514610325578063f242432a14610361578063f2fde38b14610374578063f5298aca14610387578063f76987381461039a57600080fd5b80636fd5ae1514610295578063715018a6146102b4578063731133e9146102bc5780637f2575a1146102cf5780638da5cb5b146102d7578063a22cb465146102f257600080fd5b80632eb2c2d6116101155780632eb2c2d6146101e25780633d8ad916146101f55780634e1273f4146102385780634ea1ecf9146102585780634f558e79146102605780636b20c4541461028257600080fd5b8062fdd58e1461015157806301ffc9a7146101775780630e89341c1461019a5780631f7fdffa146101ba578063230415de146101cf575b600080fd5b61016461015f366004611891565b6103ad565b6040519081526020015b60405180910390f35b61018a6101853660046118d1565b610446565b604051901515815260200161016e565b6101ad6101a83660046118f5565b610496565b60405161016e9190611954565b6101cd6101c8366004611ab3565b61052a565b005b6101cd6101dd366004611b4c565b610544565b6101cd6101f0366004611b67565b61056d565b610221610203366004611b4c565b60066020526000908152604090205460ff8082169161010090041682565b60408051921515835290151560208301520161016e565b61024b610246366004611c11565b6105b9565b60405161016e9190611d17565b6101cd6106e3565b61018a61026e3660046118f5565b600090815260046020526040902054151590565b6101cd610290366004611d2a565b610711565b6005546102a29060ff1681565b60405160ff909116815260200161016e565b6101cd610759565b6101cd6102ca366004611d9e565b61076d565b6101cd6107e7565b6003546040516001600160a01b03909116815260200161016e565b6101cd610300366004611df3565b61088a565b6101646103133660046118f5565b60009081526004602052604090205490565b61018a610333366004611e2f565b6001600160a01b03918216600090815260016020908152604080832093909416825291909152205460ff1690565b6101cd61036f366004611e62565b610899565b6101cd610382366004611b4c565b6108de565b6101cd610395366004611ec7565b610957565b6101cd6103a8366004611efa565b61099a565b60006001600160a01b03831661041d5760405162461bcd60e51b815260206004820152602a60248201527f455243313135353a2061646472657373207a65726f206973206e6f742061207660448201526930b634b21037bbb732b960b11b60648201526084015b60405180910390fd5b506000818152602081815260408083206001600160a01b03861684529091529020545b92915050565b60006001600160e01b03198216636cdb3d1360e11b148061047757506001600160e01b031982166303a24d0760e21b145b8061044057506301ffc9a760e01b6001600160e01b0319831614610440565b6060600280546104a590611f40565b80601f01602080910402602001604051908101604052809291908181526020018280546104d190611f40565b801561051e5780601f106104f35761010080835404028352916020019161051e565b820191906000526020600020905b81548152906001019060200180831161050157829003601f168201915b50505050509050919050565b610532610a7d565b61053e84848484610ad7565b50505050565b61054c610a7d565b6001600160a01b03166000908152600660205260409020805460ff19169055565b6001600160a01b03851633148061058957506105898533610333565b6105a55760405162461bcd60e51b815260040161041490611f7a565b6105b28585858585610c31565b5050505050565b6060815183511461061e5760405162461bcd60e51b815260206004820152602960248201527f455243313135353a206163636f756e747320616e6420696473206c656e677468604482015268040dad2e6dac2e8c6d60bb1b6064820152608401610414565b6000835167ffffffffffffffff81111561063a5761063a611967565b604051908082528060200260200182016040528015610663578160200160208202803683370190505b50905060005b84518110156106db576106ae85828151811061068757610687611fc8565b60200260200101518583815181106106a1576106a1611fc8565b60200260200101516103ad565b8282815181106106c0576106c0611fc8565b60209081029190910101526106d481611ff4565b9050610669565b509392505050565b6005805460ff169060006106f68361200d565b91906101000a81548160ff021916908360ff16021790555050565b6001600160a01b03831633148061072d575061072d8333610333565b6107495760405162461bcd60e51b815260040161041490611f7a565b610754838383610ddb565b505050565b610761610a7d565b61076b6000610f77565b565b610775610a7d565b61078184848484610fc9565b336001600160a01b03167e532d1a87c33d088154a519b027467ef3a25af9a8dec0d8f4e9b5fb143fbb0d6040516107d9906020808252600d908201526c139195081a5cc81b5a5b9d1959609a1b604082015260600190565b60405180910390a250505050565b3360009081526006602052604090205460ff1615156001148015610820575033600090815260066020526040902054610100900460ff16155b61086c5760405162461bcd60e51b815260206004820152601760248201527f4e6f7420616e20657870657269656e63656420757365720000000000000000006044820152606401610414565b336000908152600660205260409020805461ff001916610100179055565b6108953383836110b2565b5050565b6001600160a01b0385163314806108b557506108b58533610333565b6108d15760405162461bcd60e51b815260040161041490611f7a565b6105b28585858585611192565b6108e6610a7d565b6001600160a01b03811661094b5760405162461bcd60e51b815260206004820152602660248201527f4f776e61626c653a206e6577206f776e657220697320746865207a65726f206160448201526564647265737360d01b6064820152608401610414565b61095481610f77565b50565b6001600160a01b03831633148061097357506109738333610333565b61098f5760405162461bcd60e51b815260040161041490611f7a565b6107548383836112ca565b3360009081526006602052604090205460ff16156109eb5760405162461bcd60e51b815260206004820152600e60248201526d2737ba1030903732bb903ab9b2b960911b6044820152606401610414565b6109f733848484610fc9565b336001600160a01b03167f6e26ff1e96a6bcf2373f537221ff5228b4b664b60ad5b8ee090e857c93c96078604051610a5690602080825260139082015272151c9a585b08139195081a5cc81b5a5b9d1959606a1b604082015260600190565b60405180910390a25050336000908152600660205260409020805460ff1916600117905550565b6003546001600160a01b0316331461076b5760405162461bcd60e51b815260206004820181905260248201527f4f776e61626c653a2063616c6c6572206973206e6f7420746865206f776e65726044820152606401610414565b6001600160a01b038416610afd5760405162461bcd60e51b81526004016104149061202c565b8151835114610b1e5760405162461bcd60e51b81526004016104149061206d565b33610b2e816000878787876113e2565b60005b8451811015610bc957838181518110610b4c57610b4c611fc8565b6020026020010151600080878481518110610b6957610b69611fc8565b602002602001015181526020019081526020016000206000886001600160a01b03166001600160a01b031681526020019081526020016000206000828254610bb191906120b5565b90915550819050610bc181611ff4565b915050610b31565b50846001600160a01b031660006001600160a01b0316826001600160a01b03167f4a39dc06d4c0dbc64b70af90fd698a233a518aa5d07e595d983b8c0526c8f7fb8787604051610c1a9291906120c8565b60405180910390a46105b28160008787878761149b565b8151835114610c525760405162461bcd60e51b81526004016104149061206d565b6001600160a01b038416610c785760405162461bcd60e51b8152600401610414906120f6565b33610c878187878787876113e2565b60005b8451811015610d6d576000858281518110610ca757610ca7611fc8565b602002602001015190506000858381518110610cc557610cc5611fc8565b602090810291909101810151600084815280835260408082206001600160a01b038e168352909352919091205490915081811015610d155760405162461bcd60e51b81526004016104149061213b565b6000838152602081815260408083206001600160a01b038e8116855292528083208585039055908b16825281208054849290610d529084906120b5565b9250508190555050505080610d6690611ff4565b9050610c8a565b50846001600160a01b0316866001600160a01b0316826001600160a01b03167f4a39dc06d4c0dbc64b70af90fd698a233a518aa5d07e595d983b8c0526c8f7fb8787604051610dbd9291906120c8565b60405180910390a4610dd381878787878761149b565b505050505050565b6001600160a01b038316610e015760405162461bcd60e51b815260040161041490612185565b8051825114610e225760405162461bcd60e51b81526004016104149061206d565b6000339050610e45818560008686604051806020016040528060008152506113e2565b60005b8351811015610f0a576000848281518110610e6557610e65611fc8565b602002602001015190506000848381518110610e8357610e83611fc8565b602090810291909101810151600084815280835260408082206001600160a01b038c168352909352919091205490915081811015610ed35760405162461bcd60e51b8152600401610414906121c8565b6000928352602083815260408085206001600160a01b038b1686529091529092209103905580610f0281611ff4565b915050610e48565b5060006001600160a01b0316846001600160a01b0316826001600160a01b03167f4a39dc06d4c0dbc64b70af90fd698a233a518aa5d07e595d983b8c0526c8f7fb8686604051610f5b9291906120c8565b60405180910390a460408051602081019091526000905261053e565b600380546001600160a01b038381166001600160a01b0319831681179093556040519116919082907f8be0079c531659141344cd1fd0a4f28419497f9722a3daafe3b4186f6b6457e090600090a35050565b6001600160a01b038416610fef5760405162461bcd60e51b81526004016104149061202c565b336000610ffb856115f6565b90506000611008856115f6565b9050611019836000898585896113e2565b6000868152602081815260408083206001600160a01b038b168452909152812080548792906110499084906120b5565b909155505060408051878152602081018790526001600160a01b03808a1692600092918716917fc3d58168c5ae7397731d063d5bbf3d657854427343f4c083240f7aacaa2d0f62910160405180910390a46110a983600089898989611641565b50505050505050565b816001600160a01b0316836001600160a01b0316036111255760405162461bcd60e51b815260206004820152602960248201527f455243313135353a2073657474696e6720617070726f76616c20737461747573604482015268103337b91039b2b63360b91b6064820152608401610414565b6001600160a01b03838116600081815260016020908152604080832094871680845294825291829020805460ff191686151590811790915591519182527f17307eab39ab6107e8899845ad3d59bd9653f200f220920489ca2b5937696c31910160405180910390a3505050565b6001600160a01b0384166111b85760405162461bcd60e51b8152600401610414906120f6565b3360006111c4856115f6565b905060006111d1856115f6565b90506111e18389898585896113e2565b6000868152602081815260408083206001600160a01b038c168452909152902054858110156112225760405162461bcd60e51b81526004016104149061213b565b6000878152602081815260408083206001600160a01b038d8116855292528083208985039055908a1682528120805488929061125f9084906120b5565b909155505060408051888152602081018890526001600160a01b03808b16928c821692918816917fc3d58168c5ae7397731d063d5bbf3d657854427343f4c083240f7aacaa2d0f62910160405180910390a46112bf848a8a8a8a8a611641565b505050505050505050565b6001600160a01b0383166112f05760405162461bcd60e51b815260040161041490612185565b3360006112fc846115f6565b90506000611309846115f6565b9050611329838760008585604051806020016040528060008152506113e2565b6000858152602081815260408083206001600160a01b038a1684529091529020548481101561136a5760405162461bcd60e51b8152600401610414906121c8565b6000868152602081815260408083206001600160a01b038b81168086529184528285208a8703905582518b81529384018a90529092908816917fc3d58168c5ae7397731d063d5bbf3d657854427343f4c083240f7aacaa2d0f62910160405180910390a46040805160208101909152600090526110a9565b6113f08686868686866116fc565b33600090815260066020526040812054610100900460ff1615159003610dd3576001600160a01b03851615610dd35760405162461bcd60e51b815260206004820152604560248201527f5468697320746f6b656e2063616e206f6e6c79206265206d696e7465642c205060448201527f6c65617365207570677261646520746f206d616b65206974207472616e7366656064820152647261626c6560d81b608482015260a401610414565b6001600160a01b0384163b15610dd35760405163bc197c8160e01b81526001600160a01b0385169063bc197c81906114df908990899088908890889060040161220c565b6020604051808303816000875af192505050801561151a575060408051601f3d908101601f191682019092526115179181019061226a565b60015b6115c657611526612287565b806308c379a00361155f575061153a6122a3565b806115455750611561565b8060405162461bcd60e51b81526004016104149190611954565b505b60405162461bcd60e51b815260206004820152603460248201527f455243313135353a207472616e7366657220746f206e6f6e2d455243313135356044820152732932b1b2b4bb32b91034b6b83632b6b2b73a32b960611b6064820152608401610414565b6001600160e01b0319811663bc197c8160e01b146110a95760405162461bcd60e51b81526004016104149061232d565b6040805160018082528183019092526060916000919060208083019080368337019050509050828160008151811061163057611630611fc8565b602090810291909101015292915050565b6001600160a01b0384163b15610dd35760405163f23a6e6160e01b81526001600160a01b0385169063f23a6e61906116859089908990889088908890600401612375565b6020604051808303816000875af19250505080156116c0575060408051601f3d908101601f191682019092526116bd9181019061226a565b60015b6116cc57611526612287565b6001600160e01b0319811663f23a6e6160e01b146110a95760405162461bcd60e51b81526004016104149061232d565b6001600160a01b0385166117835760005b83518110156117815782818151811061172857611728611fc8565b60200260200101516004600086848151811061174657611746611fc8565b60200260200101518152602001908152602001600020600082825461176b91906120b5565b9091555061177a905081611ff4565b905061170d565b505b6001600160a01b038416610dd35760005b83518110156110a95760008482815181106117b1576117b1611fc8565b6020026020010151905060008483815181106117cf576117cf611fc8565b60200260200101519050600060046000848152602001908152602001600020549050818110156118525760405162461bcd60e51b815260206004820152602860248201527f455243313135353a206275726e20616d6f756e74206578636565647320746f74604482015267616c537570706c7960c01b6064820152608401610414565b6000928352600460205260409092209103905561186e81611ff4565b9050611794565b80356001600160a01b038116811461188c57600080fd5b919050565b600080604083850312156118a457600080fd5b6118ad83611875565b946020939093013593505050565b6001600160e01b03198116811461095457600080fd5b6000602082840312156118e357600080fd5b81356118ee816118bb565b9392505050565b60006020828403121561190757600080fd5b5035919050565b6000815180845260005b8181101561193457602081850181015186830182015201611918565b506000602082860101526020601f19601f83011685010191505092915050565b6020815260006118ee602083018461190e565b634e487b7160e01b600052604160045260246000fd5b601f8201601f1916810167ffffffffffffffff811182821017156119a3576119a3611967565b6040525050565b600067ffffffffffffffff8211156119c4576119c4611967565b5060051b60200190565b600082601f8301126119df57600080fd5b813560206119ec826119aa565b6040516119f9828261197d565b83815260059390931b8501820192828101915086841115611a1957600080fd5b8286015b84811015611a345780358352918301918301611a1d565b509695505050505050565b600082601f830112611a5057600080fd5b813567ffffffffffffffff811115611a6a57611a6a611967565b604051611a81601f8301601f19166020018261197d565b818152846020838601011115611a9657600080fd5b816020850160208301376000918101602001919091529392505050565b60008060008060808587031215611ac957600080fd5b611ad285611875565b9350602085013567ffffffffffffffff80821115611aef57600080fd5b611afb888389016119ce565b94506040870135915080821115611b1157600080fd5b611b1d888389016119ce565b93506060870135915080821115611b3357600080fd5b50611b4087828801611a3f565b91505092959194509250565b600060208284031215611b5e57600080fd5b6118ee82611875565b600080600080600060a08688031215611b7f57600080fd5b611b8886611875565b9450611b9660208701611875565b9350604086013567ffffffffffffffff80821115611bb357600080fd5b611bbf89838a016119ce565b94506060880135915080821115611bd557600080fd5b611be189838a016119ce565b93506080880135915080821115611bf757600080fd5b50611c0488828901611a3f565b9150509295509295909350565b60008060408385031215611c2457600080fd5b823567ffffffffffffffff80821115611c3c57600080fd5b818501915085601f830112611c5057600080fd5b81356020611c5d826119aa565b604051611c6a828261197d565b83815260059390931b8501820192828101915089841115611c8a57600080fd5b948201945b83861015611caf57611ca086611875565b82529482019490820190611c8f565b96505086013592505080821115611cc557600080fd5b50611cd2858286016119ce565b9150509250929050565b600081518084526020808501945080840160005b83811015611d0c57815187529582019590820190600101611cf0565b509495945050505050565b6020815260006118ee6020830184611cdc565b600080600060608486031215611d3f57600080fd5b611d4884611875565b9250602084013567ffffffffffffffff80821115611d6557600080fd5b611d71878388016119ce565b93506040860135915080821115611d8757600080fd5b50611d94868287016119ce565b9150509250925092565b60008060008060808587031215611db457600080fd5b611dbd85611875565b93506020850135925060408501359150606085013567ffffffffffffffff811115611de757600080fd5b611b4087828801611a3f565b60008060408385031215611e0657600080fd5b611e0f83611875565b915060208301358015158114611e2457600080fd5b809150509250929050565b60008060408385031215611e4257600080fd5b611e4b83611875565b9150611e5960208401611875565b90509250929050565b600080600080600060a08688031215611e7a57600080fd5b611e8386611875565b9450611e9160208701611875565b93506040860135925060608601359150608086013567ffffffffffffffff811115611ebb57600080fd5b611c0488828901611a3f565b600080600060608486031215611edc57600080fd5b611ee584611875565b95602085013595506040909401359392505050565b600080600060608486031215611f0f57600080fd5b8335925060208401359150604084013567ffffffffffffffff811115611f3457600080fd5b611d9486828701611a3f565b600181811c90821680611f5457607f821691505b602082108103611f7457634e487b7160e01b600052602260045260246000fd5b50919050565b6020808252602e908201527f455243313135353a2063616c6c6572206973206e6f7420746f6b656e206f776e60408201526d195c881bdc88185c1c1c9bdd995960921b606082015260800190565b634e487b7160e01b600052603260045260246000fd5b634e487b7160e01b600052601160045260246000fd5b60006001820161200657612006611fde565b5060010190565b600060ff821660ff810361202357612023611fde565b60010192915050565b60208082526021908201527f455243313135353a206d696e7420746f20746865207a65726f206164647265736040820152607360f81b606082015260800190565b60208082526028908201527f455243313135353a2069647320616e6420616d6f756e7473206c656e677468206040820152670dad2e6dac2e8c6d60c31b606082015260800190565b8082018082111561044057610440611fde565b6040815260006120db6040830185611cdc565b82810360208401526120ed8185611cdc565b95945050505050565b60208082526025908201527f455243313135353a207472616e7366657220746f20746865207a65726f206164604082015264647265737360d81b606082015260800190565b6020808252602a908201527f455243313135353a20696e73756666696369656e742062616c616e636520666f60408201526939103a3930b739b332b960b11b606082015260800190565b60208082526023908201527f455243313135353a206275726e2066726f6d20746865207a65726f206164647260408201526265737360e81b606082015260800190565b60208082526024908201527f455243313135353a206275726e20616d6f756e7420657863656564732062616c604082015263616e636560e01b606082015260800190565b6001600160a01b0386811682528516602082015260a06040820181905260009061223890830186611cdc565b828103606084015261224a8186611cdc565b9050828103608084015261225e818561190e565b98975050505050505050565b60006020828403121561227c57600080fd5b81516118ee816118bb565b600060033d11156122a05760046000803e5060005160e01c5b90565b600060443d10156122b15790565b6040516003193d81016004833e81513d67ffffffffffffffff81602484011181841117156122e157505050505090565b82850191508151818111156122f95750505050505090565b843d87010160208285010111156123135750505050505090565b6123226020828601018761197d565b509095945050505050565b60208082526028908201527f455243313135353a204552433131353552656365697665722072656a656374656040820152676420746f6b656e7360c01b606082015260800190565b6001600160a01b03868116825285166020820152604081018490526060810183905260a0608082018190526000906123af9083018461190e565b97965050505050505056fea2646970667358221220b04c2f494d1ad095a2957ae7333c454c71ac2dea8faf9fc476420ffe91098d5164736f6c63430008110033687474703a2f2f3132372e302e302e313a353530302f6170692f6368617261637465724e46542f7b69647d2e6a736f6e",
    "linkReferences": {}
  },
  "methodIdentifiers": {
    "balanceOf(address,uint256)": "00fdd58e",
    "balanceOfBatch(address[],uint256[])": "4e1273f4",
    "burn(address,uint256,uint256)": "f5298aca",
    "burnBatch(address,uint256[],uint256[])": "6b20c454",
    "exists(uint256)": "4f558e79",
    "isApprovedForAll(address,address)": "e985e9c5",
    "level()": "6fd5ae15",
    "levelOfAccess(address)": "3d8ad916",
    "levelUp()": "4ea1ecf9",
    "makePremium()": "7f2575a1",
    "mint(address,uint256,uint256,bytes)": "731133e9",
    "mintBatch(address,uint256[],uint256[],bytes)": "1f7fdffa",
    "owner()": "8da5cb5b",
    "renounceOwnership()": "715018a6",
    "resetToNewUser(address)": "230415de",
    "safeBatchTransferFrom(address,address,uint256[],uint256[],bytes)": "2eb2c2d6",
    "safeTransferFrom(address,address,uint256,uint256,bytes)": "f242432a",
    "setApprovalForAll(address,bool)": "a22cb465",
    "supportsInterface(bytes4)": "01ffc9a7",
    "totalSupply(uint256)": "bd85b039",
    "transferOwnership(address)": "f2fde38b",
    "trialNFTMint(uint256,uint256,bytes)": "f7698738",
    "uri(uint256)": "0e89341c"
  },
  "id": 14
}