{
  "abi": [
    {
      "inputs": [],
      "stateMutability": "nonpayable",
      "type": "constructor"
    },
    {
      "anonymous": false,
      "inputs": [
        {
          "indexed": true,
          "internalType": "address",
          "name": "account",
          "type": "address"
        },
        {
          "indexed": true,
          "internalType": "address",
          "name": "operator",
          "type": "address"
        },
        {
          "indexed": false,
          "internalType": "bool",
          "name": "approved",
          "type": "bool"
        }
      ],
      "name": "ApprovalForAll",
      "type": "event"
    },
    {
      "anonymous": false,
      "inputs": [
        {
          "indexed": true,
          "internalType": "address",
          "name": "to",
          "type": "address"
        },
        {
          "indexed": true,
          "internalType": "uint256",
          "name": "tokenId",
          "type": "uint256"
        }
      ],
      "name": "Attest",
      "type": "event"
    },
    {
      "anonymous": false,
      "inputs": [
        {
          "indexed": true,
          "internalType": "address",
          "name": "account",
          "type": "address"
        },
        {
          "indexed": false,
          "internalType": "string",
          "name": "message",
          "type": "string"
        }
      ],
      "name": "NFTIsMinted",
      "type": "event"
    },
    {
      "anonymous": false,
      "inputs": [
        {
          "indexed": true,
          "internalType": "address",
          "name": "previousOwner",
          "type": "address"
        },
        {
          "indexed": true,
          "internalType": "address",
          "name": "newOwner",
          "type": "address"
        }
      ],
      "name": "OwnershipTransferred",
      "type": "event"
    },
    {
      "anonymous": false,
      "inputs": [
        {
          "indexed": true,
          "internalType": "address",
          "name": "operator",
          "type": "address"
        },
        {
          "indexed": true,
          "internalType": "address",
          "name": "from",
          "type": "address"
        },
        {
          "indexed": true,
          "internalType": "address",
          "name": "to",
          "type": "address"
        },
        {
          "indexed": false,
          "internalType": "uint256[]",
          "name": "ids",
          "type": "uint256[]"
        },
        {
          "indexed": false,
          "internalType": "uint256[]",
          "name": "values",
          "type": "uint256[]"
        }
      ],
      "name": "TransferBatch",
      "type": "event"
    },
    {
      "anonymous": false,
      "inputs": [
        {
          "indexed": true,
          "internalType": "address",
          "name": "operator",
          "type": "address"
        },
        {
          "indexed": true,
          "internalType": "address",
          "name": "from",
          "type": "address"
        },
        {
          "indexed": true,
          "internalType": "address",
          "name": "to",
          "type": "address"
        },
        {
          "indexed": false,
          "internalType": "uint256",
          "name": "id",
          "type": "uint256"
        },
        {
          "indexed": false,
          "internalType": "uint256",
          "name": "value",
          "type": "uint256"
        }
      ],
      "name": "TransferSingle",
      "type": "event"
    },
    {
      "anonymous": false,
      "inputs": [
        {
          "indexed": false,
          "internalType": "string",
          "name": "value",
          "type": "string"
        },
        {
          "indexed": true,
          "internalType": "uint256",
          "name": "id",
          "type": "uint256"
        }
      ],
      "name": "URI",
      "type": "event"
    },
    {
      "anonymous": false,
      "inputs": [
        {
          "indexed": true,
          "internalType": "address",
          "name": "account",
          "type": "address"
        },
        {
          "indexed": false,
          "internalType": "string",
          "name": "message",
          "type": "string"
        }
      ],
      "name": "trialNFTIsMinted",
      "type": "event"
    },
    {
      "inputs": [],
      "name": "TRIALNFTID",
      "outputs": [
        {
          "internalType": "uint256",
          "name": "",
          "type": "uint256"
        }
      ],
      "stateMutability": "view",
      "type": "function"
    },
    {
      "inputs": [
        {
          "internalType": "address",
          "name": "account",
          "type": "address"
        },
        {
          "internalType": "uint256",
          "name": "id",
          "type": "uint256"
        }
      ],
      "name": "balanceOf",
      "outputs": [
        {
          "internalType": "uint256",
          "name": "",
          "type": "uint256"
        }
      ],
      "stateMutability": "view",
      "type": "function"
    },
    {
      "inputs": [
        {
          "internalType": "address[]",
          "name": "accounts",
          "type": "address[]"
        },
        {
          "internalType": "uint256[]",
          "name": "ids",
          "type": "uint256[]"
        }
      ],
      "name": "balanceOfBatch",
      "outputs": [
        {
          "internalType": "uint256[]",
          "name": "",
          "type": "uint256[]"
        }
      ],
      "stateMutability": "view",
      "type": "function"
    },
    {
      "inputs": [
        {
          "internalType": "address",
          "name": "account",
          "type": "address"
        },
        {
          "internalType": "uint256",
          "name": "id",
          "type": "uint256"
        },
        {
          "internalType": "uint256",
          "name": "value",
          "type": "uint256"
        }
      ],
      "name": "burn",
      "outputs": [],
      "stateMutability": "nonpayable",
      "type": "function"
    },
    {
      "inputs": [
        {
          "internalType": "address",
          "name": "account",
          "type": "address"
        },
        {
          "internalType": "uint256[]",
          "name": "ids",
          "type": "uint256[]"
        },
        {
          "internalType": "uint256[]",
          "name": "values",
          "type": "uint256[]"
        }
      ],
      "name": "burnBatch",
      "outputs": [],
      "stateMutability": "nonpayable",
      "type": "function"
    },
    {
      "inputs": [],
      "name": "checkUpkeep",
      "outputs": [
        {
          "internalType": "bool",
          "name": "needsUpkeep",
          "type": "bool"
        }
      ],
      "stateMutability": "view",
      "type": "function"
    },
    {
      "inputs": [],
      "name": "currentDate",
      "outputs": [
        {
          "internalType": "uint256",
          "name": "",
          "type": "uint256"
        }
      ],
      "stateMutability": "view",
      "type": "function"
    },
    {
      "inputs": [
        {
          "internalType": "uint256",
          "name": "id",
          "type": "uint256"
        }
      ],
      "name": "exists",
      "outputs": [
        {
          "internalType": "bool",
          "name": "",
          "type": "bool"
        }
      ],
      "stateMutability": "view",
      "type": "function"
    },
    {
      "inputs": [
        {
          "internalType": "address",
          "name": "account",
          "type": "address"
        },
        {
          "internalType": "address",
          "name": "operator",
          "type": "address"
        }
      ],
      "name": "isApprovedForAll",
      "outputs": [
        {
          "internalType": "bool",
          "name": "",
          "type": "bool"
        }
      ],
      "stateMutability": "view",
      "type": "function"
    },
    {
      "inputs": [
        {
          "internalType": "address",
          "name": "",
          "type": "address"
        }
      ],
      "name": "levelOfAccess",
      "outputs": [
        {
          "internalType": "enum characterNFT.accountPrivellege",
          "name": "",
          "type": "uint8"
        }
      ],
      "stateMutability": "view",
      "type": "function"
    },
    {
      "inputs": [
        {
          "internalType": "address",
          "name": "userToMakePremium",
          "type": "address"
        }
      ],
      "name": "makePremium",
      "outputs": [],
      "stateMutability": "nonpayable",
      "type": "function"
    },
    {
      "inputs": [],
      "name": "owner",
      "outputs": [
        {
          "internalType": "address",
          "name": "",
          "type": "address"
        }
      ],
      "stateMutability": "view",
      "type": "function"
    },
    {
      "inputs": [],
      "name": "performUpkeep",
      "outputs": [],
      "stateMutability": "nonpayable",
      "type": "function"
    },
    {
      "inputs": [],
      "name": "renounceOwnership",
      "outputs": [],
      "stateMutability": "nonpayable",
      "type": "function"
    },
    {
      "inputs": [
        {
          "internalType": "address",
          "name": "accountToReset",
          "type": "address"
        }
      ],
      "name": "resetToNewUser",
      "outputs": [],
      "stateMutability": "nonpayable",
      "type": "function"
    },
    {
      "inputs": [
        {
          "internalType": "address",
          "name": "from",
          "type": "address"
        },
        {
          "internalType": "address",
          "name": "to",
          "type": "address"
        },
        {
          "internalType": "uint256[]",
          "name": "ids",
          "type": "uint256[]"
        },
        {
          "internalType": "uint256[]",
          "name": "amounts",
          "type": "uint256[]"
        },
        {
          "internalType": "bytes",
          "name": "data",
          "type": "bytes"
        }
      ],
      "name": "safeBatchTransferFrom",
      "outputs": [],
      "stateMutability": "nonpayable",
      "type": "function"
    },
    {
      "inputs": [
        {
          "internalType": "address",
          "name": "from",
          "type": "address"
        },
        {
          "internalType": "address",
          "name": "to",
          "type": "address"
        },
        {
          "internalType": "uint256",
          "name": "id",
          "type": "uint256"
        },
        {
          "internalType": "uint256",
          "name": "amount",
          "type": "uint256"
        },
        {
          "internalType": "bytes",
          "name": "data",
          "type": "bytes"
        }
      ],
      "name": "safeTransferFrom",
      "outputs": [],
      "stateMutability": "nonpayable",
      "type": "function"
    },
    {
      "inputs": [
        {
          "internalType": "address",
          "name": "operator",
          "type": "address"
        },
        {
          "internalType": "bool",
          "name": "approved",
          "type": "bool"
        }
      ],
      "name": "setApprovalForAll",
      "outputs": [],
      "stateMutability": "nonpayable",
      "type": "function"
    },
    {
      "inputs": [
        {
          "internalType": "bytes4",
          "name": "interfaceId",
          "type": "bytes4"
        }
      ],
      "name": "supportsInterface",
      "outputs": [
        {
          "internalType": "bool",
          "name": "",
          "type": "bool"
        }
      ],
      "stateMutability": "view",
      "type": "function"
    },
    {
      "inputs": [
        {
          "internalType": "uint256",
          "name": "id",
          "type": "uint256"
        }
      ],
      "name": "totalSupply",
      "outputs": [
        {
          "internalType": "uint256",
          "name": "",
          "type": "uint256"
        }
      ],
      "stateMutability": "view",
      "type": "function"
    },
    {
      "inputs": [
        {
          "internalType": "address",
          "name": "newOwner",
          "type": "address"
        }
      ],
      "name": "transferOwnership",
      "outputs": [],
      "stateMutability": "nonpayable",
      "type": "function"
    },
    {
      "inputs": [
        {
          "internalType": "address",
          "name": "",
          "type": "address"
        }
      ],
      "name": "trialNFT",
      "outputs": [
        {
          "internalType": "uint256",
          "name": "mintDate4NFT",
          "type": "uint256"
        },
        {
          "internalType": "uint256",
          "name": "expireDate",
          "type": "uint256"
        }
      ],
      "stateMutability": "view",
      "type": "function"
    },
    {
      "inputs": [],
      "name": "trialNFTMint",
      "outputs": [],
      "stateMutability": "nonpayable",
      "type": "function"
    },
    {
      "inputs": [
        {
          "internalType": "uint256",
          "name": "",
          "type": "uint256"
        }
      ],
      "name": "uri",
      "outputs": [
        {
          "internalType": "string",
          "name": "",
          "type": "string"
        }
      ],
      "stateMutability": "view",
      "type": "function"
    }
  ],
  "bytecode": {
    "object": "0x6080604052426005553480156200001557600080fd5b50604051806060016040528060308152602001620024d3603091396200003b8162000067565b50620000473362000079565b336000908152600760205260409020805460ff191660021790556200023c565b600262000075828262000170565b5050565b600380546001600160a01b038381166001600160a01b0319831681179093556040519116919082907f8be0079c531659141344cd1fd0a4f28419497f9722a3daafe3b4186f6b6457e090600090a35050565b634e487b7160e01b600052604160045260246000fd5b600181811c90821680620000f657607f821691505b6020821081036200011757634e487b7160e01b600052602260045260246000fd5b50919050565b601f8211156200016b57600081815260208120601f850160051c81016020861015620001465750805b601f850160051c820191505b81811015620001675782815560010162000152565b5050505b505050565b81516001600160401b038111156200018c576200018c620000cb565b620001a4816200019d8454620000e1565b846200011d565b602080601f831160018114620001dc5760008415620001c35750858301515b600019600386901b1c1916600185901b17855562000167565b600085815260208120601f198616915b828110156200020d57888601518255948401946001909101908401620001ec565b50858210156200022c5787850151600019600388901b60f8161c191681555b5050505050600190811b01905550565b612287806200024c6000396000f3fe608060405234801561001057600080fd5b50600436106101575760003560e01c80638da5cb5b116100c3578063e985e9c51161007c578063e985e9c514610345578063ea43727114610381578063ef069fd614610389578063f242432a14610391578063f2fde38b146103a4578063f5298aca146103b757600080fd5b80638da5cb5b1461028b57806396df416c146102a65780639a131cc2146102b9578063a13abdad146102f5578063a22cb46514610312578063bd85b0391461032557600080fd5b80634e1273f4116101155780634e1273f41461021d5780634f558e791461023d5780634f99b7c51461025f5780636b20c454146102685780636e4d243a1461027b578063715018a61461028357600080fd5b8062fdd58e1461015c57806301ffc9a7146101825780630e89341c146101a5578063230415de146101c55780632eb2c2d6146101da5780633d8ad916146101ed575b600080fd5b61016f61016a36600461180f565b6103ca565b6040519081526020015b60405180910390f35b61019561019036600461184f565b610463565b6040519015158152602001610179565b6101b86101b3366004611873565b6104b3565b60405161017991906118d2565b6101d86101d33660046118e5565b610547565b005b6101d86101e8366004611a4c565b610570565b6102106101fb3660046118e5565b60076020526000908152604090205460ff1681565b6040516101799190611b0c565b61023061022b366004611b34565b6105bc565b6040516101799190611c3a565b61019561024b366004611873565b600090815260046020526040902054151590565b61016f60055481565b6101d8610276366004611c4d565b6106e6565b6101d861072e565b6101d86107a7565b6003546040516001600160a01b039091168152602001610179565b6101d86102b43660046118e5565b6107bb565b6102e06102c73660046118e5565b6006602052600090815260409020805460019091015482565b60408051928352602083019190915201610179565b600554336000908152600660205260409020600101541015610195565b6101d8610320366004611cc1565b610896565b61016f610333366004611873565b60009081526004602052604090205490565b610195610353366004611cfd565b6001600160a01b03918216600090815260016020908152604080832093909416825291909152205460ff1690565b61016f600081565b6101d86108a5565b6101d861039f366004611d30565b610a22565b6101d86103b23660046118e5565b610a67565b6101d86103c5366004611d95565b610add565b60006001600160a01b03831661043a5760405162461bcd60e51b815260206004820152602a60248201527f455243313135353a2061646472657373207a65726f206973206e6f742061207660448201526930b634b21037bbb732b960b11b60648201526084015b60405180910390fd5b506000818152602081815260408083206001600160a01b03861684529091529020545b92915050565b60006001600160e01b03198216636cdb3d1360e11b148061049457506001600160e01b031982166303a24d0760e21b145b8061045d57506301ffc9a760e01b6001600160e01b031983161461045d565b6060600280546104c290611dc8565b80601f01602080910402602001604051908101604052809291908181526020018280546104ee90611dc8565b801561053b5780601f106105105761010080835404028352916020019161053b565b820191906000526020600020905b81548152906001019060200180831161051e57829003601f168201915b50505050509050919050565b61054f610b20565b6001600160a01b03166000908152600760205260409020805460ff19169055565b6001600160a01b03851633148061058c575061058c8533610353565b6105a85760405162461bcd60e51b815260040161043190611e02565b6105b58585858585610b7a565b5050505050565b606081518351146106215760405162461bcd60e51b815260206004820152602960248201527f455243313135353a206163636f756e747320616e6420696473206c656e677468604482015268040dad2e6dac2e8c6d60bb1b6064820152608401610431565b6000835167ffffffffffffffff81111561063d5761063d611900565b604051908082528060200260200182016040528015610666578160200160208202803683370190505b50905060005b84518110156106de576106b185828151811061068a5761068a611e50565b60200260200101518583815181106106a4576106a4611e50565b60200260200101516103ca565b8282815181106106c3576106c3611e50565b60209081029190910101526106d781611e7c565b905061066c565b509392505050565b6001600160a01b03831633148061070257506107028333610353565b61071e5760405162461bcd60e51b815260040161043190611e02565b610729838383610d24565b505050565b600061074e60055433600090815260066020526040902060010154101590565b90506001811515146107975760405162461bcd60e51b81526020600482015260126024820152712ab835b2b2b8103737ba103732b2b232b21760711b6044820152606401610431565b6107a43360006001610ec1565b50565b6107af610b20565b6107b96000610fde565b565b8060016001600160a01b03821660009081526007602052604090205460ff1660028111156107eb576107eb611af6565b146108695760405162461bcd60e51b815260206004820152604260248201527f4e6f7420616e20657870657269656e63656420757365722c20706c656173652060448201527f6d696e74206120747269616c204e4654206265666f726520636f6e74696e75696064820152616e6760f01b608482015260a401610431565b610871610b20565b6001600160a01b03166000908152600760205260409020805460ff1916600217905550565b6108a1338383611030565b5050565b3360009081526007602052604081205460ff1660028111156108c9576108c9611af6565b1461093c5760405162461bcd60e51b815260206004820152603b60248201527f596f75277265206e6f742061206e657720757365722c206f6e6c792061206e6560448201527f7720757365722063616e206d696e74206120747269616c204e465400000000006064820152608401610431565b336000908152600660205260409020429081905560019061095e908290611e95565b336000818152600660209081526040808320600190810195909555805180820190915260048152633078313160e01b9181019190915261099e9390611110565b336001600160a01b03167f6e26ff1e96a6bcf2373f537221ff5228b4b664b60ad5b8ee090e857c93c960786040516109fd90602080825260139082015272151c9a585b08139195081a5cc81b5a5b9d1959606a1b604082015260600190565b60405180910390a250336000908152600760205260409020805460ff19166001179055565b6001600160a01b038516331480610a3e5750610a3e8533610353565b610a5a5760405162461bcd60e51b815260040161043190611e02565b6105b5858585858561122a565b610a6f610b20565b6001600160a01b038116610ad45760405162461bcd60e51b815260206004820152602660248201527f4f776e61626c653a206e6577206f776e657220697320746865207a65726f206160448201526564647265737360d01b6064820152608401610431565b6107a481610fde565b6001600160a01b038316331480610af95750610af98333610353565b610b155760405162461bcd60e51b815260040161043190611e02565b610729838383610ec1565b6003546001600160a01b031633146107b95760405162461bcd60e51b815260206004820181905260248201527f4f776e61626c653a2063616c6c6572206973206e6f7420746865206f776e65726044820152606401610431565b8151835114610b9b5760405162461bcd60e51b815260040161043190611ea8565b6001600160a01b038416610bc15760405162461bcd60e51b815260040161043190611ef0565b33610bd0818787878787611362565b60005b8451811015610cb6576000858281518110610bf057610bf0611e50565b602002602001015190506000858381518110610c0e57610c0e611e50565b602090810291909101810151600084815280835260408082206001600160a01b038e168352909352919091205490915081811015610c5e5760405162461bcd60e51b815260040161043190611f35565b6000838152602081815260408083206001600160a01b038e8116855292528083208585039055908b16825281208054849290610c9b908490611e95565b9250508190555050505080610caf90611e7c565b9050610bd3565b50846001600160a01b0316866001600160a01b0316826001600160a01b03167f4a39dc06d4c0dbc64b70af90fd698a233a518aa5d07e595d983b8c0526c8f7fb8787604051610d06929190611f7f565b60405180910390a4610d1c818787878787611419565b505050505050565b6001600160a01b038316610d4a5760405162461bcd60e51b815260040161043190611fad565b8051825114610d6b5760405162461bcd60e51b815260040161043190611ea8565b6000339050610d8e81856000868660405180602001604052806000815250611362565b60005b8351811015610e53576000848281518110610dae57610dae611e50565b602002602001015190506000848381518110610dcc57610dcc611e50565b602090810291909101810151600084815280835260408082206001600160a01b038c168352909352919091205490915081811015610e1c5760405162461bcd60e51b815260040161043190611ff0565b6000928352602083815260408085206001600160a01b038b1686529091529092209103905580610e4b81611e7c565b915050610d91565b5060006001600160a01b0316846001600160a01b0316826001600160a01b03167f4a39dc06d4c0dbc64b70af90fd698a233a518aa5d07e595d983b8c0526c8f7fb8686604051610ea4929190611f7f565b60405180910390a460408051602081019091526000905250505050565b6001600160a01b038316610ee75760405162461bcd60e51b815260040161043190611fad565b336000610ef384611574565b90506000610f0084611574565b9050610f2083876000858560405180602001604052806000815250611362565b6000858152602081815260408083206001600160a01b038a16845290915290205484811015610f615760405162461bcd60e51b815260040161043190611ff0565b6000868152602081815260408083206001600160a01b038b81168086529184528285208a8703905582518b81529384018a90529092908816917fc3d58168c5ae7397731d063d5bbf3d657854427343f4c083240f7aacaa2d0f62910160405180910390a46040805160208101909152600090525b50505050505050565b600380546001600160a01b038381166001600160a01b0319831681179093556040519116919082907f8be0079c531659141344cd1fd0a4f28419497f9722a3daafe3b4186f6b6457e090600090a35050565b816001600160a01b0316836001600160a01b0316036110a35760405162461bcd60e51b815260206004820152602960248201527f455243313135353a2073657474696e6720617070726f76616c20737461747573604482015268103337b91039b2b63360b91b6064820152608401610431565b6001600160a01b03838116600081815260016020908152604080832094871680845294825291829020805460ff191686151590811790915591519182527f17307eab39ab6107e8899845ad3d59bd9653f200f220920489ca2b5937696c31910160405180910390a3505050565b6001600160a01b0384166111705760405162461bcd60e51b815260206004820152602160248201527f455243313135353a206d696e7420746f20746865207a65726f206164647265736044820152607360f81b6064820152608401610431565b33600061117c85611574565b9050600061118985611574565b905061119a83600089858589611362565b6000868152602081815260408083206001600160a01b038b168452909152812080548792906111ca908490611e95565b909155505060408051878152602081018790526001600160a01b03808a1692600092918716917fc3d58168c5ae7397731d063d5bbf3d657854427343f4c083240f7aacaa2d0f62910160405180910390a4610fd5836000898989896115bf565b6001600160a01b0384166112505760405162461bcd60e51b815260040161043190611ef0565b33600061125c85611574565b9050600061126985611574565b9050611279838989858589611362565b6000868152602081815260408083206001600160a01b038c168452909152902054858110156112ba5760405162461bcd60e51b815260040161043190611f35565b6000878152602081815260408083206001600160a01b038d8116855292528083208985039055908a168252812080548892906112f7908490611e95565b909155505060408051888152602081018890526001600160a01b03808b16928c821692918816917fc3d58168c5ae7397731d063d5bbf3d657854427343f4c083240f7aacaa2d0f62910160405180910390a4611357848a8a8a8a8a6115bf565b505050505050505050565b61137086868686868661167a565b3360009081526007602052604090205460029060ff168181111561139657611396611af6565b146113c7576001600160a01b038516156113c25760405162461bcd60e51b815260040161043190612034565b610d1c565b3360009081526007602052604090205460029060ff16818111156113ed576113ed611af6565b14610d1c576001600160a01b03841615610d1c5760405162461bcd60e51b815260040161043190612034565b6001600160a01b0384163b15610d1c5760405163bc197c8160e01b81526001600160a01b0385169063bc197c819061145d90899089908890889088906004016120a3565b6020604051808303816000875af1925050508015611498575060408051601f3d908101601f1916820190925261149591810190612101565b60015b611544576114a461211e565b806308c379a0036114dd57506114b861213a565b806114c357506114df565b8060405162461bcd60e51b815260040161043191906118d2565b505b60405162461bcd60e51b815260206004820152603460248201527f455243313135353a207472616e7366657220746f206e6f6e2d455243313135356044820152732932b1b2b4bb32b91034b6b83632b6b2b73a32b960611b6064820152608401610431565b6001600160e01b0319811663bc197c8160e01b14610fd55760405162461bcd60e51b8152600401610431906121c4565b604080516001808252818301909252606091600091906020808301908036833701905050905082816000815181106115ae576115ae611e50565b602090810291909101015292915050565b6001600160a01b0384163b15610d1c5760405163f23a6e6160e01b81526001600160a01b0385169063f23a6e6190611603908990899088908890889060040161220c565b6020604051808303816000875af192505050801561163e575060408051601f3d908101601f1916820190925261163b91810190612101565b60015b61164a576114a461211e565b6001600160e01b0319811663f23a6e6160e01b14610fd55760405162461bcd60e51b8152600401610431906121c4565b6001600160a01b0385166117015760005b83518110156116ff578281815181106116a6576116a6611e50565b6020026020010151600460008684815181106116c4576116c4611e50565b6020026020010151815260200190815260200160002060008282546116e99190611e95565b909155506116f8905081611e7c565b905061168b565b505b6001600160a01b038416610d1c5760005b8351811015610fd557600084828151811061172f5761172f611e50565b60200260200101519050600084838151811061174d5761174d611e50565b60200260200101519050600060046000848152602001908152602001600020549050818110156117d05760405162461bcd60e51b815260206004820152602860248201527f455243313135353a206275726e20616d6f756e74206578636565647320746f74604482015267616c537570706c7960c01b6064820152608401610431565b600092835260046020526040909220910390556117ec81611e7c565b9050611712565b80356001600160a01b038116811461180a57600080fd5b919050565b6000806040838503121561182257600080fd5b61182b836117f3565b946020939093013593505050565b6001600160e01b0319811681146107a457600080fd5b60006020828403121561186157600080fd5b813561186c81611839565b9392505050565b60006020828403121561188557600080fd5b5035919050565b6000815180845260005b818110156118b257602081850181015186830182015201611896565b506000602082860101526020601f19601f83011685010191505092915050565b60208152600061186c602083018461188c565b6000602082840312156118f757600080fd5b61186c826117f3565b634e487b7160e01b600052604160045260246000fd5b601f8201601f1916810167ffffffffffffffff8111828210171561193c5761193c611900565b6040525050565b600067ffffffffffffffff82111561195d5761195d611900565b5060051b60200190565b600082601f83011261197857600080fd5b8135602061198582611943565b6040516119928282611916565b83815260059390931b85018201928281019150868411156119b257600080fd5b8286015b848110156119cd57803583529183019183016119b6565b509695505050505050565b600082601f8301126119e957600080fd5b813567ffffffffffffffff811115611a0357611a03611900565b604051611a1a601f8301601f191660200182611916565b818152846020838601011115611a2f57600080fd5b816020850160208301376000918101602001919091529392505050565b600080600080600060a08688031215611a6457600080fd5b611a6d866117f3565b9450611a7b602087016117f3565b9350604086013567ffffffffffffffff80821115611a9857600080fd5b611aa489838a01611967565b94506060880135915080821115611aba57600080fd5b611ac689838a01611967565b93506080880135915080821115611adc57600080fd5b50611ae9888289016119d8565b9150509295509295909350565b634e487b7160e01b600052602160045260246000fd5b6020810160038310611b2e57634e487b7160e01b600052602160045260246000fd5b91905290565b60008060408385031215611b4757600080fd5b823567ffffffffffffffff80821115611b5f57600080fd5b818501915085601f830112611b7357600080fd5b81356020611b8082611943565b604051611b8d8282611916565b83815260059390931b8501820192828101915089841115611bad57600080fd5b948201945b83861015611bd257611bc3866117f3565b82529482019490820190611bb2565b96505086013592505080821115611be857600080fd5b50611bf585828601611967565b9150509250929050565b600081518084526020808501945080840160005b83811015611c2f57815187529582019590820190600101611c13565b509495945050505050565b60208152600061186c6020830184611bff565b600080600060608486031215611c6257600080fd5b611c6b846117f3565b9250602084013567ffffffffffffffff80821115611c8857600080fd5b611c9487838801611967565b93506040860135915080821115611caa57600080fd5b50611cb786828701611967565b9150509250925092565b60008060408385031215611cd457600080fd5b611cdd836117f3565b915060208301358015158114611cf257600080fd5b809150509250929050565b60008060408385031215611d1057600080fd5b611d19836117f3565b9150611d27602084016117f3565b90509250929050565b600080600080600060a08688031215611d4857600080fd5b611d51866117f3565b9450611d5f602087016117f3565b93506040860135925060608601359150608086013567ffffffffffffffff811115611d8957600080fd5b611ae9888289016119d8565b600080600060608486031215611daa57600080fd5b611db3846117f3565b95602085013595506040909401359392505050565b600181811c90821680611ddc57607f821691505b602082108103611dfc57634e487b7160e01b600052602260045260246000fd5b50919050565b6020808252602e908201527f455243313135353a2063616c6c6572206973206e6f7420746f6b656e206f776e60408201526d195c881bdc88185c1c1c9bdd995960921b606082015260800190565b634e487b7160e01b600052603260045260246000fd5b634e487b7160e01b600052601160045260246000fd5b600060018201611e8e57611e8e611e66565b5060010190565b8082018082111561045d5761045d611e66565b60208082526028908201527f455243313135353a2069647320616e6420616d6f756e7473206c656e677468206040820152670dad2e6dac2e8c6d60c31b606082015260800190565b60208082526025908201527f455243313135353a207472616e7366657220746f20746865207a65726f206164604082015264647265737360d81b606082015260800190565b6020808252602a908201527f455243313135353a20696e73756666696369656e742062616c616e636520666f60408201526939103a3930b739b332b960b11b606082015260800190565b604081526000611f926040830185611bff565b8281036020840152611fa48185611bff565b95945050505050565b60208082526023908201527f455243313135353a206275726e2066726f6d20746865207a65726f206164647260408201526265737360e81b606082015260800190565b60208082526024908201527f455243313135353a206275726e20616d6f756e7420657863656564732062616c604082015263616e636560e01b606082015260800190565b60208082526049908201527f5468697320746f6b656e2063616e206e6f74206265207472616e73666572726560408201527f642c20506c65617365207570677261646520746f206d616b65206974207472616060820152686e7366657261626c6560b81b608082015260a00190565b6001600160a01b0386811682528516602082015260a0604082018190526000906120cf90830186611bff565b82810360608401526120e18186611bff565b905082810360808401526120f5818561188c565b98975050505050505050565b60006020828403121561211357600080fd5b815161186c81611839565b600060033d11156121375760046000803e5060005160e01c5b90565b600060443d10156121485790565b6040516003193d81016004833e81513d67ffffffffffffffff816024840111818411171561217857505050505090565b82850191508151818111156121905750505050505090565b843d87010160208285010111156121aa5750505050505090565b6121b960208286010187611916565b509095945050505050565b60208082526028908201527f455243313135353a204552433131353552656365697665722072656a656374656040820152676420746f6b656e7360c01b606082015260800190565b6001600160a01b03868116825285166020820152604081018490526060810183905260a0608082018190526000906122469083018461188c565b97965050505050505056fea2646970667358221220b9c1cb6a9b9a9f42193aeed60ebfde172a601d3f46d8a15d330a79a3fe8cfb8264736f6c63430008110033687474703a2f2f3132372e302e302e313a353530302f6170692f6368617261637465724e46542f7b69647d2e6a736f6e",
    "linkReferences": {}
  },
  "methodIdentifiers": {
    "TRIALNFTID()": "ea437271",
    "balanceOf(address,uint256)": "00fdd58e",
    "balanceOfBatch(address[],uint256[])": "4e1273f4",
    "burn(address,uint256,uint256)": "f5298aca",
    "burnBatch(address,uint256[],uint256[])": "6b20c454",
    "checkUpkeep()": "a13abdad",
    "currentDate()": "4f99b7c5",
    "exists(uint256)": "4f558e79",
    "isApprovedForAll(address,address)": "e985e9c5",
    "levelOfAccess(address)": "3d8ad916",
    "makePremium(address)": "96df416c",
    "owner()": "8da5cb5b",
    "performUpkeep()": "6e4d243a",
    "renounceOwnership()": "715018a6",
    "resetToNewUser(address)": "230415de",
    "safeBatchTransferFrom(address,address,uint256[],uint256[],bytes)": "2eb2c2d6",
    "safeTransferFrom(address,address,uint256,uint256,bytes)": "f242432a",
    "setApprovalForAll(address,bool)": "a22cb465",
    "supportsInterface(bytes4)": "01ffc9a7",
    "totalSupply(uint256)": "bd85b039",
    "transferOwnership(address)": "f2fde38b",
    "trialNFT(address)": "9a131cc2",
    "trialNFTMint()": "ef069fd6",
    "uri(uint256)": "0e89341c"
  },
  "id": 19
}