{
  "abi": [
    {
      "inputs": [],
      "stateMutability": "nonpayable",
      "type": "constructor"
    },
    {
      "anonymous": false,
      "inputs": [
        {
          "indexed": true,
          "internalType": "address",
          "name": "account",
          "type": "address"
        },
        {
          "indexed": true,
          "internalType": "address",
          "name": "operator",
          "type": "address"
        },
        {
          "indexed": false,
          "internalType": "bool",
          "name": "approved",
          "type": "bool"
        }
      ],
      "name": "ApprovalForAll",
      "type": "event"
    },
    {
      "anonymous": false,
      "inputs": [
        {
          "indexed": true,
          "internalType": "address",
          "name": "to",
          "type": "address"
        },
        {
          "indexed": true,
          "internalType": "uint256",
          "name": "tokenId",
          "type": "uint256"
        }
      ],
      "name": "Attest",
      "type": "event"
    },
    {
      "anonymous": false,
      "inputs": [
        {
          "indexed": true,
          "internalType": "address",
          "name": "account",
          "type": "address"
        },
        {
          "indexed": false,
          "internalType": "string",
          "name": "message",
          "type": "string"
        }
      ],
      "name": "NFTIsMinted",
      "type": "event"
    },
    {
      "anonymous": false,
      "inputs": [
        {
          "indexed": true,
          "internalType": "address",
          "name": "previousOwner",
          "type": "address"
        },
        {
          "indexed": true,
          "internalType": "address",
          "name": "newOwner",
          "type": "address"
        }
      ],
      "name": "OwnershipTransferred",
      "type": "event"
    },
    {
      "anonymous": false,
      "inputs": [
        {
          "indexed": true,
          "internalType": "address",
          "name": "operator",
          "type": "address"
        },
        {
          "indexed": true,
          "internalType": "address",
          "name": "from",
          "type": "address"
        },
        {
          "indexed": true,
          "internalType": "address",
          "name": "to",
          "type": "address"
        },
        {
          "indexed": false,
          "internalType": "uint256[]",
          "name": "ids",
          "type": "uint256[]"
        },
        {
          "indexed": false,
          "internalType": "uint256[]",
          "name": "values",
          "type": "uint256[]"
        }
      ],
      "name": "TransferBatch",
      "type": "event"
    },
    {
      "anonymous": false,
      "inputs": [
        {
          "indexed": true,
          "internalType": "address",
          "name": "operator",
          "type": "address"
        },
        {
          "indexed": true,
          "internalType": "address",
          "name": "from",
          "type": "address"
        },
        {
          "indexed": true,
          "internalType": "address",
          "name": "to",
          "type": "address"
        },
        {
          "indexed": false,
          "internalType": "uint256",
          "name": "id",
          "type": "uint256"
        },
        {
          "indexed": false,
          "internalType": "uint256",
          "name": "value",
          "type": "uint256"
        }
      ],
      "name": "TransferSingle",
      "type": "event"
    },
    {
      "anonymous": false,
      "inputs": [
        {
          "indexed": false,
          "internalType": "string",
          "name": "value",
          "type": "string"
        },
        {
          "indexed": true,
          "internalType": "uint256",
          "name": "id",
          "type": "uint256"
        }
      ],
      "name": "URI",
      "type": "event"
    },
    {
      "anonymous": false,
      "inputs": [
        {
          "indexed": true,
          "internalType": "address",
          "name": "account",
          "type": "address"
        },
        {
          "indexed": false,
          "internalType": "string",
          "name": "message",
          "type": "string"
        }
      ],
      "name": "trialNFTIsMinted",
      "type": "event"
    },
    {
      "inputs": [
        {
          "internalType": "address",
          "name": "account",
          "type": "address"
        },
        {
          "internalType": "uint256",
          "name": "id",
          "type": "uint256"
        }
      ],
      "name": "balanceOf",
      "outputs": [
        {
          "internalType": "uint256",
          "name": "",
          "type": "uint256"
        }
      ],
      "stateMutability": "view",
      "type": "function"
    },
    {
      "inputs": [
        {
          "internalType": "address[]",
          "name": "accounts",
          "type": "address[]"
        },
        {
          "internalType": "uint256[]",
          "name": "ids",
          "type": "uint256[]"
        }
      ],
      "name": "balanceOfBatch",
      "outputs": [
        {
          "internalType": "uint256[]",
          "name": "",
          "type": "uint256[]"
        }
      ],
      "stateMutability": "view",
      "type": "function"
    },
    {
      "inputs": [
        {
          "internalType": "address",
          "name": "account",
          "type": "address"
        },
        {
          "internalType": "uint256",
          "name": "id",
          "type": "uint256"
        },
        {
          "internalType": "uint256",
          "name": "value",
          "type": "uint256"
        }
      ],
      "name": "burn",
      "outputs": [],
      "stateMutability": "nonpayable",
      "type": "function"
    },
    {
      "inputs": [
        {
          "internalType": "address",
          "name": "account",
          "type": "address"
        },
        {
          "internalType": "uint256[]",
          "name": "ids",
          "type": "uint256[]"
        },
        {
          "internalType": "uint256[]",
          "name": "values",
          "type": "uint256[]"
        }
      ],
      "name": "burnBatch",
      "outputs": [],
      "stateMutability": "nonpayable",
      "type": "function"
    },
    {
      "inputs": [
        {
          "internalType": "uint256",
          "name": "id",
          "type": "uint256"
        }
      ],
      "name": "exists",
      "outputs": [
        {
          "internalType": "bool",
          "name": "",
          "type": "bool"
        }
      ],
      "stateMutability": "view",
      "type": "function"
    },
    {
      "inputs": [
        {
          "internalType": "address",
          "name": "account",
          "type": "address"
        },
        {
          "internalType": "address",
          "name": "operator",
          "type": "address"
        }
      ],
      "name": "isApprovedForAll",
      "outputs": [
        {
          "internalType": "bool",
          "name": "",
          "type": "bool"
        }
      ],
      "stateMutability": "view",
      "type": "function"
    },
    {
      "inputs": [],
      "name": "level",
      "outputs": [
        {
          "internalType": "uint8",
          "name": "",
          "type": "uint8"
        }
      ],
      "stateMutability": "view",
      "type": "function"
    },
    {
      "inputs": [
        {
          "internalType": "address",
          "name": "",
          "type": "address"
        }
      ],
      "name": "levelOfAccess",
      "outputs": [
        {
          "internalType": "bool",
          "name": "isExperiencedUser",
          "type": "bool"
        },
        {
          "internalType": "bool",
          "name": "isPremiumUser",
          "type": "bool"
        }
      ],
      "stateMutability": "view",
      "type": "function"
    },
    {
      "inputs": [],
      "name": "makePremium",
      "outputs": [],
      "stateMutability": "nonpayable",
      "type": "function"
    },
    {
      "inputs": [
        {
          "internalType": "address",
          "name": "distributorAddress",
          "type": "address"
        },
        {
          "internalType": "uint256",
          "name": "id",
          "type": "uint256"
        },
        {
          "internalType": "uint256",
          "name": "amount",
          "type": "uint256"
        },
        {
          "internalType": "bytes",
          "name": "data",
          "type": "bytes"
        }
      ],
      "name": "mint",
      "outputs": [],
      "stateMutability": "nonpayable",
      "type": "function"
    },
    {
      "inputs": [
        {
          "internalType": "address",
          "name": "to",
          "type": "address"
        },
        {
          "internalType": "uint256[]",
          "name": "ids",
          "type": "uint256[]"
        },
        {
          "internalType": "uint256[]",
          "name": "amounts",
          "type": "uint256[]"
        },
        {
          "internalType": "bytes",
          "name": "data",
          "type": "bytes"
        }
      ],
      "name": "mintBatch",
      "outputs": [],
      "stateMutability": "nonpayable",
      "type": "function"
    },
    {
      "inputs": [],
      "name": "owner",
      "outputs": [
        {
          "internalType": "address",
          "name": "",
          "type": "address"
        }
      ],
      "stateMutability": "view",
      "type": "function"
    },
    {
      "inputs": [],
      "name": "renounceOwnership",
      "outputs": [],
      "stateMutability": "nonpayable",
      "type": "function"
    },
    {
      "inputs": [
        {
          "internalType": "address",
          "name": "accountToReset",
          "type": "address"
        }
      ],
      "name": "resetToNewUser",
      "outputs": [],
      "stateMutability": "nonpayable",
      "type": "function"
    },
    {
      "inputs": [
        {
          "internalType": "address",
          "name": "from",
          "type": "address"
        },
        {
          "internalType": "address",
          "name": "to",
          "type": "address"
        },
        {
          "internalType": "uint256[]",
          "name": "ids",
          "type": "uint256[]"
        },
        {
          "internalType": "uint256[]",
          "name": "amounts",
          "type": "uint256[]"
        },
        {
          "internalType": "bytes",
          "name": "data",
          "type": "bytes"
        }
      ],
      "name": "safeBatchTransferFrom",
      "outputs": [],
      "stateMutability": "nonpayable",
      "type": "function"
    },
    {
      "inputs": [
        {
          "internalType": "address",
          "name": "from",
          "type": "address"
        },
        {
          "internalType": "address",
          "name": "to",
          "type": "address"
        },
        {
          "internalType": "uint256",
          "name": "id",
          "type": "uint256"
        },
        {
          "internalType": "uint256",
          "name": "amount",
          "type": "uint256"
        },
        {
          "internalType": "bytes",
          "name": "data",
          "type": "bytes"
        }
      ],
      "name": "safeTransferFrom",
      "outputs": [],
      "stateMutability": "nonpayable",
      "type": "function"
    },
    {
      "inputs": [
        {
          "internalType": "address",
          "name": "operator",
          "type": "address"
        },
        {
          "internalType": "bool",
          "name": "approved",
          "type": "bool"
        }
      ],
      "name": "setApprovalForAll",
      "outputs": [],
      "stateMutability": "nonpayable",
      "type": "function"
    },
    {
      "inputs": [
        {
          "internalType": "bytes4",
          "name": "interfaceId",
          "type": "bytes4"
        }
      ],
      "name": "supportsInterface",
      "outputs": [
        {
          "internalType": "bool",
          "name": "",
          "type": "bool"
        }
      ],
      "stateMutability": "view",
      "type": "function"
    },
    {
      "inputs": [
        {
          "internalType": "uint256",
          "name": "id",
          "type": "uint256"
        }
      ],
      "name": "totalSupply",
      "outputs": [
        {
          "internalType": "uint256",
          "name": "",
          "type": "uint256"
        }
      ],
      "stateMutability": "view",
      "type": "function"
    },
    {
      "inputs": [
        {
          "internalType": "address",
          "name": "newOwner",
          "type": "address"
        }
      ],
      "name": "transferOwnership",
      "outputs": [],
      "stateMutability": "nonpayable",
      "type": "function"
    },
    {
      "inputs": [
        {
          "internalType": "uint256",
          "name": "id",
          "type": "uint256"
        },
        {
          "internalType": "uint256",
          "name": "amount",
          "type": "uint256"
        },
        {
          "internalType": "bytes",
          "name": "data",
          "type": "bytes"
        }
      ],
      "name": "trialNFTMint",
      "outputs": [],
      "stateMutability": "nonpayable",
      "type": "function"
    },
    {
      "inputs": [
        {
          "internalType": "uint256",
          "name": "",
          "type": "uint256"
        }
      ],
      "name": "uri",
      "outputs": [
        {
          "internalType": "string",
          "name": "",
          "type": "string"
        }
      ],
      "stateMutability": "view",
      "type": "function"
    }
  ],
  "bytecode": {
    "object": "0x60806040526005805460ff191690553480156200001b57600080fd5b50604051806060016040528060308152602001620025c860309139620000418162000053565b506200004d3362000065565b62000228565b60026200006182826200015c565b5050565b600380546001600160a01b038381166001600160a01b0319831681179093556040519116919082907f8be0079c531659141344cd1fd0a4f28419497f9722a3daafe3b4186f6b6457e090600090a35050565b634e487b7160e01b600052604160045260246000fd5b600181811c90821680620000e257607f821691505b6020821081036200010357634e487b7160e01b600052602260045260246000fd5b50919050565b601f8211156200015757600081815260208120601f850160051c81016020861015620001325750805b601f850160051c820191505b8181101562000153578281556001016200013e565b5050505b505050565b81516001600160401b03811115620001785762000178620000b7565b6200019081620001898454620000cd565b8462000109565b602080601f831160018114620001c85760008415620001af5750858301515b600019600386901b1c1916600185901b17855562000153565b600085815260208120601f198616915b82811015620001f957888601518255948401946001909101908401620001d8565b5085821015620002185787850151600019600388901b60f8161c191681555b5050505050600190811b01905550565b61239080620002386000396000f3fe608060405234801561001057600080fd5b50600436106101415760003560e01c8063715018a6116100b8578063bd85b0391161007c578063bd85b039146102f2578063e985e9c514610312578063f242432a1461034e578063f2fde38b14610361578063f5298aca14610374578063f76987381461038757600080fd5b8063715018a6146102a1578063731133e9146102a95780637f2575a1146102bc5780638da5cb5b146102c4578063a22cb465146102df57600080fd5b80632eb2c2d61161010a5780632eb2c2d6146101d75780633d8ad916146101ea5780634e1273f41461022d5780634f558e791461024d5780636b20c4541461026f5780636fd5ae151461028257600080fd5b8062fdd58e1461014657806301ffc9a71461016c5780630e89341c1461018f5780631f7fdffa146101af578063230415de146101c4575b600080fd5b610159610154366004611850565b61039a565b6040519081526020015b60405180910390f35b61017f61017a366004611890565b610433565b6040519015158152602001610163565b6101a261019d3660046118b4565b610483565b6040516101639190611913565b6101c26101bd366004611a72565b610517565b005b6101c26101d2366004611b0b565b610531565b6101c26101e5366004611b26565b61055a565b6102166101f8366004611b0b565b60066020526000908152604090205460ff8082169161010090041682565b604080519215158352901515602083015201610163565b61024061023b366004611bd0565b6105a6565b6040516101639190611cd6565b61017f61025b3660046118b4565b600090815260046020526040902054151590565b6101c261027d366004611ce9565b6106d0565b60055461028f9060ff1681565b60405160ff9091168152602001610163565b6101c2610718565b6101c26102b7366004611d5d565b61072c565b6101c26107a6565b6003546040516001600160a01b039091168152602001610163565b6101c26102ed366004611db2565b610849565b6101596103003660046118b4565b60009081526004602052604090205490565b61017f610320366004611dee565b6001600160a01b03918216600090815260016020908152604080832093909416825291909152205460ff1690565b6101c261035c366004611e21565b610858565b6101c261036f366004611b0b565b61089d565b6101c2610382366004611e86565b610916565b6101c2610395366004611eb9565b610959565b60006001600160a01b03831661040a5760405162461bcd60e51b815260206004820152602a60248201527f455243313135353a2061646472657373207a65726f206973206e6f742061207660448201526930b634b21037bbb732b960b11b60648201526084015b60405180910390fd5b506000818152602081815260408083206001600160a01b03861684529091529020545b92915050565b60006001600160e01b03198216636cdb3d1360e11b148061046457506001600160e01b031982166303a24d0760e21b145b8061042d57506301ffc9a760e01b6001600160e01b031983161461042d565b60606002805461049290611eff565b80601f01602080910402602001604051908101604052809291908181526020018280546104be90611eff565b801561050b5780601f106104e05761010080835404028352916020019161050b565b820191906000526020600020905b8154815290600101906020018083116104ee57829003601f168201915b50505050509050919050565b61051f610a3c565b61052b84848484610a96565b50505050565b610539610a3c565b6001600160a01b03166000908152600660205260409020805460ff19169055565b6001600160a01b03851633148061057657506105768533610320565b6105925760405162461bcd60e51b815260040161040190611f39565b61059f8585858585610bf0565b5050505050565b6060815183511461060b5760405162461bcd60e51b815260206004820152602960248201527f455243313135353a206163636f756e747320616e6420696473206c656e677468604482015268040dad2e6dac2e8c6d60bb1b6064820152608401610401565b6000835167ffffffffffffffff81111561062757610627611926565b604051908082528060200260200182016040528015610650578160200160208202803683370190505b50905060005b84518110156106c85761069b85828151811061067457610674611f87565b602002602001015185838151811061068e5761068e611f87565b602002602001015161039a565b8282815181106106ad576106ad611f87565b60209081029190910101526106c181611fb3565b9050610656565b509392505050565b6001600160a01b0383163314806106ec57506106ec8333610320565b6107085760405162461bcd60e51b815260040161040190611f39565b610713838383610d9a565b505050565b610720610a3c565b61072a6000610f36565b565b610734610a3c565b61074084848484610f88565b336001600160a01b03167e532d1a87c33d088154a519b027467ef3a25af9a8dec0d8f4e9b5fb143fbb0d604051610798906020808252600d908201526c139195081a5cc81b5a5b9d1959609a1b604082015260600190565b60405180910390a250505050565b3360009081526006602052604090205460ff16151560011480156107df575033600090815260066020526040902054610100900460ff16155b61082b5760405162461bcd60e51b815260206004820152601760248201527f4e6f7420616e20657870657269656e63656420757365720000000000000000006044820152606401610401565b336000908152600660205260409020805461ff001916610100179055565b610854338383611071565b5050565b6001600160a01b03851633148061087457506108748533610320565b6108905760405162461bcd60e51b815260040161040190611f39565b61059f8585858585611151565b6108a5610a3c565b6001600160a01b03811661090a5760405162461bcd60e51b815260206004820152602660248201527f4f776e61626c653a206e6577206f776e657220697320746865207a65726f206160448201526564647265737360d01b6064820152608401610401565b61091381610f36565b50565b6001600160a01b03831633148061093257506109328333610320565b61094e5760405162461bcd60e51b815260040161040190611f39565b610713838383611289565b3360009081526006602052604090205460ff16156109aa5760405162461bcd60e51b815260206004820152600e60248201526d2737ba1030903732bb903ab9b2b960911b6044820152606401610401565b6109b633848484610f88565b336001600160a01b03167f6e26ff1e96a6bcf2373f537221ff5228b4b664b60ad5b8ee090e857c93c96078604051610a1590602080825260139082015272151c9a585b08139195081a5cc81b5a5b9d1959606a1b604082015260600190565b60405180910390a25050336000908152600660205260409020805460ff1916600117905550565b6003546001600160a01b0316331461072a5760405162461bcd60e51b815260206004820181905260248201527f4f776e61626c653a2063616c6c6572206973206e6f7420746865206f776e65726044820152606401610401565b6001600160a01b038416610abc5760405162461bcd60e51b815260040161040190611fcc565b8151835114610add5760405162461bcd60e51b81526004016104019061200d565b33610aed816000878787876113a1565b60005b8451811015610b8857838181518110610b0b57610b0b611f87565b6020026020010151600080878481518110610b2857610b28611f87565b602002602001015181526020019081526020016000206000886001600160a01b03166001600160a01b031681526020019081526020016000206000828254610b709190612055565b90915550819050610b8081611fb3565b915050610af0565b50846001600160a01b031660006001600160a01b0316826001600160a01b03167f4a39dc06d4c0dbc64b70af90fd698a233a518aa5d07e595d983b8c0526c8f7fb8787604051610bd9929190612068565b60405180910390a461059f8160008787878761145a565b8151835114610c115760405162461bcd60e51b81526004016104019061200d565b6001600160a01b038416610c375760405162461bcd60e51b815260040161040190612096565b33610c468187878787876113a1565b60005b8451811015610d2c576000858281518110610c6657610c66611f87565b602002602001015190506000858381518110610c8457610c84611f87565b602090810291909101810151600084815280835260408082206001600160a01b038e168352909352919091205490915081811015610cd45760405162461bcd60e51b8152600401610401906120db565b6000838152602081815260408083206001600160a01b038e8116855292528083208585039055908b16825281208054849290610d11908490612055565b9250508190555050505080610d2590611fb3565b9050610c49565b50846001600160a01b0316866001600160a01b0316826001600160a01b03167f4a39dc06d4c0dbc64b70af90fd698a233a518aa5d07e595d983b8c0526c8f7fb8787604051610d7c929190612068565b60405180910390a4610d9281878787878761145a565b505050505050565b6001600160a01b038316610dc05760405162461bcd60e51b815260040161040190612125565b8051825114610de15760405162461bcd60e51b81526004016104019061200d565b6000339050610e04818560008686604051806020016040528060008152506113a1565b60005b8351811015610ec9576000848281518110610e2457610e24611f87565b602002602001015190506000848381518110610e4257610e42611f87565b602090810291909101810151600084815280835260408082206001600160a01b038c168352909352919091205490915081811015610e925760405162461bcd60e51b815260040161040190612168565b6000928352602083815260408085206001600160a01b038b1686529091529092209103905580610ec181611fb3565b915050610e07565b5060006001600160a01b0316846001600160a01b0316826001600160a01b03167f4a39dc06d4c0dbc64b70af90fd698a233a518aa5d07e595d983b8c0526c8f7fb8686604051610f1a929190612068565b60405180910390a460408051602081019091526000905261052b565b600380546001600160a01b038381166001600160a01b0319831681179093556040519116919082907f8be0079c531659141344cd1fd0a4f28419497f9722a3daafe3b4186f6b6457e090600090a35050565b6001600160a01b038416610fae5760405162461bcd60e51b815260040161040190611fcc565b336000610fba856115b5565b90506000610fc7856115b5565b9050610fd8836000898585896113a1565b6000868152602081815260408083206001600160a01b038b16845290915281208054879290611008908490612055565b909155505060408051878152602081018790526001600160a01b03808a1692600092918716917fc3d58168c5ae7397731d063d5bbf3d657854427343f4c083240f7aacaa2d0f62910160405180910390a461106883600089898989611600565b50505050505050565b816001600160a01b0316836001600160a01b0316036110e45760405162461bcd60e51b815260206004820152602960248201527f455243313135353a2073657474696e6720617070726f76616c20737461747573604482015268103337b91039b2b63360b91b6064820152608401610401565b6001600160a01b03838116600081815260016020908152604080832094871680845294825291829020805460ff191686151590811790915591519182527f17307eab39ab6107e8899845ad3d59bd9653f200f220920489ca2b5937696c31910160405180910390a3505050565b6001600160a01b0384166111775760405162461bcd60e51b815260040161040190612096565b336000611183856115b5565b90506000611190856115b5565b90506111a08389898585896113a1565b6000868152602081815260408083206001600160a01b038c168452909152902054858110156111e15760405162461bcd60e51b8152600401610401906120db565b6000878152602081815260408083206001600160a01b038d8116855292528083208985039055908a1682528120805488929061121e908490612055565b909155505060408051888152602081018890526001600160a01b03808b16928c821692918816917fc3d58168c5ae7397731d063d5bbf3d657854427343f4c083240f7aacaa2d0f62910160405180910390a461127e848a8a8a8a8a611600565b505050505050505050565b6001600160a01b0383166112af5760405162461bcd60e51b815260040161040190612125565b3360006112bb846115b5565b905060006112c8846115b5565b90506112e8838760008585604051806020016040528060008152506113a1565b6000858152602081815260408083206001600160a01b038a168452909152902054848110156113295760405162461bcd60e51b815260040161040190612168565b6000868152602081815260408083206001600160a01b038b81168086529184528285208a8703905582518b81529384018a90529092908816917fc3d58168c5ae7397731d063d5bbf3d657854427343f4c083240f7aacaa2d0f62910160405180910390a4604080516020810190915260009052611068565b6113af8686868686866116bb565b33600090815260066020526040812054610100900460ff1615159003610d92576001600160a01b03851615610d925760405162461bcd60e51b815260206004820152604560248201527f5468697320746f6b656e2063616e206f6e6c79206265206d696e7465642c205060448201527f6c65617365207570677261646520746f206d616b65206974207472616e7366656064820152647261626c6560d81b608482015260a401610401565b6001600160a01b0384163b15610d925760405163bc197c8160e01b81526001600160a01b0385169063bc197c819061149e90899089908890889088906004016121ac565b6020604051808303816000875af19250505080156114d9575060408051601f3d908101601f191682019092526114d69181019061220a565b60015b611585576114e5612227565b806308c379a00361151e57506114f9612243565b806115045750611520565b8060405162461bcd60e51b81526004016104019190611913565b505b60405162461bcd60e51b815260206004820152603460248201527f455243313135353a207472616e7366657220746f206e6f6e2d455243313135356044820152732932b1b2b4bb32b91034b6b83632b6b2b73a32b960611b6064820152608401610401565b6001600160e01b0319811663bc197c8160e01b146110685760405162461bcd60e51b8152600401610401906122cd565b604080516001808252818301909252606091600091906020808301908036833701905050905082816000815181106115ef576115ef611f87565b602090810291909101015292915050565b6001600160a01b0384163b15610d925760405163f23a6e6160e01b81526001600160a01b0385169063f23a6e61906116449089908990889088908890600401612315565b6020604051808303816000875af192505050801561167f575060408051601f3d908101601f1916820190925261167c9181019061220a565b60015b61168b576114e5612227565b6001600160e01b0319811663f23a6e6160e01b146110685760405162461bcd60e51b8152600401610401906122cd565b6001600160a01b0385166117425760005b8351811015611740578281815181106116e7576116e7611f87565b60200260200101516004600086848151811061170557611705611f87565b60200260200101518152602001908152602001600020600082825461172a9190612055565b90915550611739905081611fb3565b90506116cc565b505b6001600160a01b038416610d925760005b835181101561106857600084828151811061177057611770611f87565b60200260200101519050600084838151811061178e5761178e611f87565b60200260200101519050600060046000848152602001908152602001600020549050818110156118115760405162461bcd60e51b815260206004820152602860248201527f455243313135353a206275726e20616d6f756e74206578636565647320746f74604482015267616c537570706c7960c01b6064820152608401610401565b6000928352600460205260409092209103905561182d81611fb3565b9050611753565b80356001600160a01b038116811461184b57600080fd5b919050565b6000806040838503121561186357600080fd5b61186c83611834565b946020939093013593505050565b6001600160e01b03198116811461091357600080fd5b6000602082840312156118a257600080fd5b81356118ad8161187a565b9392505050565b6000602082840312156118c657600080fd5b5035919050565b6000815180845260005b818110156118f3576020818501810151868301820152016118d7565b506000602082860101526020601f19601f83011685010191505092915050565b6020815260006118ad60208301846118cd565b634e487b7160e01b600052604160045260246000fd5b601f8201601f1916810167ffffffffffffffff8111828210171561196257611962611926565b6040525050565b600067ffffffffffffffff82111561198357611983611926565b5060051b60200190565b600082601f83011261199e57600080fd5b813560206119ab82611969565b6040516119b8828261193c565b83815260059390931b85018201928281019150868411156119d857600080fd5b8286015b848110156119f357803583529183019183016119dc565b509695505050505050565b600082601f830112611a0f57600080fd5b813567ffffffffffffffff811115611a2957611a29611926565b604051611a40601f8301601f19166020018261193c565b818152846020838601011115611a5557600080fd5b816020850160208301376000918101602001919091529392505050565b60008060008060808587031215611a8857600080fd5b611a9185611834565b9350602085013567ffffffffffffffff80821115611aae57600080fd5b611aba8883890161198d565b94506040870135915080821115611ad057600080fd5b611adc8883890161198d565b93506060870135915080821115611af257600080fd5b50611aff878288016119fe565b91505092959194509250565b600060208284031215611b1d57600080fd5b6118ad82611834565b600080600080600060a08688031215611b3e57600080fd5b611b4786611834565b9450611b5560208701611834565b9350604086013567ffffffffffffffff80821115611b7257600080fd5b611b7e89838a0161198d565b94506060880135915080821115611b9457600080fd5b611ba089838a0161198d565b93506080880135915080821115611bb657600080fd5b50611bc3888289016119fe565b9150509295509295909350565b60008060408385031215611be357600080fd5b823567ffffffffffffffff80821115611bfb57600080fd5b818501915085601f830112611c0f57600080fd5b81356020611c1c82611969565b604051611c29828261193c565b83815260059390931b8501820192828101915089841115611c4957600080fd5b948201945b83861015611c6e57611c5f86611834565b82529482019490820190611c4e565b96505086013592505080821115611c8457600080fd5b50611c918582860161198d565b9150509250929050565b600081518084526020808501945080840160005b83811015611ccb57815187529582019590820190600101611caf565b509495945050505050565b6020815260006118ad6020830184611c9b565b600080600060608486031215611cfe57600080fd5b611d0784611834565b9250602084013567ffffffffffffffff80821115611d2457600080fd5b611d308783880161198d565b93506040860135915080821115611d4657600080fd5b50611d538682870161198d565b9150509250925092565b60008060008060808587031215611d7357600080fd5b611d7c85611834565b93506020850135925060408501359150606085013567ffffffffffffffff811115611da657600080fd5b611aff878288016119fe565b60008060408385031215611dc557600080fd5b611dce83611834565b915060208301358015158114611de357600080fd5b809150509250929050565b60008060408385031215611e0157600080fd5b611e0a83611834565b9150611e1860208401611834565b90509250929050565b600080600080600060a08688031215611e3957600080fd5b611e4286611834565b9450611e5060208701611834565b93506040860135925060608601359150608086013567ffffffffffffffff811115611e7a57600080fd5b611bc3888289016119fe565b600080600060608486031215611e9b57600080fd5b611ea484611834565b95602085013595506040909401359392505050565b600080600060608486031215611ece57600080fd5b8335925060208401359150604084013567ffffffffffffffff811115611ef357600080fd5b611d53868287016119fe565b600181811c90821680611f1357607f821691505b602082108103611f3357634e487b7160e01b600052602260045260246000fd5b50919050565b6020808252602e908201527f455243313135353a2063616c6c6572206973206e6f7420746f6b656e206f776e60408201526d195c881bdc88185c1c1c9bdd995960921b606082015260800190565b634e487b7160e01b600052603260045260246000fd5b634e487b7160e01b600052601160045260246000fd5b600060018201611fc557611fc5611f9d565b5060010190565b60208082526021908201527f455243313135353a206d696e7420746f20746865207a65726f206164647265736040820152607360f81b606082015260800190565b60208082526028908201527f455243313135353a2069647320616e6420616d6f756e7473206c656e677468206040820152670dad2e6dac2e8c6d60c31b606082015260800190565b8082018082111561042d5761042d611f9d565b60408152600061207b6040830185611c9b565b828103602084015261208d8185611c9b565b95945050505050565b60208082526025908201527f455243313135353a207472616e7366657220746f20746865207a65726f206164604082015264647265737360d81b606082015260800190565b6020808252602a908201527f455243313135353a20696e73756666696369656e742062616c616e636520666f60408201526939103a3930b739b332b960b11b606082015260800190565b60208082526023908201527f455243313135353a206275726e2066726f6d20746865207a65726f206164647260408201526265737360e81b606082015260800190565b60208082526024908201527f455243313135353a206275726e20616d6f756e7420657863656564732062616c604082015263616e636560e01b606082015260800190565b6001600160a01b0386811682528516602082015260a0604082018190526000906121d890830186611c9b565b82810360608401526121ea8186611c9b565b905082810360808401526121fe81856118cd565b98975050505050505050565b60006020828403121561221c57600080fd5b81516118ad8161187a565b600060033d11156122405760046000803e5060005160e01c5b90565b600060443d10156122515790565b6040516003193d81016004833e81513d67ffffffffffffffff816024840111818411171561228157505050505090565b82850191508151818111156122995750505050505090565b843d87010160208285010111156122b35750505050505090565b6122c26020828601018761193c565b509095945050505050565b60208082526028908201527f455243313135353a204552433131353552656365697665722072656a656374656040820152676420746f6b656e7360c01b606082015260800190565b6001600160a01b03868116825285166020820152604081018490526060810183905260a06080820181905260009061234f908301846118cd565b97965050505050505056fea264697066735822122050696066f6e2086c9140acfb78a3a610a871c71a21d41ae2ab974bc891d1ae3964736f6c63430008110033687474703a2f2f3132372e302e302e313a353530302f6170692f6368617261637465724e46542f7b69647d2e6a736f6e",
    "linkReferences": {}
  },
  "methodIdentifiers": {
    "balanceOf(address,uint256)": "00fdd58e",
    "balanceOfBatch(address[],uint256[])": "4e1273f4",
    "burn(address,uint256,uint256)": "f5298aca",
    "burnBatch(address,uint256[],uint256[])": "6b20c454",
    "exists(uint256)": "4f558e79",
    "isApprovedForAll(address,address)": "e985e9c5",
    "level()": "6fd5ae15",
    "levelOfAccess(address)": "3d8ad916",
    "makePremium()": "7f2575a1",
    "mint(address,uint256,uint256,bytes)": "731133e9",
    "mintBatch(address,uint256[],uint256[],bytes)": "1f7fdffa",
    "owner()": "8da5cb5b",
    "renounceOwnership()": "715018a6",
    "resetToNewUser(address)": "230415de",
    "safeBatchTransferFrom(address,address,uint256[],uint256[],bytes)": "2eb2c2d6",
    "safeTransferFrom(address,address,uint256,uint256,bytes)": "f242432a",
    "setApprovalForAll(address,bool)": "a22cb465",
    "supportsInterface(bytes4)": "01ffc9a7",
    "totalSupply(uint256)": "bd85b039",
    "transferOwnership(address)": "f2fde38b",
    "trialNFTMint(uint256,uint256,bytes)": "f7698738",
    "uri(uint256)": "0e89341c"
  },
  "id": 14
}