{
  "abi": [
    {
      "inputs": [
        {
          "internalType": "contract MinimalForwarder",
          "name": "forwarder",
          "type": "address"
        }
      ],
      "stateMutability": "nonpayable",
      "type": "constructor"
    },
    {
      "anonymous": false,
      "inputs": [
        {
          "indexed": true,
          "internalType": "address",
          "name": "account",
          "type": "address"
        },
        {
          "indexed": true,
          "internalType": "address",
          "name": "operator",
          "type": "address"
        },
        {
          "indexed": false,
          "internalType": "bool",
          "name": "approved",
          "type": "bool"
        }
      ],
      "name": "ApprovalForAll",
      "type": "event"
    },
    {
      "anonymous": false,
      "inputs": [
        {
          "indexed": true,
          "internalType": "address",
          "name": "to",
          "type": "address"
        },
        {
          "indexed": true,
          "internalType": "uint256",
          "name": "tokenId",
          "type": "uint256"
        }
      ],
      "name": "Attest",
      "type": "event"
    },
    {
      "anonymous": false,
      "inputs": [
        {
          "indexed": true,
          "internalType": "address",
          "name": "account",
          "type": "address"
        },
        {
          "indexed": false,
          "internalType": "string",
          "name": "message",
          "type": "string"
        }
      ],
      "name": "NFTIsMinted",
      "type": "event"
    },
    {
      "anonymous": false,
      "inputs": [
        {
          "indexed": true,
          "internalType": "address",
          "name": "previousOwner",
          "type": "address"
        },
        {
          "indexed": true,
          "internalType": "address",
          "name": "newOwner",
          "type": "address"
        }
      ],
      "name": "OwnershipTransferred",
      "type": "event"
    },
    {
      "anonymous": false,
      "inputs": [
        {
          "indexed": true,
          "internalType": "address",
          "name": "operator",
          "type": "address"
        },
        {
          "indexed": true,
          "internalType": "address",
          "name": "from",
          "type": "address"
        },
        {
          "indexed": true,
          "internalType": "address",
          "name": "to",
          "type": "address"
        },
        {
          "indexed": false,
          "internalType": "uint256[]",
          "name": "ids",
          "type": "uint256[]"
        },
        {
          "indexed": false,
          "internalType": "uint256[]",
          "name": "values",
          "type": "uint256[]"
        }
      ],
      "name": "TransferBatch",
      "type": "event"
    },
    {
      "anonymous": false,
      "inputs": [
        {
          "indexed": true,
          "internalType": "address",
          "name": "operator",
          "type": "address"
        },
        {
          "indexed": true,
          "internalType": "address",
          "name": "from",
          "type": "address"
        },
        {
          "indexed": true,
          "internalType": "address",
          "name": "to",
          "type": "address"
        },
        {
          "indexed": false,
          "internalType": "uint256",
          "name": "id",
          "type": "uint256"
        },
        {
          "indexed": false,
          "internalType": "uint256",
          "name": "value",
          "type": "uint256"
        }
      ],
      "name": "TransferSingle",
      "type": "event"
    },
    {
      "anonymous": false,
      "inputs": [
        {
          "indexed": false,
          "internalType": "string",
          "name": "value",
          "type": "string"
        },
        {
          "indexed": true,
          "internalType": "uint256",
          "name": "id",
          "type": "uint256"
        }
      ],
      "name": "URI",
      "type": "event"
    },
    {
      "anonymous": false,
      "inputs": [
        {
          "indexed": true,
          "internalType": "address",
          "name": "account",
          "type": "address"
        },
        {
          "indexed": false,
          "internalType": "string",
          "name": "message",
          "type": "string"
        }
      ],
      "name": "trialNFTIsMinted",
      "type": "event"
    },
    {
      "inputs": [],
      "name": "TRIALNFTID",
      "outputs": [
        {
          "internalType": "uint256",
          "name": "",
          "type": "uint256"
        }
      ],
      "stateMutability": "view",
      "type": "function"
    },
    {
      "inputs": [
        {
          "internalType": "address",
          "name": "account",
          "type": "address"
        },
        {
          "internalType": "uint256",
          "name": "id",
          "type": "uint256"
        }
      ],
      "name": "balanceOf",
      "outputs": [
        {
          "internalType": "uint256",
          "name": "",
          "type": "uint256"
        }
      ],
      "stateMutability": "view",
      "type": "function"
    },
    {
      "inputs": [
        {
          "internalType": "address[]",
          "name": "accounts",
          "type": "address[]"
        },
        {
          "internalType": "uint256[]",
          "name": "ids",
          "type": "uint256[]"
        }
      ],
      "name": "balanceOfBatch",
      "outputs": [
        {
          "internalType": "uint256[]",
          "name": "",
          "type": "uint256[]"
        }
      ],
      "stateMutability": "view",
      "type": "function"
    },
    {
      "inputs": [
        {
          "internalType": "address",
          "name": "account",
          "type": "address"
        },
        {
          "internalType": "uint256",
          "name": "id",
          "type": "uint256"
        },
        {
          "internalType": "uint256",
          "name": "value",
          "type": "uint256"
        }
      ],
      "name": "burn",
      "outputs": [],
      "stateMutability": "nonpayable",
      "type": "function"
    },
    {
      "inputs": [
        {
          "internalType": "address",
          "name": "account",
          "type": "address"
        },
        {
          "internalType": "uint256[]",
          "name": "ids",
          "type": "uint256[]"
        },
        {
          "internalType": "uint256[]",
          "name": "values",
          "type": "uint256[]"
        }
      ],
      "name": "burnBatch",
      "outputs": [],
      "stateMutability": "nonpayable",
      "type": "function"
    },
    {
      "inputs": [
        {
          "internalType": "bytes",
          "name": "",
          "type": "bytes"
        }
      ],
      "name": "checkUpkeep",
      "outputs": [
        {
          "internalType": "bool",
          "name": "needsUpkeep",
          "type": "bool"
        },
        {
          "internalType": "bytes",
          "name": "",
          "type": "bytes"
        }
      ],
      "stateMutability": "nonpayable",
      "type": "function"
    },
    {
      "inputs": [],
      "name": "currentDate",
      "outputs": [
        {
          "internalType": "uint256",
          "name": "",
          "type": "uint256"
        }
      ],
      "stateMutability": "view",
      "type": "function"
    },
    {
      "inputs": [
        {
          "internalType": "uint256",
          "name": "id",
          "type": "uint256"
        }
      ],
      "name": "exists",
      "outputs": [
        {
          "internalType": "bool",
          "name": "",
          "type": "bool"
        }
      ],
      "stateMutability": "view",
      "type": "function"
    },
    {
      "inputs": [
        {
          "internalType": "address",
          "name": "account",
          "type": "address"
        },
        {
          "internalType": "address",
          "name": "operator",
          "type": "address"
        }
      ],
      "name": "isApprovedForAll",
      "outputs": [
        {
          "internalType": "bool",
          "name": "",
          "type": "bool"
        }
      ],
      "stateMutability": "view",
      "type": "function"
    },
    {
      "inputs": [
        {
          "internalType": "address",
          "name": "forwarder",
          "type": "address"
        }
      ],
      "name": "isTrustedForwarder",
      "outputs": [
        {
          "internalType": "bool",
          "name": "",
          "type": "bool"
        }
      ],
      "stateMutability": "view",
      "type": "function"
    },
    {
      "inputs": [
        {
          "internalType": "address",
          "name": "",
          "type": "address"
        }
      ],
      "name": "levelOfAccess",
      "outputs": [
        {
          "internalType": "bool",
          "name": "isExperiencedUser",
          "type": "bool"
        },
        {
          "internalType": "bool",
          "name": "isPremiumUser",
          "type": "bool"
        }
      ],
      "stateMutability": "view",
      "type": "function"
    },
    {
      "inputs": [
        {
          "internalType": "address",
          "name": "userToMakePremium",
          "type": "address"
        }
      ],
      "name": "makePremium",
      "outputs": [],
      "stateMutability": "nonpayable",
      "type": "function"
    },
    {
      "inputs": [
        {
          "internalType": "address",
          "name": "addressToMint",
          "type": "address"
        },
        {
          "internalType": "uint256",
          "name": "id",
          "type": "uint256"
        },
        {
          "internalType": "uint256",
          "name": "amount",
          "type": "uint256"
        },
        {
          "internalType": "bytes",
          "name": "data",
          "type": "bytes"
        }
      ],
      "name": "mint",
      "outputs": [],
      "stateMutability": "nonpayable",
      "type": "function"
    },
    {
      "inputs": [],
      "name": "owner",
      "outputs": [
        {
          "internalType": "address",
          "name": "",
          "type": "address"
        }
      ],
      "stateMutability": "view",
      "type": "function"
    },
    {
      "inputs": [
        {
          "internalType": "bytes",
          "name": "",
          "type": "bytes"
        }
      ],
      "name": "performUpkeep",
      "outputs": [],
      "stateMutability": "nonpayable",
      "type": "function"
    },
    {
      "inputs": [],
      "name": "renounceOwnership",
      "outputs": [],
      "stateMutability": "nonpayable",
      "type": "function"
    },
    {
      "inputs": [
        {
          "internalType": "address",
          "name": "accountToReset",
          "type": "address"
        }
      ],
      "name": "resetToNewUser",
      "outputs": [],
      "stateMutability": "nonpayable",
      "type": "function"
    },
    {
      "inputs": [
        {
          "internalType": "address",
          "name": "from",
          "type": "address"
        },
        {
          "internalType": "address",
          "name": "to",
          "type": "address"
        },
        {
          "internalType": "uint256[]",
          "name": "ids",
          "type": "uint256[]"
        },
        {
          "internalType": "uint256[]",
          "name": "amounts",
          "type": "uint256[]"
        },
        {
          "internalType": "bytes",
          "name": "data",
          "type": "bytes"
        }
      ],
      "name": "safeBatchTransferFrom",
      "outputs": [],
      "stateMutability": "nonpayable",
      "type": "function"
    },
    {
      "inputs": [
        {
          "internalType": "address",
          "name": "from",
          "type": "address"
        },
        {
          "internalType": "address",
          "name": "to",
          "type": "address"
        },
        {
          "internalType": "uint256",
          "name": "id",
          "type": "uint256"
        },
        {
          "internalType": "uint256",
          "name": "amount",
          "type": "uint256"
        },
        {
          "internalType": "bytes",
          "name": "data",
          "type": "bytes"
        }
      ],
      "name": "safeTransferFrom",
      "outputs": [],
      "stateMutability": "nonpayable",
      "type": "function"
    },
    {
      "inputs": [
        {
          "internalType": "address",
          "name": "operator",
          "type": "address"
        },
        {
          "internalType": "bool",
          "name": "approved",
          "type": "bool"
        }
      ],
      "name": "setApprovalForAll",
      "outputs": [],
      "stateMutability": "nonpayable",
      "type": "function"
    },
    {
      "inputs": [
        {
          "internalType": "bytes4",
          "name": "interfaceId",
          "type": "bytes4"
        }
      ],
      "name": "supportsInterface",
      "outputs": [
        {
          "internalType": "bool",
          "name": "",
          "type": "bool"
        }
      ],
      "stateMutability": "view",
      "type": "function"
    },
    {
      "inputs": [
        {
          "internalType": "uint256",
          "name": "id",
          "type": "uint256"
        }
      ],
      "name": "totalSupply",
      "outputs": [
        {
          "internalType": "uint256",
          "name": "",
          "type": "uint256"
        }
      ],
      "stateMutability": "view",
      "type": "function"
    },
    {
      "inputs": [
        {
          "internalType": "address",
          "name": "newOwner",
          "type": "address"
        }
      ],
      "name": "transferOwnership",
      "outputs": [],
      "stateMutability": "nonpayable",
      "type": "function"
    },
    {
      "inputs": [
        {
          "internalType": "address",
          "name": "",
          "type": "address"
        }
      ],
      "name": "trialNFT",
      "outputs": [
        {
          "internalType": "uint256",
          "name": "mintDate4NFT",
          "type": "uint256"
        },
        {
          "internalType": "uint256",
          "name": "expireDate",
          "type": "uint256"
        }
      ],
      "stateMutability": "view",
      "type": "function"
    },
    {
      "inputs": [
        {
          "internalType": "uint256",
          "name": "amount",
          "type": "uint256"
        },
        {
          "internalType": "bytes",
          "name": "data",
          "type": "bytes"
        }
      ],
      "name": "trialNFTMint",
      "outputs": [],
      "stateMutability": "nonpayable",
      "type": "function"
    },
    {
      "inputs": [
        {
          "internalType": "uint256",
          "name": "",
          "type": "uint256"
        }
      ],
      "name": "uri",
      "outputs": [
        {
          "internalType": "string",
          "name": "",
          "type": "string"
        }
      ],
      "stateMutability": "view",
      "type": "function"
    }
  ],
  "bytecode": {
    "object": "0x60806040524260065562000012620000be565b600780546001600160a01b0319166001600160a01b03929092169190911790553480156200003f57600080fd5b50604051620028e8380380620028e8833981016040819052620000629162000178565b604051806060016040528060308152602001620028b860309139600080546001600160a01b0319166001600160a01b038416179055620000a281620000da565b50620000b7620000b1620000be565b620000ec565b506200031b565b6000620000d56200013e60201b62000cc11760201c565b905090565b6003620000e882826200024f565b5050565b600480546001600160a01b038381166001600160a01b0319831681179093556040519116919082907f8be0079c531659141344cd1fd0a4f28419497f9722a3daafe3b4186f6b6457e090600090a35050565b600080546001600160a01b031633036200015f575060131936013560601c90565b620000d56200017460201b62000cee1760201c565b3390565b6000602082840312156200018b57600080fd5b81516001600160a01b0381168114620001a357600080fd5b9392505050565b634e487b7160e01b600052604160045260246000fd5b600181811c90821680620001d557607f821691505b602082108103620001f657634e487b7160e01b600052602260045260246000fd5b50919050565b601f8211156200024a57600081815260208120601f850160051c81016020861015620002255750805b601f850160051c820191505b81811015620002465782815560010162000231565b5050505b505050565b81516001600160401b038111156200026b576200026b620001aa565b62000283816200027c8454620001c0565b84620001fc565b602080601f831160018114620002bb5760008415620002a25750858301515b600019600386901b1c1916600185901b17855562000246565b600085815260208120601f198616915b82811015620002ec57888601518255948401946001909101908401620002cb565b50858210156200030b5787850151600019600388901b60f8161c191681555b5050505050600190811b01905550565b61258d806200032b6000396000f3fe608060405234801561001057600080fd5b506004361061018d5760003560e01c8063715018a6116100de578063bd85b03911610097578063ea43727111610071578063ea43727114610446578063f242432a1461044e578063f2fde38b14610461578063f5298aca1461047457600080fd5b8063bd85b039146103d7578063d23813ce146103f7578063e985e9c51461040a57600080fd5b8063715018a61461033f578063731133e9146103475780638da5cb5b1461035a57806396df416c146103755780639a131cc214610388578063a22cb465146103c457600080fd5b80634585e33b1161014b5780634f99b7c5116101255780634f99b7c5146102bb578063572b6c05146102c45780636b20c454146102e65780636e04ff0d146102f957600080fd5b80634585e33b146102665780634e1273f4146102795780634f558e791461029957600080fd5b8062fdd58e1461019257806301ffc9a7146101b85780630e89341c146101db578063230415de146101fb5780632eb2c2d6146102105780633d8ad91614610223575b600080fd5b6101a56101a0366004611a67565b610487565b6040519081526020015b60405180910390f35b6101cb6101c6366004611aa7565b610522565b60405190151581526020016101af565b6101ee6101e9366004611acb565b610572565b6040516101af9190611b2a565b61020e610209366004611b3d565b610606565b005b61020e61021e366004611ca1565b61062f565b61024f610231366004611b3d565b60096020526000908152604090205460ff8082169161010090041682565b6040805192151583529015156020830152016101af565b61020e610274366004611d4a565b61068d565b61028c610287366004611dbb565b61072f565b6040516101af9190611ec0565b6101cb6102a7366004611acb565b600090815260056020526040902054151590565b6101a560065481565b6101cb6102d2366004611b3d565b6000546001600160a01b0391821691161490565b61020e6102f4366004611ed3565b610858565b610331610307366004611f46565b506006546007546001600160a01b0316600090815260086020526040902060010154101590606090565b6040516101af929190611f82565b61020e6108ad565b61020e610355366004611f9d565b6108c1565b6004546040516001600160a01b0390911681526020016101af565b61020e610383366004611b3d565b610941565b6103af610396366004611b3d565b6008602052600090815260409020805460019091015482565b604080519283526020830191909152016101af565b61020e6103d2366004611ffd565b610a09565b6101a56103e5366004611acb565b60009081526005602052604090205490565b61020e610405366004612039565b610a1f565b6101cb610418366004612075565b6001600160a01b03918216600090815260026020908152604080832093909416825291909152205460ff1690565b6101a5600081565b61020e61045c3660046120a8565b610b9c565b61020e61046f366004611b3d565b610bf3565b61020e61048236600461210c565b610c6c565b60006001600160a01b0383166104f75760405162461bcd60e51b815260206004820152602a60248201527f455243313135353a2061646472657373207a65726f206973206e6f742061207660448201526930b634b21037bbb732b960b11b60648201526084015b60405180910390fd5b5060008181526001602090815260408083206001600160a01b03861684529091529020545b92915050565b60006001600160e01b03198216636cdb3d1360e11b148061055357506001600160e01b031982166303a24d0760e21b145b8061051c57506301ffc9a760e01b6001600160e01b031983161461051c565b6060600380546105819061213f565b80601f01602080910402602001604051908101604052809291908181526020018280546105ad9061213f565b80156105fa5780601f106105cf576101008083540402835291602001916105fa565b820191906000526020600020905b8154815290600101906020018083116105dd57829003601f168201915b50505050509050919050565b61060e610cf2565b6001600160a01b03166000908152600960205260409020805460ff19169055565b610637610d6b565b6001600160a01b0316856001600160a01b0316148061065d575061065d85610418610d6b565b6106795760405162461bcd60e51b81526004016104ee90612179565b6106868585858585610d75565b5050505050565b60006106cc60405180602001604052806000815250506006546007546001600160a01b0316600090815260086020526040902060010154101590606090565b5090506001811515146107165760405162461bcd60e51b81526020600482015260126024820152712ab835b2b2b8103737ba103732b2b232b21760711b60448201526064016104ee565b61072a610721610d6b565b60006001610f2d565b505050565b606081518351146107945760405162461bcd60e51b815260206004820152602960248201527f455243313135353a206163636f756e747320616e6420696473206c656e677468604482015268040dad2e6dac2e8c6d60bb1b60648201526084016104ee565b600083516001600160401b038111156107af576107af611b58565b6040519080825280602002602001820160405280156107d8578160200160208202803683370190505b50905060005b8451811015610850576108238582815181106107fc576107fc6121c7565b6020026020010151858381518110610816576108166121c7565b6020026020010151610487565b828281518110610835576108356121c7565b6020908102919091010152610849816121f3565b90506107de565b509392505050565b610860610d6b565b6001600160a01b0316836001600160a01b03161480610886575061088683610418610d6b565b6108a25760405162461bcd60e51b81526004016104ee90612179565b61072a838383611059565b6108b5610cf2565b6108bf6000611200565b565b6108c9610cf2565b6108d584848484611252565b6007546040516001600160a01b03909116907e532d1a87c33d088154a519b027467ef3a25af9a8dec0d8f4e9b5fb143fbb0d90610933906020808252600d908201526c139195081a5cc81b5a5b9d1959609a1b604082015260600190565b60405180910390a250505050565b6001600160a01b038116600090815260096020526040902054819060ff161515600114801561098e57506001600160a01b038116600090815260096020526040902054610100900460ff16155b6109da5760405162461bcd60e51b815260206004820152601760248201527f4e6f7420616e20657870657269656e636564207573657200000000000000000060448201526064016104ee565b6109e2610cf2565b6001600160a01b03166000908152600960205260409020805461ff00191661010017905550565b610a1b610a14610d6b565b8383611379565b5050565b60096000610a2b610d6b565b6001600160a01b0316815260208101919091526040016000205460ff1615610a865760405162461bcd60e51b815260206004820152600e60248201526d2737ba1030903732bb903ab9b2b960911b60448201526064016104ee565b600780546001600160a01b0390811660009081526008602052604080822042905592549091168152205462093a8090610ac090829061220c565b600780546001600160a01b039081166000908152600860205260408120600101939093559054610af4929116908585611252565b6007546040516001600160a01b03909116907f6e26ff1e96a6bcf2373f537221ff5228b4b664b60ad5b8ee090e857c93c9607890610b5990602080825260139082015272151c9a585b08139195081a5cc81b5a5b9d1959606a1b604082015260600190565b60405180910390a250600160096000610b70610d6b565b6001600160a01b031681526020810191909152604001600020805460ff19169115159190911790555050565b610ba4610d6b565b6001600160a01b0316856001600160a01b03161480610bca5750610bca85610418610d6b565b610be65760405162461bcd60e51b81526004016104ee90612179565b6106868585858585611459565b610bfb610cf2565b6001600160a01b038116610c605760405162461bcd60e51b815260206004820152602660248201527f4f776e61626c653a206e6577206f776e657220697320746865207a65726f206160448201526564647265737360d01b60648201526084016104ee565b610c6981611200565b50565b610c74610d6b565b6001600160a01b0316836001600160a01b03161480610c9a5750610c9a83610418610d6b565b610cb65760405162461bcd60e51b81526004016104ee90612179565b61072a838383610f2d565b600080546001600160a01b03163303610ce1575060131936013560601c90565b503390565b905090565b90565b3390565b610cfa610d6b565b6001600160a01b0316610d156004546001600160a01b031690565b6001600160a01b0316146108bf5760405162461bcd60e51b815260206004820181905260248201527f4f776e61626c653a2063616c6c6572206973206e6f7420746865206f776e657260448201526064016104ee565b6000610ce6610cc1565b8151835114610d965760405162461bcd60e51b81526004016104ee9061221f565b6001600160a01b038416610dbc5760405162461bcd60e51b81526004016104ee90612267565b6000610dc6610d6b565b9050610dd68187878787876115a0565b60005b8451811015610ebf576000858281518110610df657610df66121c7565b602002602001015190506000858381518110610e1457610e146121c7565b60209081029190910181015160008481526001835260408082206001600160a01b038e168352909352919091205490915081811015610e655760405162461bcd60e51b81526004016104ee906122ac565b60008381526001602090815260408083206001600160a01b038e8116855292528083208585039055908b16825281208054849290610ea490849061220c565b9250508190555050505080610eb8906121f3565b9050610dd9565b50846001600160a01b0316866001600160a01b0316826001600160a01b03167f4a39dc06d4c0dbc64b70af90fd698a233a518aa5d07e595d983b8c0526c8f7fb8787604051610f0f9291906122f6565b60405180910390a4610f25818787878787611671565b505050505050565b6001600160a01b038316610f535760405162461bcd60e51b81526004016104ee90612324565b6000610f5d610d6b565b90506000610f6a846117cc565b90506000610f77846117cc565b9050610f97838760008585604051806020016040528060008152506115a0565b60008581526001602090815260408083206001600160a01b038a16845290915290205484811015610fda5760405162461bcd60e51b81526004016104ee90612367565b60008681526001602090815260408083206001600160a01b038b81168086529184528285208a8703905582518b81529384018a90529092908816917fc3d58168c5ae7397731d063d5bbf3d657854427343f4c083240f7aacaa2d0f62910160405180910390a46040805160208101909152600090525b50505050505050565b6001600160a01b03831661107f5760405162461bcd60e51b81526004016104ee90612324565b80518251146110a05760405162461bcd60e51b81526004016104ee9061221f565b60006110aa610d6b565b90506110ca818560008686604051806020016040528060008152506115a0565b60005b83518110156111925760008482815181106110ea576110ea6121c7565b602002602001015190506000848381518110611108576111086121c7565b60209081029190910181015160008481526001835260408082206001600160a01b038c1683529093529190912054909150818110156111595760405162461bcd60e51b81526004016104ee90612367565b60009283526001602090815260408085206001600160a01b038b168652909152909220910390558061118a816121f3565b9150506110cd565b5060006001600160a01b0316846001600160a01b0316826001600160a01b03167f4a39dc06d4c0dbc64b70af90fd698a233a518aa5d07e595d983b8c0526c8f7fb86866040516111e39291906122f6565b60405180910390a460408051602081019091526000905250505050565b600480546001600160a01b038381166001600160a01b0319831681179093556040519116919082907f8be0079c531659141344cd1fd0a4f28419497f9722a3daafe3b4186f6b6457e090600090a35050565b6001600160a01b0384166112b25760405162461bcd60e51b815260206004820152602160248201527f455243313135353a206d696e7420746f20746865207a65726f206164647265736044820152607360f81b60648201526084016104ee565b60006112bc610d6b565b905060006112c9856117cc565b905060006112d6856117cc565b90506112e7836000898585896115a0565b60008681526001602090815260408083206001600160a01b038b1684529091528120805487929061131990849061220c565b909155505060408051878152602081018790526001600160a01b03808a1692600092918716917fc3d58168c5ae7397731d063d5bbf3d657854427343f4c083240f7aacaa2d0f62910160405180910390a461105083600089898989611817565b816001600160a01b0316836001600160a01b0316036113ec5760405162461bcd60e51b815260206004820152602960248201527f455243313135353a2073657474696e6720617070726f76616c20737461747573604482015268103337b91039b2b63360b91b60648201526084016104ee565b6001600160a01b03838116600081815260026020908152604080832094871680845294825291829020805460ff191686151590811790915591519182527f17307eab39ab6107e8899845ad3d59bd9653f200f220920489ca2b5937696c31910160405180910390a3505050565b6001600160a01b03841661147f5760405162461bcd60e51b81526004016104ee90612267565b6000611489610d6b565b90506000611496856117cc565b905060006114a3856117cc565b90506114b38389898585896115a0565b60008681526001602090815260408083206001600160a01b038c168452909152902054858110156114f65760405162461bcd60e51b81526004016104ee906122ac565b60008781526001602090815260408083206001600160a01b038d8116855292528083208985039055908a1682528120805488929061153590849061220c565b909155505060408051888152602081018890526001600160a01b03808b16928c821692918816917fc3d58168c5ae7397731d063d5bbf3d657854427343f4c083240f7aacaa2d0f62910160405180910390a4611595848a8a8a8a8a611817565b505050505050505050565b6115ae8686868686866118d2565b600960006115ba610d6b565b6001600160a01b031681526020810191909152604001600090812054610100900460ff1615159003610f25576001600160a01b03851615610f255760405162461bcd60e51b815260206004820152604560248201527f5468697320746f6b656e2063616e206f6e6c79206265206d696e7465642c205060448201527f6c65617365207570677261646520746f206d616b65206974207472616e7366656064820152647261626c6560d81b608482015260a4016104ee565b6001600160a01b0384163b15610f255760405163bc197c8160e01b81526001600160a01b0385169063bc197c81906116b590899089908890889088906004016123ab565b6020604051808303816000875af19250505080156116f0575060408051601f3d908101601f191682019092526116ed91810190612409565b60015b61179c576116fc612426565b806308c379a0036117355750611710612441565b8061171b5750611737565b8060405162461bcd60e51b81526004016104ee9190611b2a565b505b60405162461bcd60e51b815260206004820152603460248201527f455243313135353a207472616e7366657220746f206e6f6e2d455243313135356044820152732932b1b2b4bb32b91034b6b83632b6b2b73a32b960611b60648201526084016104ee565b6001600160e01b0319811663bc197c8160e01b146110505760405162461bcd60e51b81526004016104ee906124ca565b60408051600180825281830190925260609160009190602080830190803683370190505090508281600081518110611806576118066121c7565b602090810291909101015292915050565b6001600160a01b0384163b15610f255760405163f23a6e6160e01b81526001600160a01b0385169063f23a6e619061185b9089908990889088908890600401612512565b6020604051808303816000875af1925050508015611896575060408051601f3d908101601f1916820190925261189391810190612409565b60015b6118a2576116fc612426565b6001600160e01b0319811663f23a6e6160e01b146110505760405162461bcd60e51b81526004016104ee906124ca565b6001600160a01b0385166119595760005b8351811015611957578281815181106118fe576118fe6121c7565b60200260200101516005600086848151811061191c5761191c6121c7565b602002602001015181526020019081526020016000206000828254611941919061220c565b909155506119509050816121f3565b90506118e3565b505b6001600160a01b038416610f255760005b8351811015611050576000848281518110611987576119876121c7565b6020026020010151905060008483815181106119a5576119a56121c7565b6020026020010151905060006005600084815260200190815260200160002054905081811015611a285760405162461bcd60e51b815260206004820152602860248201527f455243313135353a206275726e20616d6f756e74206578636565647320746f74604482015267616c537570706c7960c01b60648201526084016104ee565b60009283526005602052604090922091039055611a44816121f3565b905061196a565b80356001600160a01b0381168114611a6257600080fd5b919050565b60008060408385031215611a7a57600080fd5b611a8383611a4b565b946020939093013593505050565b6001600160e01b031981168114610c6957600080fd5b600060208284031215611ab957600080fd5b8135611ac481611a91565b9392505050565b600060208284031215611add57600080fd5b5035919050565b6000815180845260005b81811015611b0a57602081850181015186830182015201611aee565b506000602082860101526020601f19601f83011685010191505092915050565b602081526000611ac46020830184611ae4565b600060208284031215611b4f57600080fd5b611ac482611a4b565b634e487b7160e01b600052604160045260246000fd5b601f8201601f191681016001600160401b0381118282101715611b9357611b93611b58565b6040525050565b60006001600160401b03821115611bb357611bb3611b58565b5060051b60200190565b600082601f830112611bce57600080fd5b81356020611bdb82611b9a565b604051611be88282611b6e565b83815260059390931b8501820192828101915086841115611c0857600080fd5b8286015b84811015611c235780358352918301918301611c0c565b509695505050505050565b600082601f830112611c3f57600080fd5b81356001600160401b03811115611c5857611c58611b58565b604051611c6f601f8301601f191660200182611b6e565b818152846020838601011115611c8457600080fd5b816020850160208301376000918101602001919091529392505050565b600080600080600060a08688031215611cb957600080fd5b611cc286611a4b565b9450611cd060208701611a4b565b935060408601356001600160401b0380821115611cec57600080fd5b611cf889838a01611bbd565b94506060880135915080821115611d0e57600080fd5b611d1a89838a01611bbd565b93506080880135915080821115611d3057600080fd5b50611d3d88828901611c2e565b9150509295509295909350565b60008060208385031215611d5d57600080fd5b82356001600160401b0380821115611d7457600080fd5b818501915085601f830112611d8857600080fd5b813581811115611d9757600080fd5b866020828501011115611da957600080fd5b60209290920196919550909350505050565b60008060408385031215611dce57600080fd5b82356001600160401b0380821115611de557600080fd5b818501915085601f830112611df957600080fd5b81356020611e0682611b9a565b604051611e138282611b6e565b83815260059390931b8501820192828101915089841115611e3357600080fd5b948201945b83861015611e5857611e4986611a4b565b82529482019490820190611e38565b96505086013592505080821115611e6e57600080fd5b50611e7b85828601611bbd565b9150509250929050565b600081518084526020808501945080840160005b83811015611eb557815187529582019590820190600101611e99565b509495945050505050565b602081526000611ac46020830184611e85565b600080600060608486031215611ee857600080fd5b611ef184611a4b565b925060208401356001600160401b0380821115611f0d57600080fd5b611f1987838801611bbd565b93506040860135915080821115611f2f57600080fd5b50611f3c86828701611bbd565b9150509250925092565b600060208284031215611f5857600080fd5b81356001600160401b03811115611f6e57600080fd5b611f7a84828501611c2e565b949350505050565b8215158152604060208201526000611f7a6040830184611ae4565b60008060008060808587031215611fb357600080fd5b611fbc85611a4b565b9350602085013592506040850135915060608501356001600160401b03811115611fe557600080fd5b611ff187828801611c2e565b91505092959194509250565b6000806040838503121561201057600080fd5b61201983611a4b565b91506020830135801515811461202e57600080fd5b809150509250929050565b6000806040838503121561204c57600080fd5b8235915060208301356001600160401b0381111561206957600080fd5b611e7b85828601611c2e565b6000806040838503121561208857600080fd5b61209183611a4b565b915061209f60208401611a4b565b90509250929050565b600080600080600060a086880312156120c057600080fd5b6120c986611a4b565b94506120d760208701611a4b565b9350604086013592506060860135915060808601356001600160401b0381111561210057600080fd5b611d3d88828901611c2e565b60008060006060848603121561212157600080fd5b61212a84611a4b565b95602085013595506040909401359392505050565b600181811c9082168061215357607f821691505b60208210810361217357634e487b7160e01b600052602260045260246000fd5b50919050565b6020808252602e908201527f455243313135353a2063616c6c6572206973206e6f7420746f6b656e206f776e60408201526d195c881bdc88185c1c1c9bdd995960921b606082015260800190565b634e487b7160e01b600052603260045260246000fd5b634e487b7160e01b600052601160045260246000fd5b600060018201612205576122056121dd565b5060010190565b8082018082111561051c5761051c6121dd565b60208082526028908201527f455243313135353a2069647320616e6420616d6f756e7473206c656e677468206040820152670dad2e6dac2e8c6d60c31b606082015260800190565b60208082526025908201527f455243313135353a207472616e7366657220746f20746865207a65726f206164604082015264647265737360d81b606082015260800190565b6020808252602a908201527f455243313135353a20696e73756666696369656e742062616c616e636520666f60408201526939103a3930b739b332b960b11b606082015260800190565b6040815260006123096040830185611e85565b828103602084015261231b8185611e85565b95945050505050565b60208082526023908201527f455243313135353a206275726e2066726f6d20746865207a65726f206164647260408201526265737360e81b606082015260800190565b60208082526024908201527f455243313135353a206275726e20616d6f756e7420657863656564732062616c604082015263616e636560e01b606082015260800190565b6001600160a01b0386811682528516602082015260a0604082018190526000906123d790830186611e85565b82810360608401526123e98186611e85565b905082810360808401526123fd8185611ae4565b98975050505050505050565b60006020828403121561241b57600080fd5b8151611ac481611a91565b600060033d1115610ceb5760046000803e5060005160e01c90565b600060443d101561244f5790565b6040516003193d81016004833e81513d6001600160401b03816024840111818411171561247e57505050505090565b82850191508151818111156124965750505050505090565b843d87010160208285010111156124b05750505050505090565b6124bf60208286010187611b6e565b509095945050505050565b60208082526028908201527f455243313135353a204552433131353552656365697665722072656a656374656040820152676420746f6b656e7360c01b606082015260800190565b6001600160a01b03868116825285166020820152604081018490526060810183905260a06080820181905260009061254c90830184611ae4565b97965050505050505056fea26469706673582212207316b15f070e4b38780a187149dbfbd10bad26db647eede2a1eed85f39be705364736f6c63430008110033687474703a2f2f3132372e302e302e313a353530302f6170692f6368617261637465724e46542f7b69647d2e6a736f6e",
    "linkReferences": {}
  },
  "methodIdentifiers": {
    "TRIALNFTID()": "ea437271",
    "balanceOf(address,uint256)": "00fdd58e",
    "balanceOfBatch(address[],uint256[])": "4e1273f4",
    "burn(address,uint256,uint256)": "f5298aca",
    "burnBatch(address,uint256[],uint256[])": "6b20c454",
    "checkUpkeep(bytes)": "6e04ff0d",
    "currentDate()": "4f99b7c5",
    "exists(uint256)": "4f558e79",
    "isApprovedForAll(address,address)": "e985e9c5",
    "isTrustedForwarder(address)": "572b6c05",
    "levelOfAccess(address)": "3d8ad916",
    "makePremium(address)": "96df416c",
    "mint(address,uint256,uint256,bytes)": "731133e9",
    "owner()": "8da5cb5b",
    "performUpkeep(bytes)": "4585e33b",
    "renounceOwnership()": "715018a6",
    "resetToNewUser(address)": "230415de",
    "safeBatchTransferFrom(address,address,uint256[],uint256[],bytes)": "2eb2c2d6",
    "safeTransferFrom(address,address,uint256,uint256,bytes)": "f242432a",
    "setApprovalForAll(address,bool)": "a22cb465",
    "supportsInterface(bytes4)": "01ffc9a7",
    "totalSupply(uint256)": "bd85b039",
    "transferOwnership(address)": "f2fde38b",
    "trialNFT(address)": "9a131cc2",
    "trialNFTMint(uint256,bytes)": "d23813ce",
    "uri(uint256)": "0e89341c"
  },
  "id": 21
}